:020000040800F2
:10000000B03C01205D020008B126000897170008E7
:10001000AD26000851040008C132000800000000AD
:100020000000000000000000000000009D0100082A
:100030005504000800000000F9010008BD28000870
:1000400077020008770200087702000877020008AC
:10005000770200087702000877020008770200089C
:10006000770200087702000877020008770200088C
:10007000770200087702000877020008770200087C
:10008000770200087702000877020008770200086C
:10009000770200087702000877020008770200085C
:1000A000770200087702000877020008770200084C
:1000B00077020008CD2A00087702000877020008BE
:1000C000770200087702000877020008770200082C
:1000D000770200087702000877020008770200081C
:1000E000770200087702000877020008770200080C
:1000F00077020008770200087702000877020008FC
:1001000077020008770200087702000877020008EB
:100110007702000877020008DD2A0008770200084D
:1001200077020008770200087702000877020008CB
:1001300077020008770200087702000877020008BB
:1001400077020008770200087702000877020008AB
:10015000770200087702000877020008770200089B
:10016000770200087702000877020008770200088B
:1001700077020008770200087702000800000000FC
:100180007702000877020008DFF80CD000F0ECF8E6
:100190000048004775390008B03C01202C4B196815
:1001A0000868B0E8F04F80F30988BFF36F8F4FF015
:1001B000000080F3118870470000000008480068C4
:1001C000006880F308884FF0000080F3148862B65E
:1001D00061B6BFF34F8FBFF36F8F00DF00BF00BF6B
:1001E00008ED00E0DFF80C00016841F470010160E7
:1001F000704700BF88ED00E0EFF30980BFF36F8F19
:10020000134B1A681EF0100F08BF20ED108A20E96A
:10021000F04F106009B44FF0500080F31188BFF325
:100220004F8FBFF36F8F04F011FC4FF0000080F38D
:10023000118809BC19680868B0E8F04F1EF0100F6B
:1002400008BFB0EC108A80F30988BFF36F8F704746
:1002500014000020EFF30580704700000648804737
:1002600006480047FEE7FEE7FEE7FEE7FEE7FEE79B
:10027000FEE7FEE7FEE7FEE7A52900088901000882
:100280002DE9F05F0546002092469B4688460646CB
:10029000814640241BE0284641464746224600F05E
:1002A00053F853465A46C01A914110D31146184686
:1002B000224600F03AF82D1A67EB01084F46224615
:1002C0000120002100F031F817EB00094E41201EFB
:1002D000A4F10104DFDC484631462A464346BDE826
:1002E000F09F40EA01039B0703D009E008C9121FF1
:1002F00008C0042AFAD203E011F8013B00F8013BE0
:10030000521EF9D27047D2B201E000F8012B491E0B
:10031000FBD270470022F6E710B513460A460446A2
:100320001946FFF7F0FF204610BD202A04DB203AD3
:1003300000FA02F1002070479140C2F1200320FA38
:1003400003F3194390407047202A04DB203A21FA36
:1003500002F00021704721FA02F3D040C2F12002DE
:100360009140084319467047064C074D06E0E06887
:1003700040F0010394E8070098471034AC42F6D3EC
:10038000FFF706FFF46E0008146F00081CB516484E
:100390001F2100234FF40072CDE9001013A117486C
:1003A00004F032FF16481E2100234FF40072CDE9FD
:1003B000001014A1184804F027FF18481421002346
:1003C0004FF40072CDE9001015A1184804F01CFF8D
:1003D0000020152103464FF40072CDE9001014A14E
:1003E000184804F011FF1CBD00000020764C454465
:1003F0005461736B537461727400000069450008A6
:10040000C00000207653797374656D44656275672A
:1004100053746172740000007D480008C800002019
:100420007652435374617274000000005D48000806
:1004300076496E746572616374696F6E537461722C
:1004400074000000E944000810B502F0DBF810BDAC
:1004500000BFFEE77047000010B5012202210248EC
:1004600000F050F910BD0000001002400EB5002051
:10047000019002901C481D4908600220486000213C
:100480001A4881604FF4C861C1608021816100BF5A
:10049000002000901648006840F0100014490860E1
:1004A0000846006800F01000009000BF00BF0F2257
:1004B0001146362000F0AAF9362000F097F90B48D3
:1004C00000F09EFD08B1FFF7C7FF002001900290E9
:1004D00001A9064800F06AFD08B1FFF7BDFF034817
:1004E00000F0A9FD0EBD000000100040A433012063
:1004F00040380240F8B502460B4600250024002093
:100500000021DCE0012606FA01F51E6806EA050472
:10051000AC4273D15E68022E02D05E68122E13D1F7
:10052000CF0802F1200656F827004E07F70E0F26D7
:10053000BE40B0434F07FF0E1E69BE403043CF0898
:1005400002F1200646F8270010684F000326BE403F
:10055000B0431E7906F003064F00BE4030431060E2
:100560005E68012E08D05E68022E05D05E68112EEE
:1005700002D05E68122E13D190684F000326BE4051
:10058000B0434F00DE68BE403043906050680126A3
:100590008E40B0431E79C6F300168E403043506043
:1005A000D0684F000326BE40B0434F009E68BE4057
:1005B0003043D0605E6806F08056B6F1805F7DD132
:1005C00000BF00260096404E366846F480463E4FF7
:1005D0003E603E46366806F48046009600BF00BF87
:1005E0003A4E8F0856F827008E07370F0F26BE4069
:1005F000B043374EB24202D1002624E05EE0354ED1
:10060000B24201D101261EE0334EB24201D1022690
:1006100019E0324EB24201D1032614E0304EB2420C
:1006200001D104260FE02F4EB24201D105260AE087
:100630002D4EB24201D1062605E02C4EB24201D128
:10064000072600E008268F073F0FBE4030431F4EAD
:100650008F0846F82700264E3068A0435E6806F4EF
:100660008036B6F5803F00D12043214E3060361DE4
:100670003068A0435E6806F40036B6F5003F00D14E
:1006800020431B4E361D3060361D3068A0435E6827
:1006900006F48016B6F5801F00D12043144E0836AC
:1006A0003060361D3068A0435E6806F40016B6F56B
:1006B000001F00D120430E4E0C363060491C10291B
:1006C000FFF420AFF8BD0000443802400838014074
:1006D000000002400004024000080240000C0240FA
:1006E000001002400014024000180240001C0240AA
:1006F000003C0140024613690B400BB1012000E0B1
:10070000002070470AB1816101E00B0483617047EA
:1007100001480068704700000400002010B50D4833
:10072000006840F400700B4908600846006840F417
:10073000806008600846006840F48070086003200C
:1007400000F0A2F8002000F007F800F02BF80020DD
:1007500010BD0000003C024070B504460E48007811
:100760004FF47A71B1FBF0F00C490968B1FBF0F578
:10077000284600F0FFFB08B1012070BD102C07D205
:1007800000222146501E00F041F80548046001E0B7
:100790000120F2E70020F0E70C000020100000200C
:1007A0000800002008B500BF002000900E48006837
:1007B00040F480400C4908600846006800F480401E
:1007C000009000BF00BF00BF00200090081F00681D
:1007D00040F08050091F08600846006800F0805013
:1007E000009000BF00BF08BD4438024001460846E3
:1007F000002809DB00F01F0301229A4043099B00F7
:1008000003F1E023C3F8002100BF70472DE9F05F3A
:1008100080460D461646002702F07CFD0746394605
:100820002A46334601F00700C0F1070ABAF1040F67
:1008300002D94FF0040A01E0C0F1070AD14600F1E5
:10084000040ABAF1070F02D24FF0000A01E0A0F14A
:10085000030AD4464FF0010A0AFA09FAAAF1010A7A
:100860000AEA020A0AFA0CFA4FF0010B0BFA0CFB27
:10087000ABF1010B0BEA030B4AEA0B04214640469D
:1008800002F050FDBDE8F09F00BF00F00702064BEC
:1008900019684FF6FF031940044B0B4343EA02214A
:1008A000014B196000BF70470CED00E00000FA0535
:1008B00070B504460D460CB9012070BD584800685B
:1008C00000F00F00A84209D255490D700846006893
:1008D00000F00F00A84201D00120EEE7207800F0E0
:1008E000020002281DD1207800F00400042805D160
:1008F0004C48006840F4E0504A490860207800F015
:100900000800082805D14748006840F46040454980
:1009100008604448006820F0F000A168084341499D
:100920000860207800F00100A8B36068012807D1B2
:100930003C4808380068C0F34040B8B90120BCE723
:100940006068022802D06068032807D1354808385B
:100950000068C0F3406048B90120AEE7314808386C
:100960000068C0F3400008B90120A6E72D480068E0
:1009700020F00300616808432A490860FFF7C8FEB9
:10098000064609E0FFF7C4FE801B41F28831884229
:1009900002D9032091E707E02248006800F00C002C
:1009A0006168B0EB810FEDD11D48006800F00F00C9
:1009B000A84209D91A490D700846006800F00F00D6
:1009C000A84201D0012078E7207800F00400042834
:1009D00007D11448006820F4E050E1680843114949
:1009E0000860207800F00800082808D10D48006849
:1009F00020F46040216940EAC1000A49086000F023
:100A00003DF808490968C1F30311074A515CC84021
:100A1000064908600020FFF79FFE00204DE7000018
:100A2000003C0240083802401C570008100000201B
:100A300001480068704700001000002000B5FFF773
:100A4000F7FF04490968C1F38221034A515CC84099
:100A500000BD0000083802402C57000800B5FFF721
:100A6000E7FF04490968C1F34231034A515CC840B9
:100A700000BD0000083802402C5700082DE9F0475F
:100A8000002400250026A1462548006800F00C003F
:100A900020B1042805D008283AD105E0DFF8849079
:100AA00039E0DFF8849036E01D48001F006800F050
:100AB0003F041B48001F006800F4800078B11A480A
:100AC0001749091F0968C1F38811A0FB017001468D
:100AD000224600233846FFF7D3FB05460EE01148B7
:100AE0000F49091F0968C1F38811A0FB0170014675
:100AF000224600233846FFF7C3FB05460848001F7F
:100B00000068C0F30140401C4600B5FBF6F902E066
:100B1000DFF8109000BF00BF4846BDE8F087000036
:100B2000083802400024F40040787D01F8B50446FE
:100B30000CB90120F8BD207800F00100002874D025
:100B4000F948006800F00C0004280DD0F648006851
:100B500000F00C00082813D1F348001F006800F4CF
:100B60008000B0F5800F0BD1EF4808380068C0F363
:100B70004040002859D06068002856D10120D9E7AC
:100B800000BF6068B0F5803F08D1E74808380068CA
:100B900040F48030E449083908601EE06068B0F530
:100BA000A02F0DD1E0480838006840F48020DE49CD
:100BB000083908600846006840F4803008600CE09E
:100BC000D9480838006820F48030D74908390860CF
:100BD0000846006820F48020086000BF606890B17B
:100BE000FFF796FD054606E0FFF792FD401B6428DF
:100BF00001D903209EE7CC4808380068C0F3404084
:100C00000028F1D011E0FFF783FD054606E0FFF76D
:100C10007FFD401B642801D903208BE7C2480838B8
:100C20000068C0F340400028F1D1207800F00200B5
:100C300002285FD1BC48006800F00C0058B1BA48E7
:100C4000006800F00C0008281CD1B748001F00689D
:100C500000F48000B0B9B44808380068C0F3400020
:100C600020B1E068012801D0012063E7AE480838D0
:100C7000006820F0F800216940EAC100AA4908395B
:100C8000086037E0E06800B30120A8490860FFF77A
:100C90003FFD054606E0FFF73BFD401B022801D95A
:100CA000032047E7A04808380068C0F34000002848
:100CB000F1D09D480838006820F0F800216940EA2A
:100CC000C10099490839086014E00020974908607C
:100CD000FFF71EFD054606E0FFF71AFD401B022840
:100CE00001D9032026E7904808380068C0F3400087
:100CF0000028F1D1207800F0080008282CD1606984
:100D0000A8B101208A490860FFF702FD054606E008
:100D1000FFF7FEFC401B022801D903200AE78248A6
:100D20006C300068C0F340000028F1D014E00020CF
:100D30007F490860FFF7ECFC054606E0FFF7E8FC9A
:100D4000401B022801D90320F4E677486C30006884
:100D5000C0F340000028F1D1207800F004000428FE
:100D600070D1002670483830006800F0805090B98B
:100D700000BF002000906C483830006840F0805080
:100D80006949383108600846006800F080500090DA
:100D900000BF00BF01266748006800F48070B0B94A
:100DA0006448006840F4807062490860FFF7B0FC56
:100DB000054606E0FFF7ACFC401B022801D90320E2
:100DC000B8E65C48006800F480700028F2D000BFEC
:100DD000A068012808D154486830006840F001003C
:100DE0005149683108601DE0A06805280DD14E48C2
:100DF0006830006840F004004B49683108600846DC
:100E0000006840F0010008600CE047486830006866
:100E100020F001004449683108600846006820F06D
:100E20000400086000BFA068A8B1FFF771FC054688
:100E300009E0FFF76DFC401B41F28831884202D97E
:100E4000032077E626E0384868300068C0F34000A9
:100E50000028EED013E0FFF75BFC054608E0FFF743
:100E600057FC401B41F28831884201D9032061E6DA
:100E70002D4868300068C0F340000028EFD1012EF3
:100E800007D129483830006820F080502649383191
:100E9000086000BFA069B8B32348006800F00C00E8
:100EA00008285ED0A069022846D100201F490866A4
:100EB000FFF72EFC054606E0FFF72AFC401B022840
:100EC00001D9032036E6184808380068C0F34060AE
:100ED0000028F1D1D4E907010843616A40EA811191
:100EE0000122A06AC2EB500041EA00412C20005DC3
:100EF00041EA00600C49091F086001200B4908669F
:100F0000FFF706FC054607E02DE0FFF701FC401B5C
:100F1000022801D903200DE6034808380068C0F311
:100F200040600028F1D01EE008380240000047422F
:100F3000800E47420070004000200C490866FFF711
:100F4000E7FB054606E0FFF7E3FB401B022801D95B
:100F50000320EFE506480068C0F340600028F2D1A6
:100F600001E00120E6E50020E4E500000000474242
:100F70000038024070B504462546681EB0F1807FF7
:100F800001D301200FE0681E4FF0E02148610F21DE
:100F90004FF0FF3002F0C6F900204FF0E0218861E9
:100FA00007200861002070BD7047704710B50246E9
:100FB00000BF92F83C00012801D1022010BD0120A1
:100FC00082F83C0000BF022082F83D0010684368B0
:100FD0001068846823F070030868034324F08004D9
:100FE000486804431068436010688460012082F8F8
:100FF0003D0000BF002082F83C0000BF00BFDDE7DD
:1010000010B504460CB9012010BD94F83D0028B974
:10101000002084F83C00204600F00CF8022084F800
:101020003D00211D206801F067FD012084F83D008E
:101030000020E9E7704701460868C06840F00100F9
:101040000B68D8600868806800F00702062A05D09F
:101050000868006840F001000B68186000207047C5
:1010600010B5044603492068884202D1204601F0A9
:10107000CBFC10BD000400402DE9F04104460D46B4
:10108000164600BF94F83C00012802D10220BDE8BA
:10109000F081012084F83C0000BF022084F83D006C
:1010A00096B9EB68D5E90012206801F07FFE206850
:1010B000806920F00C002168886120688069A96837
:1010C0000843216888613DE0042E13D1EB68D5E91F
:1010D0000012206801F0B2FE2068806920F44060B0
:1010E0002168886120688069A96840EA0120216838
:1010F000886127E0082E12D1EB68D5E9001220683C
:1011000001F0B9FE2068C06920F00C002168C861B8
:101110002068C069A96808432168C86112E0EB68CB
:10112000D5E90012206801F0C2FE2068C06920F4F1
:1011300040602168C8612068C069A96840EA012050
:101140002168C861012084F83D0000BF002084F8B8
:101150003C0000BF00BF9AE710B504460CB901205F
:1011600010BD94F83D0028B9002084F83C002046CA
:1011700000F00CF8022084F83D00211D206801F0E9
:10118000BBFC012084F83D000020E9E7704770B502
:1011900004460D4635B1042D0BD0082D10D00C2D72
:1011A0001CD114E02068C06840F002002168C860CB
:1011B00015E02068C06840F004002168C8600EE0B7
:1011C0002068C06840F008002168C86007E0206817
:1011D000C06840F010002168C86000E000BF00BF98
:1011E00001222946206801F0F3FC2068806800F0A5
:1011F0000706062E05D02068006840F0010021682F
:101200000860002070BD10B5044620680069C0F376
:101210004000D8B12068C068C0F34000B0B16FF0A2
:10122000020021680861012020772068806900F0B1
:10123000030018B12046FFF713FF05E0204600F039
:10124000E7F8204600F000F90020207720680069C8
:10125000C0F38000D8B12068C068C0F38000B0B18E
:101260006FF00400216808610220207720688069FF
:1012700000F4407018B12046FFF7F2FE05E020466A
:1012800000F0C6F8204600F0DFF800202077206844
:101290000069C0F3C000D8B12068C068C0F3C000C6
:1012A000B0B16FF008002168086104202077206841
:1012B000C06900F0030018B12046FFF7D1FE05E039
:1012C000204600F0A5F8204600F0BEF80020207768
:1012D00020680069C0F30010D8B12068C068C0F36E
:1012E0000010B0B16FF0100021680861082020776D
:1012F0002068C06900F4407018B12046FFF7B0FEC6
:1013000005E0204600F084F8204600F09DF800201B
:1013100020772068006900F0010058B12068C0689B
:1013200000F0010030B16FF0010021680861204633
:1013300000F0B8F820680069C0F3C01058B1206808
:10134000C068C0F3C01030B16FF080002168086140
:101350002046FFF729FE20680069C0F3801058B1CD
:101360002068C068C0F3801030B16FF04000216881
:101370000861204600F0B0F820680069C0F3401012
:1013800058B12068C068C0F3401030B16FF0200041
:10139000216808612046FFF708FE10BD70B50446BD
:1013A0000E46154600BF94F83C00012801D10220EA
:1013B00070BD012084F83C0000BF022084F83D008D
:1013C00035B1042D09D0082D0CD00C2D14D10EE010
:1013D0003146206801F00EFC0FE03146206801F034
:1013E00041FC0AE03146206801F07AFC05E0314614
:1013F000206801F0B1FC00E000BF00BF012084F8CC
:101400003D0000BF002084F83C0000BF00BFCFE7D4
:10141000704710B504460CB9012010BD94F83D008A
:1014200028B9002084F83C00204600F00CF8022087
:1014300084F83D00211D206801F05EFB012084F846
:101440003D000020E9E770477047000070B5044692
:101450000E4601223146206801F0BAFB0F49206890
:10146000884203D00E492068884201D1012000E063
:10147000002028B12068406C40F400402168486496
:101480002068806800F00705062D05D020680068F8
:1014900040F0010021680860002070BD000001409C
:1014A0000004014070470246002031B1042907D0F2
:1014B000082908D00C290CD108E01368586B09E002
:1014C0001368986B06E01368D86B03E01368186C18
:1014D00000E000BF00BF7047704710B504460CB96C
:1014E000012010BDA06900B100E000BF94F83900F0
:1014F00028B9002084F83800204600F027F824207E
:1015000084F839002068C06820F400502168C86061
:10151000204601F0EBFC2068006920F4904021682F
:1015200008612068406920F02A002168486120682D
:10153000C06840F400502168C8600020E0632020AB
:1015400084F8390084F83A000020CAE710B586B064
:101550000446142101A8FEF7DDFE534920688842A5
:1015600031D100BF002000905048006840F01000CA
:101570004E4908600846006800F01000009000BF67
:1015800000BF00BF0020009048481438006840F0B9
:1015900001004649143908600846006800F001005F
:1015A000009000BF00BF4FF4C06001900220029085
:1015B00001200390032004900720059001A93C48D6
:1015C000FEF798FF6DE03B492068884232D100BFAA
:1015D000002000903548001F006840F40030334977
:1015E000091F08600846006800F40030009000BF42
:1015F00000BF00BF002000902C481438006840F065
:1016000008002A49143908600846006800F00800FC
:10161000009000BF00BF60200190022002900120D6
:101620000390032004900720059001A92248FEF7AB
:1016300061FF36E021492068884232D100BF002096
:1016400000901A48001F006840F480201749091FC5
:1016500008600846006800F48020009000BF00BFCA
:1016600000BF0020009011481438006840F00800C6
:101670000E49143908600846006800F00800009020
:1016800000BF00BF4FF44070019002200290012083
:101690000390032004900720059001A90648FEF757
:1016A00029FF06B010BD0000001001404438024080
:1016B0000000024000440040000C0240004800408E
:1016C0002DE9F84304460D4616461F464FF0000923
:1016D00094F8390020285CD105B116B90120BDE885
:1016E000F88300BF94F83800012801D10220F6E702
:1016F000012084F8380000BF0020E063212084F836
:101700003900FFF705F88146A684E6842BE0E08CDB
:10171000401EE084A068B0F5805F16D14B460022E1
:1017200080212046009701F095FD08B10320D6E7FF
:10173000A846B8F80000C0F3080021684860206996
:1017400008B9AD1C0FE06D1C0DE04B460022802156
:101750002046009701F07EFD08B10320BFE715F891
:10176000010B21684860E08C0028D0D14B46002254
:1017700040212046009701F06DFD08B10320AEE73F
:10178000202084F8390000BF002084F8380000BF12
:10179000A5E70220A3E700BFFEE7000000B587B081
:1017A000142102A8FEF7B6FD00BF002001901948E1
:1017B000006840F01000174908600846006800F013
:1017C0001000019000BF00BF00BF0020019008463C
:1017D000006840F0010008600846006800F0010061
:1017E000019000BF00BF7C200290002003900120E8
:1017F000049002A90848FEF77DFE01200290002017
:1018000003900120049002A90448FEF773FE07B07C
:1018100000BD0000303802400010024000000240CD
:1018200010B5002407E0054850F82410204600F0C9
:1018300007F8601CC4B2072CF5DB10BDE4330120AF
:1018400030B589B004460D46202101A8FEF762FD9F
:10185000072C7CD2DFE804F00415263748596A00CB
:101860002B463CA21E2101A801F03CFD3D48816AA7
:10187000002088473B4801AA0021436A0846984750
:1018800065E02B4638A21E2101A801F02BFD35484A
:10189000816A01208847334801AA0021436A012058
:1018A000984754E02B4634A21E2101A801F01AFDEE
:1018B0002C48816A022088472A4801AA0021436AED
:1018C0000220984743E02B462EA21E2101A801F0DA
:1018D00009FD2448816A03208847224801AA002183
:1018E000436A0320984732E02B4629A21E2101A813
:1018F00001F0F8FC1B48816A04208847194801AAB6
:101900000021436A0420984721E02B4623A21E2190
:1019100001A801F0E7FC1348816A052088471148B7
:1019200001AA0021436A0520984710E02B461EA219
:101930001E2101A801F0D6FC0A48816A06208847CA
:10194000084801AA0021436A0620984700BF00BF4B
:1019500009B030BD50574D315F4F75743D2025643F
:10196000000000009400002050574D325F4F757406
:101970003D202564000000005243315F496E3D2048
:10198000256400005243325F496E3D20256400000B
:101990005243335F496E3D20256400005243345F5B
:1019A000496E3D2025640000536572766F204F75A7
:1019B000743D20256400000010B5044622464FF413
:1019C00080610248FEF79EFE10BD0000000C024040
:1019D00070B5064600BFF02505EB850085010021A6
:1019E000084600F049FC00F089FD002403E0304681
:1019F00000F03CFD641CAC42F9D370BD7CB50446DC
:101A000006A51020CDE900052001401D81B210235C
:101A1000E822052000F0E4FC7CBD0000202020200E
:101A200020202020202020202020202020202020B6
:101A300020202020202020202020202020200000E6
:101A400010B50446ACB90020164988714FF4A07057
:101A50008880F02048800846008849F24131884259
:101A60001CD12C200F4908812A2048812B208881F5
:101A700014E001200B498871F02088804FF4A07099
:101A800048800846008849F24131884206D12C201E
:101A9000044908812A2048812B208881032000F0F6
:101AA00073FA10BD9400002070B504460D4616462A
:101AB0002148008849F24131884205D01E480088FB
:101AC00045F21031884213D11B49488900F0F2FCDD
:101AD000201200F0CBFCE0B200F0C8FC1649888967
:101AE00000F0E8FC281200F0C1FCE8B200F0BEFCF7
:101AF00000224FF480611148FEF704FE00224FF4EB
:101B000000610E48FEF7FEFD0B4800890C49086095
:101B1000002249150948FEF7F5FD01225102074848
:101B2000FEF7F0FD0122D1020448FEF7EBFD30463E
:101B300000F09CFC70BD00009400002000100240EA
:101B40001404024000B587B0142102A8FEF7E2FB9E
:101B500000BF002001902F48006840F010002D4980
:101B600008600846006800F01000019000BF00BF48
:101B700000BF002001900846006840F004000860A3
:101B80000846006800F00400019000BF00BF00BFDD
:101B9000002001900846006840F0020008600846F6
:101BA000006800F00200019000BF00BF00224FF467
:101BB00070611948FEF7A6FD00224FF480611748B6
:101BC000FEF7A0FD4FF48060029001200390049086
:101BD0000020059002A91148FEF78CFC4FF47060BC
:101BE000029001200390002004900120059002A99A
:101BF0000948FEF77FFC4FF6FF700290012003902A
:101C0000002004900220059002A90348FEF772FC10
:101C100007B000BD3038024000100240000C024006
:101C200010B5FFF78FFF322001F0DCFD012100200D
:101C300000F06CFC322001F0D5FD002000F09CF992
:101C4000A3490880D32000F035FC00F04BF900F0E8
:101C500049F900F047F99E490880084600884FF688
:101C6000FF7101EA00209A49088000F03BF9984989
:101C700009880843964908800846018895A001F024
:101C800021FB9348008849F2413188427ED1CF2020
:101C900000F010FC002000F0E9FBC12000F0E6FBA2
:101CA000302000F0E3FBED2000F004FC642000F0A5
:101CB000DDFB032000F0DAFB122000F0D7FB8120CF
:101CC00000F0D4FBE82000F0F5FB852000F0CEFB0F
:101CD000102000F0CBFB7A2000F0C8FBCB2000F0F6
:101CE000E9FB392000F0C2FB2C2000F0BFFB0020F4
:101CF00000F0BCFB342000F0B9FB022000F0B6FB82
:101D0000F72000F0D7FB202000F0B0FBEA2000F025
:101D1000D1FB002000F0AAFB002000F0A7FBC020B0
:101D200000F0C8FB1B2000F0A1FBC12000F0C2FBAB
:101D3000012000F09BFBC52000F0BCFB302000F030
:101D400095FB302000F092FBC72000F0B3FBB720DA
:101D500000F08CFB362000F0ADFB482000F086FB45
:101D60003A2000F0A7FB552000F080FBB12000F0E6
:101D7000A1FB002000F07AFB1A2000F077FBB620D0
:101D800000F098FB0A2000F071FB00E095E0A22033
:101D900000F06CFBF22000F08DFB002000F066FBF1
:101DA000262000F087FB012000F060FBE02000F01F
:101DB00081FB0F2000F05AFB2A2000F057FB28205F
:101DC00000F054FB082000F051FB0E2000F04EFB09
:101DD000082000F04BFB542000F048FBA92000F045
:101DE00045FB432000F042FB0A2000F03FFB0F20A0
:101DF00000F03CFB002000F039FB002000F036FB37
:101E0000002000F033FB002000F030FBE12000F068
:101E100051FB002000F02AFB152000F027FB1720C3
:101E200000F024FB072000F021FB112000F01EFB36
:101E3000062000F01BFB2B2000F018FB562000F0C2
:101E400015FB3C2000F012FB052000F00FFB1020DA
:101E500000F00CFB0F2000F009FB3F2000F006FB18
:101E60003F2000F003FB0F2000F000FB2B2000F0D0
:101E700021FB002000F0FAFA002000F0F7FA012020
:101E800000F0F4FA3F2000F0F1FA2A2000F012FBF3
:101E9000002000F0EBFA002000F0E8FA002000F04B
:101EA000E5FAEF2000F0E2FA112000F003FB7820C1
:101EB00001F098FC292000F0FDFA0020FFF7C0FD9A
:101EC0000120FFF779FD4FF6FF70FFF781FD10BD90
:101ED000940000204C4344204944203A2025327885
:101EE000200A000010B50020204908604FF055304E
:101EF0001E490C31086000201C4914310860012281
:101F000009151B48FEF7FEFB00224FF4006118483C
:101F1000FEF7F8FB00224FF480711548FEF7F2FB44
:101F20001448008848F68911884202D1012001F046
:101F300059FC0E481030006884B2012211020C488E
:101F4000FEF7E0FB0122D1020948FEF7DBFB4FF070
:101F500055300649086005490C3108604FF6FF709E
:101F6000024914310860204610BD00000004024000
:101F7000001002409400002010B50446204600F0F6
:101F800099FAFFF7AFFF10BD2DE9F0410546002497
:101F90000027B848807901280BD1B648008846F65A
:101FA0000401884205D0B348008841F66311884295
:101FB00008D1B0488079F0B9AE48008841F6631185
:101FC000884218D1082D15D2DFE805F00406080A6A
:101FD0000C0E101206250DE007250BE0042509E084
:101FE000052507E0012505E0002503E0032501E0C4
:101FF000022500BF00BF9F48008849F24131884256
:1020000017D09C48008846F60401884211D09948B0
:10201000008845F2103188420BD09648008845F27E
:102020001051884205D09348008841F663118842D8
:102030007ED1082D1CD2DFE805F00406090C0F1232
:10204000151800BF14E044F0800411E044F040048F
:102050000EE044F0C0040BE044F0200408E044F03B
:10206000600405E044F0A00402E044F0E00400BF96
:1020700000BF8048008845F21051884202D14FF4D9
:10208000585700E036277B48008845F210318842D7
:102090000DD07848008845F21051884207D0754825
:1020A000008841F66311884201D044F00804714869
:1020B000008846F60401884201D144F0020421461A
:1020C000384600F023FA6B48008841F663118842D5
:1020D0001DD004F0200068B16648408865498988B1
:1020E000884214DA634846888088624948800846F6
:1020F00086800CE05F4840885E498988884206DD1A
:102100005C48468880885B494880084686805948F4
:10211000008845F21051884254D15649488900F050
:10212000C9F9002000F0A2F952494989491C00E090
:1021300077E088B200F0BEF9002000F097F94D4931
:102140004989891C88B200F0B5F94A494988491E75
:10215000C1F30F2000F08AF946494989C91C88B2A9
:1021600000F0A8F943498978491EC8B200F07EF909
:102170004049888900F09EF9002000F077F93D4938
:102180008989491C88B200F095F9002000F06EF9A9
:1021900038498989891C88B200F08CF935498988C9
:1021A000491EC1F30F2000F061F932498989C91C29
:1021B00088B200F07FF92F490979491EC8B200F0B2
:1021C00055F955E02B49488900F074F9002000F0DA
:1021D0004DF9002000F04AF926494988491EC1F30B
:1021E0000F2000F043F923498978491EC8B200F056
:1021F0003DF92049888900F05DF9002000F036F9AA
:10220000002000F033F91B498988491EC1F30F20D3
:1022100000F02CF917490979491EC8B200F026F9D7
:1022200026E0082D1CD2DFE805F004070A0D0F1286
:10223000151844F0300413E044F0100410E044F0AA
:1022400020040DE000BF0BE044F0380408E044F047
:10225000280405E044F0180402E044F0080400BF3C
:1022600000BF032744F480542146384600F04EF95D
:10227000BDE8F0819400002070B504460D460D487D
:10228000008849F24131884213D10A49488900F057
:1022900011F9201200F0EAF8E0B200F0E7F8054981
:1022A000888900F007F9281200F0E0F8E8B200F0A1
:1022B000DDF870BD940000202DE9F84F80460E46F1
:1022C00017461C46B3462046E31704EB5373DB1056
:1022D00021464FEAE47C04EB5C7C4FEAEC0CA4EB77
:1022E000CC0CBCF1000F02D04FF0010C01E04FF01C
:1022F000000C6344224604EBD27C4FEA6C0C03FBD7
:102300000CF3DBB20093A7F12000C7B2002556E022
:102310000C2C07D107EB47002B4901EB800010F88C
:10232000059013E0102C05D1284800EB071010F899
:1023300005900BE0182C07D107EBC700244901EBEF
:10234000800010F8059001E0BDE8F88F4FF0000A1A
:102350002FE009F0800030B11E4802883146404627
:10236000FFF7A2FB07E00A9828B91B48028831460C
:102370004046FFF799FB4FEA49604FEA1069701C2D
:1023800086B216488088B04200DCDDE7A6EB0B0081
:10239000A0420AD15E4608F101001FFA80F80F48FA
:1023A0004088404500DCCFE706E00AF1010000F07C
:1023B000FF0ABAF1080FCCDB00BF681CC5B2009859
:1023C0008542A5DB00BFBFE734570008A85B0008C3
:1023D00098610008900000209200002094000020E6
:1023E0002DE9F84F04460D4690469946DDE90A6707
:1023F00004F0FF0A08EB04001FFA80F809EB05005F
:102400001FFA80F916E0444502DB5446A81985B24C
:102410004D4500DB14E0002000903A783346294611
:102420002046FFF749FF304606EBD07104EB61010F
:102430008CB27F1C38787E2802DC38782028E2DADB
:1024400000BFBDE8F88F7CB504460D461646102047
:102450002201521D91B2EA00521DCDE9000690B250
:102460001023E822FFF7BCFF7CBD000010B5044636
:10247000012291020D48FEF745F900224FF4006158
:102480000A48FEF73FF90A48046000224115074850
:10249000FEF738F9012251020448FEF733F9012210
:1024A000D1020248FEF72EF910BD000000100240D4
:1024B0001404024010B5044600224FF480610D4818
:1024C000FEF720F900224FF400610A48FEF71AF9DE
:1024D00009480460002241150648FEF713F901225D
:1024E00051020448FEF70EF90122D1020148FEF71D
:1024F00009F910BD001002401404024010B5024951
:102500000889FFF7D7FF10BD9400002070B505467D
:102510000C462846FFF7CEFF2046FFF7A7FF70BD09
:1025200000B587B0142102A8FDF7F4FE00BF00201B
:1025300001903248006840F01000304908600846B9
:10254000006800F01000019000BF00BF00BF002035
:1025500001900846006840F00400086008460068E2
:1025600000F00400019000BF00BF00BF00200190F8
:102570000846006840F0800008600846006800F0E7
:102580008000019000BF00BF00BF002001900846FE
:10259000006840F0080008600846006800F0080085
:1025A000019000BF00BF00BF0020019008460068F6
:1025B00040F0010008600846006800F0010001904A
:1025C00000BF00BF012203210D48FEF79BF8042045
:1025D0000290002003900120049002A90848FDF712
:1025E00089FF0320029001200390002004900590B1
:1025F00002A90348FDF77EFF07B000BD3038024056
:102600000010024010B50B480B4908604FF4E13050
:102610004860002108488160C16001610C2141616E
:1026200000218161C161FEF758FF08B1FDF714FF79
:1026300010BD000000100140D400002010B50B4870
:102640000B4908604FF4E130486000210848816080
:10265000C16001610C21416100218161C161FEF70E
:102660003CFF08B1FDF7F8FE10BD0000004400403B
:102670001401002010B50B480B4908604FF4E130FD
:102680004860002108488160C16001610C214161FE
:1026900000218161C161FEF720FF08B1FDF7DCFE7A
:1026A00010BD0000004800405401002000BFFEE7BC
:1026B0007047000000B58BB0142106A8FDF72AFE74
:1026C00000BF002001903348006840F0020031490B
:1026D00008600846006800F00200019000BF00BFDB
:1026E00000BF002001902B481038006840F0040023
:1026F0002849103908600846006800F0040001907D
:1027000000BF00BF4FF47070069002200790089041
:1027100009900A9006A92048FDF7ECFE1F482049C1
:1027200008605320486000211D488160491EC16037
:1027300000210161FEF710FD0D2211461D20FEF75C
:1027400065F81D20FEF752F80020029003900490D7
:102750000590029001200390002004900590002233
:1027600002A90F48FEF788FC08B1FDF775FE0422A8
:1027700002A90B48FEF780FC08B1FDF76DFE0021B1
:102780000748FEF704FD04210548FEF700FD0BB0E5
:1027900000BD000040380240000802400004004034
:1027A0000034012000B58DB0142108A8FDF7B2FD5A
:1027B00000BF002000903D48006840F004003B4905
:1027C00008600846006800F00400009000BF00BFE9
:1027D00000BF0020009035481038006840F0080025
:1027E0003249103908600846006800F0080000907F
:1027F00000BF00BF4FF470400890022009900020F5
:102800000A9002200B900C9008A92948FDF772FE4F
:10281000284829490860072048600021264881602F
:1028200048F6A041C160002101618161FEF7F1FD20
:102830001C2101A8FDF76EFD6020019041F2883057
:102840000290002003900590002201A91A48FEF78B
:10285000A5FD08B1FDF700FE042201A91648FEF708
:102860009DFD08B1FDF7F8FD082201A91248FEF709
:1028700095FD08B1FDF7F0FD0C2201A90E48FEF709
:102880008DFD08B1FDF7E8FD00210B48FEF7DEFDE8
:1028900004210948FEF7DAFD08210748FEF7D6FDB6
:1028A0000C210548FEF7D2FD0DB000BD40380240B6
:1028B000000C0240000800405034012010B500BF59
:1028C000502080F31188BFF34F8FBFF36F8F00BF8D
:1028D00002F0E0FC18B14FF080500449086000BFDE
:1028E000002080F3118800BF10BD000004ED00E05F
:1028F00000B593B0302107A8FDF70CFD142102A804
:10290000FDF708FD00BF002001902448006840F05A
:102910008050224908600846006800F0805001900D
:1029200000BF00BF00BF002001901D48006840F4B8
:1029300080401B4908600846006800F48040019010
:1029400000BF00BF012007900004089002200D90F6
:1029500041050E9119210F914FF4A8711091022198
:1029600011910421129107A8FEF7E0F808B1FDF7D4
:1029700073FD0F20029002200390002004904FF47A
:10298000A05005904FF480500690052102A8FDF755
:102990008FFF08B1FDF760FD13B000BD4038024065
:1029A000007000401448006840F47000124908604C
:1029B0001248006840F001001049086000200F49EB
:1029C000083108600D4800680D4908400B4908604F
:1029D0000C48091D0860081F006820F48020091FAA
:1029E0000860002005490C3108604FF00060024982
:1029F000803908607047000088ED00E00038024030
:102A0000FFFFF6FE1030002470B504460025214873
:102A1000016821A000F056FC1E48006885B2002124
:102A20002046FEF740FD2349086008460068224919
:102A30000968401A214908601E4800681E4908605C
:102A40001448006820F002001249086000220221A8
:102A50001B48FDF757FE05F00400C8B104212046CD
:102A6000FEF721FD1349486008464068124949684D
:102A7000401A124948600F4840680F4948601148A1
:102A8000114909680861012202210D48FDF73AFE4B
:102A900070BD00001004004054494D335F49435F4E
:102AA00043616C6C6261636B205352203D2025783A
:102AB000200A0000A034012090340120403401207D
:102AC00000100240FBFBFFFF0034012010B502485C
:102AD000FEF799FB10BD00000034012010B504483A
:102AE0000068401C024908600248FEF78CFB10BDDC
:102AF000C4000020A433012010B50268294B98427D
:102B00000ED0B0F1804F0BD0274B984208D0274B06
:102B1000984205D0264B984202D0264B984203D1CA
:102B200022F070024B681A431E4B984220D0B0F13D
:102B3000804F1DD01C4B98421AD01C4B984217D086
:102B40001B4B984214D01B4B984211D01A4B984201
:102B50000ED01A4B98420BD0194B984208D0194B03
:102B6000984205D0184B984202D0184B984203D196
:102B700022F44072CB681A4322F080034C6943EA86
:102B8000040202608B68C3620B688362054B984243
:102B900002D0084B984201D10B69036301234361C2
:102BA00010BD00000000014000040040000800408B
:102BB000000C00400004014000400140004401407E
:102BC0000048014000180040001C00400020004068
:102BD00030B501F01F05012404FA05F3046A9C4393
:102BE0000462046A01F01F0502FA05F52C43046231
:102BF00030BD000030B5056A25F001050562026AA6
:102C00004368846924F0700424F003040D682C43A5
:102C100022F002028D682A43104DA84200D103E041
:102C20000F4DA84206D100BF22F00802CD682A430A
:102C300022F00402094DA84202D0094DA84207D152
:102C400023F4807323F400734D692B438D692B4368
:102C5000436084614D684563026230BD00000140FD
:102C60000004014030B5056A25F010050562026ACE
:102C70004368846924F4E04424F440740D6844EA11
:102C8000052422F020028D6842EA0512124DA84266
:102C900000D103E0114DA84207D100BF22F080020D
:102CA000CD6842EA051222F040020B4DA84202D044
:102CB0000A4DA84209D123F4806323F400634D69CF
:102CC00043EA85038D6943EA8503436084614D6867
:102CD0008563026230BD0000000001400004014035
:102CE00030B5056A25F480750562026A4368C469D7
:102CF00024F0700424F003040D682C4322F40072C5
:102D00008D6842EA0522124DA84200D103E0114D20
:102D1000A84207D100BF22F40062CD6842EA052232
:102D200022F480620A4DA84202D00A4DA84209D17D
:102D300023F4805323F400534D6943EA05138D694E
:102D400043EA05134360C4614D68C563026230BD48
:102D5000000001400004014030B5056A25F48055AB
:102D60000562036A4468C26922F4E04222F44072B8
:102D70000D6842EA052223F400538D6843EA0533C7
:102D8000084DA84202D0084DA84204D124F4804442
:102D90004D6944EA85144460C2614D68056403626C
:102DA00030BD0000000001400004014070B50C4639
:102DB0001546066A26F0010606628169026A184E07
:102DC000B04214D0B0F1804F11D0164EB0420ED0A8
:102DD000154EB0420BD0154EB04208D0144EB04242
:102DE00005D0144EB04202D0134EB04201D101269C
:102DF00000E000261EB121F00301294301E041F06B
:102E0000010121F0F001F02606EA0316314322F019
:102E10000A0204F00A0632438161026270BD0000BA
:102E2000000001400004004000080040000C004089
:102E300000040140004001400018004070B50C46FD
:102E40001546066A26F0100606628169026A21F4B8
:102E5000407141EA052121F470414FF4704606EAC1
:102E60000336314322F0A002A02606EA04163243BC
:102E70008161026270BD70B50C461546066A26F483
:102E800080760662C169026A21F00301294321F0BC
:102E9000F001F02606EA0316314322F420624FF4D3
:102EA000206606EA04263243C161026270BD70B535
:102EB0000C461546066A26F480560662C169026A07
:102EC00021F4407141EA052121F470414FF470462C
:102ED00006EA0336314322F420424FF4204606EA44
:102EE00004363243C161026270BD00002DE9F04139
:102EF00004462068006920F44050E16808432168D6
:102F000008612169A068084361690843E16940EAF2
:102F100001052068C06849F20C6188432843216894
:102F2000C8602068406920F44070A16908432168A6
:102F30004861E069B0F5004F7ED1C44920688842FD
:102F400003D0C349206888425DD1FDF787FD00EBBF
:102F5000C00101EB001061684900B0FBF1F0642191
:102F6000B0FBF1F00601FDF779FD00EBC00101EBCC
:102F7000001061684900B0FBF1F7FDF76FFD00EB51
:102F8000C00101EB001061684900B0FBF1F0642161
:102F9000B0FBF1F000EBC00101EB0010A7EB8000EB
:102FA000322101EBC0006421B0FBF1F000F0F80029
:102FB00006EB4006FDF752FD00EBC00101EB0010EF
:102FC00061684900B0FBF1F7FDF748FD00EBC00177
:102FD00001EB001061684900B0FBF1F06421B0FB27
:102FE000F1F000EBC00101EB0010A7EB80003221F3
:102FF00001EBC0006421B0FBF1F000F007003044A9
:103000002168886020E1FDF719FD00EBC00101EBAC
:10301000001061684900B0FBF1F06421B0FBF1F0F1
:103020000601FDF70BFD00EBC00101EB001061682C
:103030004900B0FBF1F700E045E0FDF7FFFC00EBD5
:10304000C00101EB001061684900B0FBF1F06421A0
:10305000B0FBF1F000EBC00101EB0010A7EB80002A
:10306000322101EBC0006421B0FBF1F000F0F80068
:1030700006EB4006FDF7E2FC00EBC00101EB00109F
:1030800061684900B0FBF1F7FDF7D8FC00EBC00127
:1030900001EB001061684900B0FBF1F06421B0FB66
:1030A000F1F000EBC00101EB0010A7EB8000322132
:1030B00001EBC0006421B0FBF1F000F007003044E8
:1030C00021688860C0E061492068884203D0604977
:1030D000206888425CD1FDF7C1FC00EBC00101EB28
:1030E000001061688900B0FBF1F6FDF7B7FC00EB5A
:1030F000C00101EB001061688900B0FBF1F06421B0
:10310000B0FBF1F000EBC00101EB0010A6EB80007A
:10311000322101EB00106421B0FBF1F000F0F00669
:10312000FDF79CFC00EBC00101EB00106168890019
:10313000B0FBF1F06421B0FBF1F006EB0016FDF7F7
:103140008DFC00EBC00101EB001061688900B0FB51
:10315000F1F7FDF783FC00EBC00101EB00106168A3
:103160008900B0FBF1F06421B0FBF1F000EBC0018D
:1031700001EB0010A7EB8000322101EB001064216D
:10318000B0FBF1F000F00F003044216888605BE094
:10319000FDF754FC00EBC00101EB001061688900F1
:1031A000B0FBF1F6FDF74AFC00EBC00101EB0010AB
:1031B00061688900B0FBF1F06421B0FBF1F000EB35
:1031C000C00101EB0010A6EB8000322101EB0010E2
:1031D0006421B0FBF1F000F0F006FDF72FFC00EBEE
:1031E000C00101EB001061688900B0FBF1F06421BF
:1031F000B0FBF1F006EB0016FDF720FC00EBC00180
:1032000001EB001061688900B0FBF1F7FDF716FCD7
:1032100000EBC00101EB001061688900B0FBF1F028
:103220006421B0FBF1F000EBC00101EB0010A7EB53
:103230008000322101EB00106421B0FBF1F000F0BE
:103240000F00304421688860BDE8F0810010014023
:10325000001401402DE9F04104460D4617469846FA
:10326000069E21E0701CF8B12EB1FDF751FAA0EBDB
:103270000800B04218D92068C06820F4D0702168D6
:10328000C8602068406920F0010021684861202062
:1032900084F8390084F83A0000BF002084F8380030
:1032A00000BF0320BDE8F081206800682840A842E4
:1032B00001D1012000E00020B842D3D00020F1E786
:1032C00000BFFEE70FB4054B10B503A9044A0298EE
:1032D00000F04CF810BC5DF814FB0000F13700085A
:1032E000D00000200FB41CB50246002007AC002916
:1032F0000BD0491ECDE90021054B6A4621460698B0
:1033000000F034F8009A002111701CBC5DF814FB29
:10331000CF37000802480068C0F302207047000061
:103320000CED00E010B5002804DB0A07130E054A77
:10333000135406E00A07140E034A00F00F031B1F84
:10334000D45410BD00E400E018ED00E002E008C82D
:10335000121F08C1002AFAD170477047002001E00F
:1033600001C1121F002AFBD1704700002DE9FF4F59
:103370008DB00F460546002606E025280BD0DDE976
:103380000F1290476D1C761C28780028F5D111B0DB
:103390003046BDE8F08F0024A246A1460122EC4948
:1033A00000E0044315F8013F203B02FA03F0084215
:1033B000F7D128782A2810D06FF02F022878A0F1B2
:1033C0003001092914D80AEB8A0102EB410144F0CB
:1033D000020400EB010A6D1CF0E701CF5FEA000A6E
:1033E00003D544F40054CAF1000A44F002046D1CF1
:1033F00028782E2817D115F8010F44F004042A2844
:103400000ED06FF02F022878A0F1300109290AD8D8
:1034100009EB890102EB410100EB01096D1CF2E7A8
:1034200057F8049B6D1C28786C280FD006DC4C28BC
:1034300017D068280DD06A2814D104E0742810D061
:103440007A280FD10DE044F400140AE044F480140B
:1034500001E044F440146978814202D104F58014FB
:103460006D1C6D1C2A786E2A1FD00CDC632A31D0AB
:1034700004DC002A8BD0582A11D1A3E0642A68D03A
:10348000692A0CD165E0732A2ED004DC6F2A73D030
:10349000702A04D19BE0752A6FD0782A6ED010462E
:1034A000DDE90F129047761C50E1C4F30250022868
:1034B00006D0032809D0042801CF09D0066045E1D1
:1034C00001CFF117C0E9006140E101CF06803DE185
:1034D00006703BE117F8040B8DF8000000208DF812
:1034E0000100EB46012003E057F804BB4FF0FF302A
:1034F00061074FF0000102D40DE008F10101884698
:1035000049450FDA8045F8DB1BF808100029F4D193
:1035100008E008F1010188468142FADB1BF8081037
:103520000029F6D1DDE90F23AAEB080081462146E8
:1035300000F036F9304400EB080604E0DDE90F1234
:103540001BF8010B9047B8F10108F7D22146484615
:10355000F7E00A21C4F302534FF0000B0891022B4D
:1035600004D001CFC117032B09D00AE0FF1D27F0BB
:103570000707F7E8020108E032E01FE020E000B2B0
:10358000C117042B01D140B2C117031E71F1000312
:1035900007DA4FF0000CD0EB0C006CEB01012D238F
:1035A00002E0230504D52B238DF82430012303E00A
:1035B000E30701D02023F7E7984658E00A2110E0FE
:1035C00010210EE010204FF0000B08900CE01021AD
:1035D0004FF0000B44F004044FF00809089103E099
:1035E00008214FF0000B0891C4F30253022B04D0C2
:1035F00001CF0021032B06D006E0FF1D27F00707AF
:10360000F7E8020103E080B2042B00D1C0B24FF012
:10361000000823072BD5702A07D0DDF820C08CF0D6
:10362000100C5CEA0B0C05D00EE040238DF8243022
:10363000012308E050EA010306D030238DF824303E
:103640008DF8252002239846DDF820C08CF0080C68
:103650005CEA0B0C0BD150EA010301D1630706D5DC
:1036600030238DF824304FF00108A9F10109582AC0
:1036700004D038A20B9208AA0A920BE03AA2F9E70A
:103680005B46089AFCF7FCFD0B9B9B5C0A9A521E5A
:103690000A92137050EA0102F2D10A98ADEB0000D1
:1036A00000F1200B600702D524F4803401E04FF0D4
:1036B0000109D94502DDA9EB0B0000E0002000EB79
:1036C0000B0141440890AAEB010AE00306D4DDE9AE
:1036D0000F232146504600F063F806444FF00009DE
:1036E00008E009A911F80900DDE90F12904709F176
:1036F0000109761CC145F4DBE0030CD5DDE90F239D
:103700002146504600F04CF8064404E0DDE90F1273
:1037100030209047761C0899481E08900029F5DC57
:1037200008E00A980A990078491C0A91DDE90F120D
:103730009047761CBBF10001ABF1010BF1DC214697
:103740005046DDE90F2300F019F806446D1C1BE616
:103750000928010030313233343536373839616267
:10376000636465660000000030313233343536372B
:103770003839414243444546000000002DE9F041FC
:10378000044600251E461746880404D405E0394641
:103790002020B0476D1C641EF9D52846BDE8F08195
:1037A0002DE9F041044600251E469046C80301D588
:1037B000302700E02027880404D505E0414638463C
:1037C000B0476D1C641EF9D52846BDE8F0814A68F3
:1037D000002A06D00A68531C0B6010704868401E0F
:1037E0004860704710B50446204601F05DF810BDF2
:1037F00038B504460D46E0B2009002230122694626
:103800000248FDF75DFF002038BD0000D400002015
:1038100010B504214E48FCF76DFF70B9642001F02B
:1038200043F804214A48FCF765FF60B9494800782D
:1038300040F001004749087005E04648007820F054
:1038400001004449087008214148FCF753FF70B952
:10385000642001F029F808213D48FCF74BFF60B9CE
:103860003C48007840F002003A49087005E03948C9
:10387000007820F002003749087010213448FCF726
:1038800039FF70B9642001F00FF810213048FCF7BF
:1038900031FF60B92F48007840F004002D490870CE
:1038A00005E02C48007820F004002A490870202107
:1038B0002748FCF71FFF70B9642000F0F5FF2021B6
:1038C0002348FCF717FF60B92248007840F0080051
:1038D0002049087005E01F48007820F008001D49C5
:1038E000087040211A48FCF705FF70B9642000F009
:1038F000DBFF40211648FCF7FDFE60B91548007853
:1039000040F010001349087005E01248007820F0DC
:1039100010001049087001210F48FCF7EBFE70B948
:10392000642000F0C1FF01210B48FCF7E3FE60B901
:103930000848007840F020000649087005E0054876
:10394000007820F02000034908700248007810BD7C
:1039500000100240CC000020000002400146032974
:1039600001DD00207047024850F82100FAE700000E
:1039700040340120FCF7D2FEFEF7BAFFFCF764FDED
:10398000FCF704FD01F00CF800BFFEE72DE9F04163
:1039900005460E461C4807681C480068001D00F0DC
:1039A0008FFD50B91948006890F82C10012088400C
:1039B00017490968814316480160681C38B936B157
:1039C00012480168091D134800F01EFE1AE07C1918
:1039D0000E4800684460BC4207D20C480168091DCB
:1039E0000D48006800F0F6FD0CE008480168091D6C
:1039F0000A48006800F0EEFD09480068844201D2E0
:103A000007480460BDE8F081280000201400002071
:103A10002C000020680700201C0000201800002057
:103A20004400002010B5044600F0FAFD2448006868
:103A3000401C234908602348006840B921480460BD
:103A40000846006801280DD100F0D8F90AE01E48A8
:103A5000006838B91B480068C06AE16A884201D82A
:103A60001848046019480068401C18490860084656
:103A70000068206494F82C100120884014490968DB
:103A8000084313490860E16A01EB8101114A02EB26
:103A90008100211D00F0B8FD00F0ECFD0A4800682F
:103AA00068B108480068C06AE16A884207D24FF0EE
:103AB000805009490860BFF34F8FBFF36F8F10BD6F
:103AC00024000020140000203000002040000020CE
:103AD0002C0000209804002004ED00E010B500F058
:103AE0009FFD10480068D0B90F4800F063FD0F48F3
:103AF00000F060FD0C480E4908600C480D49086054
:103B000000220C210A2001F0BBF806490860084693
:103B1000006820B108A10348006800F063FE00F0CF
:103B2000A9FD10BD600000207C0700209007002048
:103B3000580000205C000020546D7251000000000D
:103B400010B516E000F06CFD0C48C068C468201D7C
:103B500000F0B6FC0A480068401E094908600948A0
:103B60000068401E0749086000F084FD204600F010
:103B70005FF8044800680028E4D110BD5407002015
:103B8000240000202000002070B504460D46206C63
:103B900070B1216CE0680144E160D4E90210884210
:103BA00001D32168E1602846226CE168FCF799FBAB
:103BB00070BD2DE9F04104460F4615464FF0000850
:103BC000A66B206C48B9206800282CD1A06801F0B1
:103BD00005FC80460020A06025E07DB93946226CB6
:103BE0006068FCF77EFB216C606808446060D4E983
:103BF0000101884217D32068606014E03946226CC6
:103C0000E068FCF76EFB216CE068411AE160216816
:103C1000E068884203D2216CA068411AE160022D5D
:103C200001D106B1761E701CA0634046BDE8F0814C
:103C300010B50446206B00F03BFD204600F038FD37
:103C400010BD00000146084A126812680AB9012234
:103C500000E000220A600A6822B9034A1268D268AA
:103C6000106800E0002070475800002030B54FF485
:103C70009633174800F007042CB1C01D20F0070050
:103C8000134C041B1B1B0246124C22600024114DD6
:103C90006C60D018083820F007000F4C206000241A
:103CA0000D4D2D686C600C4D2D682C601146441A2A
:103CB0004C60094C24680C60084D4C682C60084D21
:103CC0004C682C604FF00044064D2C6030BD000065
:103CD000A40700206C000020740000207C0000205D
:103CE000780000208000002000BFFFF729FF064871
:103CF00000680128F9D94FF0805004490860BFF3EB
:103D00004F8FBFF36F8FF0E79804002004ED00E0C1
:103D10002DE9F04106460D4617469846069C0DB91A
:103D2000246000E02760E66325640121204600F05E
:103D3000D5FF84F84C80BDE8F0812DE9F05F824624
:103D40000E4690469B460A9F0C9C4FEA8801A5228E
:103D5000206BFCF7D8FAA8F10100216B01EB800978
:103D600029F0070909F0070008B9012000E0002048
:103D700050B900BF502080F31188BFF34F8FBFF3BD
:103D80006F8F00BF00BFFEE786B1002507E0715DC1
:103D900004F134004155705D00B902E06D1C0A2D3C
:103DA000F5D300BF00213D20015502E0002084F83A
:103DB0003400202F00D31F27E762A7640020E064AF
:103DC000201D00F004FC04F1180000F000FC246148
:103DD000C7F12000A061646200202065606584F85E
:103DE00058005A465146484600F054FB20600B9854
:103DF00008B10B980460BDE8F09F000010B50024E6
:103E000007E004EB84010F4A02EB810000F0D2FBD3
:103E1000641C202CF5D30C4800F0CCFB0B4800F0C0
:103E2000C9FB0B4800F0C6FB0A4800F0C3FB0A4878
:103E300000F0C0FB044809490860044808490860CC
:103E400010BD000098040020180700202C07002057
:103E500040070020540700206807002018000020B9
:103E60001C00002010B50146164800E000680368F9
:103E70008B42FBD30246436813448B4204D1436810
:103E80004C682344436001460A464B681344046867
:103E9000A34211D10C4C03682468A34208D04B689C
:103EA0000468646823444B6003681B680B6005E08A
:103EB000054B1B680B6001E003680B60884200D073
:103EC000016010BD6C000020740000202DE9F0415D
:103ED00004460D4616461F464FF0000865602461F3
:103EE000B5420CD8F01BA169884202D34FF00108FB
:103EF00011E0211D0948006800F06CFB0BE0BE4298
:103F000004D2BD4202D34FF0010804E0211D044851
:103F1000006800F05FFB4046BDE8F0815C000020D7
:103F20005800002070B5054600F07AFBA86B08B970
:103F3000012400E0002400F09DFB204670BD70B518
:103F4000054600F06DFBA86BE96B884201D10124A6
:103F500000E0002400F08EFB204670BDF8B5054659
:103F60000F461A480068C068C468201D00F0A8FA0F
:103F700094F8280000F00400E8B1A06941192B462C
:103F80003A462046FFF7A2FFD8B1002003462A4652
:103F900001460090204601F07FFB064656B900BF5F
:103FA000502080F31188BFF34F8FBFF36F8F00BF96
:103FB00000BFFEE705E094F8280020F0010084F837
:103FC00028002046216A8847F8BD000058000020DC
:103FD00070B586B08BE003980028FBDB059C606918
:103FE00008B9012000E0002010B9201D00F068FA97
:103FF00002A800F0DDF8054603980A2875D2DFE82C
:1040000000F009050739416306083A4200BF00BFC6
:1040100000BF00BF94F8280040F0010084F8280099
:104020000498A269811803462A462046FFF74EFFEE
:10403000F8B12046216A884794F8280000F004006F
:10404000B8B1002000900498A169421800231946D5
:10405000204601F021FB064656B900BF502080F3F0
:104060001188BFF34F8FBFF36F8F00BF00BFFEE714
:1040700000BF3BE000BF94F8280020F0010084F866
:10408000280033E000BF94F8280040F0010084F8D5
:1040900028000498A061A06908B1012000E0002078
:1040A00050B900BF502080F31188BFF34F8FBFF38A
:1040B0006F8F00BF00BFFEE7A06941192B462A465B
:1040C0002046FFF703FF11E094F8280000F00200FB
:1040D00018B9204600F0ECFA05E094F8280020F02A
:1040E000010084F8280001E0FFE700BF00BF0022C4
:1040F00003A90448006800F08DFF00287FF46BAF2F
:1041000006B070BD60000020F8B505460C4600F012
:1041100095FC684600F04CF80646009820BB44B970
:10412000B54206D801F00AFA31462846FFF716FFD5
:104130001CE03CB10E480068006808B9012000E0AE
:1041400000200446A91B22460A48006800F060FBD4
:1041500001F0F4F950B94FF0805007490860BFF3FF
:104160004F8FBFF36F8F01E001F0E8F9F8BD000059
:104170005C0000206000002004ED00E00A490968AE
:10418000096809B9012100E0002121B14FF0FF3198
:10419000064A116006E004490968C968C868034A0C
:1041A00041681160704700001800002044000020A2
:1041B00070B5044601F068F8054607480068854276
:1041C00004D200F00BF80120206001E00020206004
:1041D00001480560284670BD680000202DE9F843BD
:1041E00034E025480068C068056823480068C06856
:1041F000C468201D00F064F92046216A884794F8BD
:10420000280000F0040008B3A0694619AE4207D99F
:1042100066602461211D1848006800F0DBF915E094
:10422000002003462A4601460090204601F034FA59
:10423000074657B900BF502080F31188BFF34F8F56
:10424000BFF36F8F00BF00BFFEE700BF0A480068E2
:10425000006808B9012000E000200028C1D006480D
:10426000D0F8008005480068034908600348C0F89A
:104270000080BDE8F8830000580000205C000020AA
:104280000E480068401C08B9012000E0002050B929
:1042900000BF502080F31188BFF34F8FBFF36F8FA3
:1042A00000BF00BFFEE700BF502080F31188BFF3BE
:1042B0004F8FBFF36F8F00BF00BFFEE78400002069
:1042C00008B500BF6846FFF7BDFC044620460099CC
:1042D000FFF71AFFFFF77CFEF4E770B5044600F025
:1042E0009FF994F9455010E0606A08B9012000E098
:1042F000002038B904F1240001F0D4F818B100F01E
:104300000DFB00E003E0681E45B2002DECDC00BFB1
:10431000FF2084F8450000F0ADF900F081F994F930
:10432000445010E0206908B9012000E0002048B99D
:1043300004F1100001F0B6F808B100F0EFFA681EC1
:1043400045B200E001E0002DECDC00BFFF2084F866
:10435000440000F08FF970BD2DE9F04104464FF0A4
:10436000000800F06BFB4648006808B9FFF77EFCC8
:1043700044480068204000286BD1D4B1083404F0D0
:104380000700B0B104F00700C0F10800044404F0D5
:10439000070008B9012000E0002050B900BF5020FC
:1043A00080F31188BFF34F8FBFF36F8F00BF00BF43
:1043B000FEE7002C4DD034480068844249D8334E83
:1043C0003046056801E02E462D686868A04202D29A
:1043D00028680028F7D12A480068854239D030681B
:1043E00000F10808286830606868001B102819D997
:1043F0002F1907F0070008B9012000E0002050B98C
:1044000000BF502080F31188BFF34F8FBFF36F8F31
:1044100000BF00BFFEE76868001B78606C6038462C
:10442000FFF720FD184968680968081A16490860EE
:104430000846006816490968884203D21248006895
:10444000134908600F4968680968084368600020DC
:10445000286001F073F808F0070008B9012000E0B7
:10446000002050B900BF502080F31188BFF34F8F58
:10447000BFF36F8F00BF00BFFEE74046BDE8F0818D
:104480007400002080000020780000206C000020D4
:104490007C000020001F4FF080730360001F21F09C
:1044A00001030360001F054B036014380260001F06
:1044B0006FF002030360203870470000814200085B
:1044C00001460A69D1E901309860D1E901035860D9
:1044D0005068884201D188685060002008611068E7
:1044E000401E10601068704717490869804717A080
:1044F000FEF7E8FEFDF794F9FDF750F9002422E0FD
:10450000052000F0D1F9FFF783F90446DCB121461C
:1045100011A0FEF7D7FE0020FFF720FA0546294636
:104520000FA0FEF7CFFE0020FFF718FA0546294638
:104530000220FDF785F90120FFF710FA054629460C
:104540000320FDF77DF9DBE794000020764C43441F
:1045500053746172740A00004B45593D2578000080
:104560006765743D25640A00FDF7DAFFFEF766F81B
:10457000FEF780F80BA0FEF7A5FE11E04FF4FA70ED
:1045800000F092F9002201210948FCF7BBF84FF432
:10459000FA7000F089F9012211460548FCF7B2F8DB
:1045A000ECE70000764C454453746172740A0000D5
:1045B0000010024000F1080141604FF0FF318160BE
:1045C00000F10801C1600161002101607047002114
:1045D0000161704710B502460B685C1C0CB910698C
:1045E00007E002F1080000E04068446824689C424B
:1045F000FAD944684C604C68A160886041600A61E7
:104600001468641C146010BD42684A6093688B6033
:10461000936859609160086103685B1C0360704790
:1046200000BF502080F31188BFF34F8FBFF36F8F0F
:1046300000BF0E480068401C0C490860084600682E
:10464000012812D10A480068C0B208B9012000E070
:10465000002050B900BF502080F31188BFF34F8F66
:10466000BFF36F8F00BF00BFFEE7704784000020DC
:1046700004ED00E00D48006850B900BF502080F301
:104680001188BFF34F8FBFF36F8F00BF00BFFEE7EE
:1046900006480068401E054908600846006820B9C1
:1046A000002080F3118800BF00BF70478400002005
:1046B00070B506463546002E3FD0083D2C461F49B2
:1046C00060680968084008B1012000E0002050B986
:1046D00000BF502080F31188BFF34F8FBFF36F8F5F
:1046E00000BF00BFFEE7206808B9012000E00020FD
:1046F00050B900BF502080F31188BFF34F8FBFF334
:104700006F8F00BF00BFFEE70C4960680968084072
:1047100098B1206888B90949606809688843606071
:1047200000F08CF90649606809680844044908608B
:104730002046FFF797FB00F001FF70BD80000020CE
:104740007800002000204FF0E021086188610648D1
:1047500000684FF47A71B0FBF1F0401E4FF0E02199
:1047600048610720086170471000002070B5FBF712
:1047700071FD0446102C16D304F1E02090F8F0539C
:1047800015480078854201DB012000E0002050B987
:1047900000BF502080F31188BFF34F8FBFF36F8F9E
:1047A00000BF00BFFEE70D48006800F4E0600C4960
:1047B0000968884201D8012000E0002050B900BFFC
:1047C000502080F31188BFF34F8FBFF36F8F00BF6E
:1047D00000BFFEE770BD0000880000200CED00E087
:1047E0008C000020024600200BE0084B53F83030CC
:1047F00033B9064B43F8301003EBC0035A6002E0B4
:10480000401C0828F1D300BF704700005804002066
:104810002DE9F04105460E4617462C46FFF700FFEE
:1048200094F94400401C10B9002084F8440094F925
:104830004500401C10B9002084F84500FFF71AFF1E
:10484000A06B28B93A46314604F1240000F088F8FC
:104850002046FFF742FDBDE8F0810000FDF72AFF8A
:10486000FDF7A0FF02A0FEF72DFD00BFFEE7000050
:1048700076524353746172740A000000FBF7F6FD30
:1048800004A0FEF71FFD03E047F2305000F00CF8E3
:10489000FAE700007653797374656D446562756755
:1048A00053746172740A000070B504460025D4B1D7
:1048B0001248006808B9012000E0002050B900BF8C
:1048C000502080F31188BFF34F8FBFF36F8F00BF6D
:1048D00000BFFEE700F0B2F800212046FFF756F8CF
:1048E00000F02CFE05463DB94FF0805004490860A9
:1048F000BFF34F8FBFF36F8F70BD00004C000020DF
:1049000004ED00E00349096801600349096841605A
:10491000704700003C0000202800002001200149D1
:10492000086070473800002070B504460D4654B941
:1049300000BF502080F31188BFF34F8FBFF36F8FFC
:1049400000BF00BFFEE70548016818312046FFF7A9
:1049500041FE01212846FFF719F870BD1400002020
:1049600070B505460E46144655B900BF502080F379
:104970001188BFF34F8FBFF36F8F00BF00BFFEE7FB
:104980000648016818312846FFF73EFE0CB14FF08B
:10499000FF3621463046FEF7F9FF70BD14000020B7
:1049A0001CB51E4800210B468222CDE900101CA137
:1049B0001D4800F029FC0446012C02D100F040FE05
:1049C0000446012C17D100BF502080F31188BFF39B
:1049D0004F8FBFF36F8F00BF4FF0FF301349086058
:1049E000012013490860002012490860124908603C
:1049F00000F092F810E0601C08B1012000E00020F7
:104A000050B900BF502080F31188BFF34F8FBFF320
:104A10006F8F00BF00BFFEE71CBD000048000020F4
:104A200049444C4500000000E93C000844000020D7
:104A30003000002028000020C40000200248006848
:104A4000401C0149086070474C0000202A4800685B
:104A500018B10120294908604CE00020274908606E
:104A60002748006827490860084600682649096801
:104A700088420BD92549096801F15000096D214A86
:104A80001268214B1B68D21A114401601D4800684E
:104A90001D4908601E480068B0FA80F0C0F11F018F
:104AA00001EB81001B4A52F8200008B1012000E010
:104AB000002050B900BF502080F31188BFF34F8F02
:104AC000BFF36F8F00BF00BFFEE701EB8102114B08
:104AD00003EB820042685268426000F108024368BA
:104AE000934202D14268526842604268D268074BE2
:104AF0001A6000BF704700004C0000203800002002
:104B0000C4000020540000205000002014000020A9
:104B10002C000020980400201CB55248006852491F
:104B2000884201D0012000E0002050B900BF502091
:104B300080F31188BFF34F8FBFF36F8F00BF00BFAB
:104B4000FEE7484800684849491E884201D00120D4
:104B500000E0002050B900BF502080F31188BFF35F
:104B60004F8FBFF36F8F00BF00BFFEE73F4908467E
:104B700000780190FF200A461070084600780090E7
:104B80009DF8000000F0F0009DF80020904201D157
:104B9000012000E0002050B900BF502080F31188B0
:104BA000BFF34F8FBFF36F8F00BF00BFFEE79DF8CD
:104BB000000000F050002E4A107007202D4A1060AF
:104BC00009E02C480068401E2A4A10609DF8000049
:104BD0004006000E00909DF8000000F08000802844
:104BE000EFD024480068C0F10700042801D101205B
:104BF00000E0002050B900BF502080F31188BFF3BF
:104C00004F8FBFF36F8F00BF00BFFEE719480068EA
:104C10000002184A10601046008800F4E06010603E
:104C2000124A019810700F482030006840F470005C
:104C30000C49203108600846006840F07040086068
:104C4000FFF780FD00200C490860FBF7CBFA0B480A
:104C5000006840F0404009490860FBF7AFFA0020C7
:104C60001CBD000000ED00E071C20F4100E400E057
:104C7000880000208C0000208400002034EF00E039
:104C80002DE9F84305460E4690460DB1012000E09F
:104C9000002050B900BF502080F31188BFF34F8F20
:104CA000BFF36F8F00BF00BFFEE70EB9002701E022
:104CB00005FB06F707F15000FFF74EFB04464CB129
:104CC000A14609F1500943464A4631462846009418
:104CD000FFF71EF82046BDE8F883000070B50546D2
:104CE0000E462C4654B900BF502080F31188BFF304
:104CF0004F8FBFF36F8F00BF00BFFEE7FFF790FC41
:104D0000D4E90F12206801FB0200A0600020A0631C
:104D100020686060E06B401E226C216800FB02117D
:104D2000E160FF2084F8440084F845009EB92069C2
:104D300008B9012000E00020A8B904F1100000F03B
:104D4000B1FB80B14FF0805009490860BFF34F8F2D
:104D5000BFF36F8F07E004F11000FFF72BFC04F1A5
:104D60002400FFF727FCFFF785FC012070BD000041
:104D700004ED00E02DE9FF4383B0064688461D465A
:104D80004FF00009344654B900BF502080F3118819
:104D9000BFF34F8FBFF36F8F00BF00BFFEE7B8F1C7
:104DA000000F01D1206C08B9012000E0002050B9AB
:104DB00000BF502080F31188BFF34F8FBFF36F8F78
:104DC00000BF00BFFEE7022D02D1E06B012801D138
:104DD000012000E0002050B900BF502080F311886E
:104DE000BFF34F8FBFF36F8F00BF00BFFEE700F030
:104DF0003BFA08B9059808B9012000E0002050B935
:104E000000BF502080F31188BFF34F8FBFF36F8F27
:104E100000BF00BFFEE700BFFFF702FCA06BE16B25
:104E2000884201D3022D28D12A4641462046FEF76A
:104E3000C0FE0746606A08B9012000E0002068B99A
:104E400004F1240000F02EFB88B14FF0805032496D
:104E50000860BFF34F8FBFF36F8F08E03FB14FF093
:104E600080502D490860BFF34F8FBFF36F8FFFF75E
:104E700001FC012007B0BDE8F083059818B9FFF7E1
:104E8000F9FB0020F6E7B9F1000F04D101A8FFF704
:104E900039FD4FF00109FFF7EDFBFFF7CFFDFFF7FD
:104EA000BFFB94F94400401C10B9002084F8440072
:104EB00094F94500401C10B9002084F84500FFF724
:104EC000D9FB05A901A800F059F9F0B92046FFF770
:104ED00036F8A0B104F110000599FFF725FD204632
:104EE000FFF7FBF900F02AFB002895D14FF0805026
:104EF00009490860BFF34F8FBFF36F8F8CE72046DF
:104F0000FFF7EBF900F01AFB86E72046FFF7E5F91B
:104F100000F014FB0020ADE704ED00E02DE9F05FA8
:104F200007468A4690461E463C4654B900BF50206C
:104F300080F31188BFF34F8FBFF36F8F00BF00BFA7
:104F4000FEE7BAF1000F01D1206C08B9012000E0A2
:104F5000002050B900BF502080F31188BFF34F8F5D
:104F6000BFF36F8F00BF00BFFEE7022E02D1E06BE0
:104F7000012801D1012000E0002050B900BF5020DD
:104F800080F31188BFF34F8FBFF36F8F00BF00BF57
:104F9000FEE7FFF7EBFB00BF5021EFF3118081F339
:104FA0001188BFF34F8FBFF36F8F00BF0546A06B13
:104FB000E16B884201D3022E23D194F945B03246E9
:104FC00051462046FEF7F5FD0BF1010088B9606AF5
:104FD00008B9012000E0002080B904F1240000F0AD
:104FE00061FA58B1B8F1000F08D00120C8F80000EC
:104FF00004E00BF1010040B284F845004FF00109D4
:1050000001E04FF0000900BF85F3118800BF48465A
:10501000BDE8F09F2DE9F74183B005460E464FF0FD
:1050200000082C4654B900BF502080F31188BFF30C
:105030004F8FBFF36F8F00BF00BFFEE70EB9206C2C
:1050400008B9012000E0002050B900BF502080F3D3
:105050001188BFF34F8FBFF36F8F00BF00BFFEE714
:1050600000F002F908B9059808B9012000E0002015
:1050700050B900BF502080F31188BFF34F8FBFF3AA
:105080006F8F00BF00BFFEE700BFFFF7C9FAA76B35
:10509000F7B131462046FEF777FD781EA063206900
:1050A00008B9012000E0002060B904F1100000F010
:1050B000F9F938B14FF080502F490860BFF34F8F96
:1050C000BFF36F8FFFF7D6FA012006B0BDE8F0817D
:1050D000059818B9FFF7CEFA0020F6E7B8F1000FEF
:1050E00004D101A8FFF70EFC4FF00108FFF7C2FA48
:1050F000FFF7A4FCFFF794FA94F94400401C10B9A0
:10510000002084F8440094F94500401C10B90020A8
:1051100084F84500FFF7AEFA05A901A800F02EF8C3
:10512000F0B92046FEF7FEFEA0B104F12400059977
:10513000FFF7FAFB2046FFF7D0F800F0FFF9002850
:10514000A3D14FF080500C490860BFF34F8FBFF3DD
:105150006F8F9AE72046FFF7C0F800F0EFF994E769
:105160002046FFF7BAF800F0E9F92046FEF7DAFE2C
:1051700000288AD00020A8E704ED00E070B50546BD
:105180000C4655B900BF502080F31188BFF34F8FF4
:10519000BFF36F8F00BF00BFFEE754B900BF5020C0
:1051A00080F31188BFF34F8FBFF36F8F00BF00BF35
:1051B000FEE7FFF735FA124802686868131A20689C
:1051C000401C08B9002617E00E4928680968884283
:1051D00004D06868904201D801260DE0206898420A
:1051E00007D92068C01A20602846FFF78BFB0026ED
:1051F00002E0002020600126FFF73CFA304670BD37
:10520000280000203C0000202DE9FF4F85B080469B
:1052100089461746DDE912ABB800FFF79DF8064650
:1052200056B15C20FFF798F804460CB1266304E001
:105230003046FFF73DFA00E000247CB10020CDE9C4
:1052400000ABCDE902403A4649464046089BFEF78E
:1052500074FD2046FEF7E6FB012501E04FF0FF3527
:10526000284609B0BDE8F08F0549096809B9012051
:1052700005E00449096809B9022000E000207047F0
:10528000300000204C0000200149086870470000F1
:10529000280000202DE9F0414FF000084448006844
:1052A000002877D143480068451C4248056015BB7B
:1052B00041480068006808B9012000E0002050B9AA
:1052C00000BF502080F31188BFF34F8FBFF36F8F63
:1052D00000BF00BFFEE73848076838480068364915
:1052E00008603648076036480068401C344908604A
:1052F000FEF744FF00BF3348006885423CD300BF3F
:105300002D480068006808B9012000E0002020B1A5
:105310004FF0FF302B4908602DE027480068C06837
:10532000C4686668B54202D22648066023E0201DA4
:10533000FFF7C6F8A06A18B104F11800FFF7C0F82B
:1053400094F82C10012088401F49096808431E4921
:105350000860E16A01EB81011C4A02EB8100211D1A
:10536000FFF752F91A49E06A0968C96A8842C7D347
:105370004FF00108C4E700BF15480068C06A00EBA1
:105380008000124951F82000012801D94FF001088E
:1053900005E0FFE70F480068401C0E4908600E4812
:1053A000006808B14FF001084046BDE8F0810000F8
:1053B0004C00002028000020180000201C000020C5
:1053C0003C000020440000202C0000209804002015
:1053D00014000020340000203800002070B505467D
:1053E0002C460026002D55D02B480068844201D160
:1053F000012000E0002050B900BF502080F3118848
:10540000BFF34F8FBFF36F8F00BF00BFFEE7E06CAD
:1054100050B900BF502080F31188BFF34F8FBFF306
:105420006F8F00BF00BFFEE7E06C401EE064A16C20
:10543000E06A88422ED0E06C60BB201DFFF740F888
:1054400078B9E06A00EB8000144951F8200040B9B7
:1054500094F82C10012088401149096881431048B4
:105460000160A06CE062E06AC0F12000A06194F8E5
:105470002C10012088400A4909680843084908603F
:10548000E16A01EB8101054A02EB8100211DFFF772
:10549000BBF80126304670BD14000020980400209F
:1054A0002C00002070B50646F068C46854B900BFEF
:1054B000502080F31188BFF34F8FBFF36F8F00BF71
:1054C00000BFFEE704F11800FEF7FAFF1548006878
:1054D000A8B9201DFEF7F4FF94F82C100120884095
:1054E00011490968084310490860E16A01EB81012C
:1054F0000E4A02EB8100211DFFF786F804E004F15B
:1055000018010B48FFF780F80A49E06A0968C96A80
:10551000884204D9012501200749086000E00025E0
:10552000284670BD4C0000202C000020980400206C
:1055300040070020140000203800002070B500242F
:1055400000263648006850B900BF502080F311880B
:10555000BFF34F8FBFF36F8F00BF00BFFEE7FFF7B2
:105560005FF82E480068401E2C4908600846006815
:1055700000284FD12A48006800284BD024E0294851
:10558000C068C46804F11800FEF79AFF201DFEF7FA
:1055900097FF94F82C10012088402349096808439C
:1055A00021490860E16A01EB8101204A02EB810098
:1055B000211DFFF729F81E49E06A0968C96A884277
:1055C00002D301201B4908601648006808B9012071
:1055D00000E000200028D2D00CB1FEF7CFFD164825
:1055E000056865B100BFFFF755FE10B101201149F4
:1055F00008606D1E002DF6D100200F4908600D488F
:10560000006838B1012630070C490860BFF34F8F9E
:10561000BFF36F8FFFF72EF8304670BD4C000020AF
:1056200024000020400700202C00002098040020C7
:1056300014000020380000203400002004ED00E0B9
:105640001CB50024FEF74AFA0E48006858B10E480F
:10565000022100234FF48272CDE900100BA10D4806
:10566000FFF7D2FD044654B900BF502080F31188E3
:10567000BFF34F8FBFF36F8F00BF00BFFEE7204621
:105680001CBD00006000002064000020546D7220EA
:1056900053766300C14200082DE9FE4304460D46DF
:1056A00016461F46DDF828804FF0000954B900BFA8
:1056B000502080F31188BFF34F8FBFF36F8F00BF6F
:1056C00000BFFEE71448006810B3009501960294ED
:1056D000062D15DAFFF7C8FD022808D1002342463F
:1056E00069460D480068FFF745FB814610E000233E
:1056F0001A46694608480068FFF73CFB814607E008
:1057000000233A46694604480068FFF707FC8146D3
:105710004846BDE8FE830000600000200000000055
:105720000000000001020304060708090000000051
:10573000010203040000000000000000000000005F
:10574000000000003F4000000000000000003000AA
:10575000400030004000000009000BC03D000BC0BD
:105760003D00090018C024407FE022403180000045
:10577000180024C01B000D803240018003801C40B3
:1057800027401C800740004010006000000000001F
:10579000000000000000000000001F8020404020AA
:1057A0000000402020401F8000000000090006008B
:1057B0001F80060009000000040004003F80040070
:1057C0000400000000100060000000000000000065
:1057D0000400040004000400040000000000004075
:1057E0000000000000000000002001C0060038009A
:1057F000400000001F802040204020401F8000000B
:10580000000010403FC000400000000018C02140D0
:1058100022402440184000001080204024402440B2
:105820001B80000002000D0011003FC0014000007D
:105830003C80244024402440238000001F802440DA
:1058400024403440038000003000200027C038008E
:10585000200000001B802440244024401B800000C6
:105860001C0022C0224022401F80000000000000D7
:10587000084000000000000000000000046000007C
:1058800000000000000004000A00110020804040D9
:10589000090009000900090009000000000040405B
:1058A000208011000A00040018002000234024007A
:1058B000180000001F802040274029401F400000A2
:1058C000004007C039000F0001C0004020403FC029
:1058D000244024401B8000001F80204020402040A6
:1058E0003080000020403FC0204020401F8000004A
:1058F00020403FC024402E4030C0000020403FC028
:1059000024402E00300000000F0010802040224074
:105910003380020020403FC0040004003FC020400C
:10592000204020403FC02040204000000060202058
:1059300020203FC02000200020403FC024400B001A
:1059400030C0204020403FC020400040004000C008
:105950003FC03C0003C03C003FC0000020403FC0AF
:105960000C4023003FC020001F80204020402040EA
:105970001F80000020403FC0244024001800000089
:105980001F802140214020E01FA0000020403FC098
:105990002440260019C0004018C024402440224062
:1059A00031800000300020403FC020403000000027
:1059B00020003F80004000403F80200020003E004B
:1059C00001C0070038002000380007C03C0007C0B5
:1059D00038000000204039C0060039C020400000D7
:1059E0002000384007C0384020000000304021C06F
:1059F0002640384020C00000000000007FE040202A
:105A000040200000000070000C00038000400000F7
:105A10000000402040207FE0000000000000200047
:105A200040002000000000000010001000100010D6
:105A30000010001000000000400000000000000006
:105A4000000002800540054003C0004020003FC028
:105A50000440044003800000000003800440044030
:105A60000640000000000380044024403FC0004086
:105A70000000038005400540034000000000044092
:105A80001FC0244024402000000002E005500550C3
:105A90000650042020403FC00440040003C00040E2
:105AA0000000044027C0004000000000001000106B
:105AB000041027E00000000020403FC00140070024
:105AC00004C00440204020403FC00040004000008F
:105AD00007C0040007C0040003C00000044007C062
