:020000040800F2
:10000000803401205D020008D11B0008F10B0008BC
:10001000CD1B00085D040008AD4E00080000000084
:100020000000000000000000000000009D0100082A
:100030006104000800000000F9010008112900080F
:1000400077020008770200087702000877020008AC
:10005000770200087702000877020008770200089C
:10006000770200087702000877020008770200088C
:10007000770200087702000877020008770200087C
:10008000770200087702000877020008770200086C
:10009000770200087702000877020008770200085C
:1000A000770200087702000877020008770200084C
:1000B000770200083D2B000877020008770200084D
:1000C000770200087702000877020008770200082C
:1000D000770200087702000877020008770200081C
:1000E000770200087702000877020008770200080C
:1000F00077020008770200087702000877020008FC
:1001000077020008770200087702000877020008EB
:100110007702000877020008352D000877020008F2
:1001200077020008770200087702000877020008CB
:1001300077020008770200087702000877020008BB
:1001400077020008770200087702000877020008AB
:10015000770200087702000877020008770200089B
:10016000770200087702000877020008770200088B
:1001700077020008770200087702000800000000FC
:100180007702000877020008DFF80CD000F0CEF804
:100190000048004731550008803401202C4B196875
:1001A0000868B0E8F04F80F30988BFF36F8F4FF015
:1001B000000080F3118870470000000008480068C4
:1001C000006880F308884FF0000080F3148862B65E
:1001D00061B6BFF34F8FBFF36F8F00DF00BF00BF6B
:1001E00008ED00E0DFF80C00016841F470010160E7
:1001F000704700BF88ED00E0EFF30980BFF36F8F19
:10020000134B1A681EF0100F08BF20ED108A20E96A
:10021000F04F106009B44FF0500080F31188BFF325
:100220004F8FBFF36F8F06F00BFA4FF0000080F393
:10023000118809BC19680868B0E8F04F1EF0100F6B
:1002400008BFB0EC108A80F30988BFF36F8F704746
:1002500028000020EFF30580704700000648804723
:1002600006480047FEE7FEE7FEE7FEE7FEE7FEE79B
:10027000FEE7FEE7FEE7FEE7B12900088901000876
:1002800040EA01039B0703D009E008C9121F08C018
:10029000042AFAD203E011F8013B00F8013B521E98
:1002A000F9D27047D2B201E000F8012B491EFBD20F
:1002B00070470022F6E710B513460A460446194671
:1002C000FFF7F0FF204610BD2DE9F05F0546002046
:1002D00092469B4688460646814640241BE02846B7
:1002E00041464746224600F042F853465A46C01A55
:1002F000914110D311461846224600F029F82D1AD4
:1003000067EB01084F4622460120002100F020F84B
:1003100017EB00094E41201EA4F10104DFDC484622
:1003200031462A464346BDE8F09F0000064C074D83
:1003300006E0E06840F0010394E8070098471034B5
:10034000AC42F6D3FFF724FFD08A0008F08A0008F9
:10035000202A04DB203A00FA02F100207047914085
:10036000C2F1200320FA03F3194390407047202A7A
:1003700004DB203A21FA02F00021704721FA02F34F
:10038000D040C2F120029140084319467047000056
:100390001CB516481F2100234FF40072CDE9001050
:1003A00013A1174806F02AFD16481E2100234FF41A
:1003B0000072CDE9001014A1184806F01FFD18487E
:1003C000142100234FF40072CDE9001015A1184844
:1003D00006F014FD0020152103464FF40072CDE90C
:1003E000001014A1184806F009FD1CBD00000020F3
:1003F000764C45445461736B537461727400000011
:1004000055610008D40000207653797374656D44FB
:10041000656275675374617274000000716400084E
:10042000DC000020765243537461727400000000B7
:100430004564000876496E746572616374696F6E15
:100440005374617274000000A960000810B501F0D7
:1004500057FB4FF4407001F02FFC10BD00BFFEE7CA
:10046000704700001FB50121102001F0E3FD4FF49B
:10047000C86002900220ADF804000020ADF806002C
:10048000ADF80C0001A90E4804F06AF801221146EB
:100490000B4803F0B5F836208DF8000001208DF8E8
:1004A000010003208DF8020001208DF8030068464A
:1004B00001F090FB0121034802F03AFD1FBD00004E
:1004C00000040040001000402DE9F04104460D46B4
:1004D00000260027B0465248844217D05148844233
:1004E00014D05148844211D0504884420ED0504814
:1004F00084420BD04F48844208D04F48844205D0F4
:100500004E48844202D04E48844200D103E0BB21D1
:100510004CA004F041FF002010B9286800B103E0AE
:10052000BC2148A004F038FF287940B1287901287F
:1005300005D02879022802D02879032800D103E0C9
:10054000BD2140A004F028FFE87928B1E87901280E
:1005500002D0E879022800D103E0BE2139A004F0DE
:100560001BFF002657E0012000FA06F7286800EA82
:100570000708B8454ED12068720003219140884396
:10058000206028797100884021680843206028791C
:10059000012802D02879022830D1687940B16879E1
:1005A000012805D06879022802D06879032800D193
:1005B00003E0D02123A004F0EFFEA0687200032125
:1005C00091408843A060687971008840A168084321
:1005D000A060A87910B1A879012800D103E0D72143
:1005E00018A004F0D9FE61680120B0408143616029
:1005F0006068A979B14089B208436060E068720020
:10060000032191408843E060E87971008840E16807
:100610000843E060761C102EA5D3BDE8F0810000F1
:10062000000002400004024000080240000C0240AA
:10063000001002400014024000180240001C02405A
:10064000002002402E2E5C447269766572735C5302
:10065000544D3332463478785F5374645065726910
:1006600070685F4472697665725C7372635C737400
:100670006D3332663478785F6770696F2E6300007F
:100680002DE9F04106460D4614460027B84651486C
:10069000864217D05048864214D05048864211D026
:1006A0004F4886420ED04F4886420BD04E48864275
:1006B00008D04E48864205D04D48864202D04D486B
:1006C000864200D104E040F217214BA004F064FE02
:1006D000EDB1012D1BD0022D19D0032D17D0042D03
:1006E00015D0052D13D0062D11D0072D0FD0082DB4
:1006F0000DD0092D0BD00A2D09D00B2D07D00C2DB4
:1007000005D00D2D03D00E2D01D00F2D00D104E00A
:100710004FF4067138A004F03FFE9CB3092C31D091
:1007200084B37CB374B36CB3012C2BD02AD0022CCD
:1007300028D027D026D0032C24D0042C22D021D09E
:1007400020D0052C1ED01DD0092C1BD0062C19D072
:10075000092C17D0072C15D014D013D0082C11D089
:1007600010D00FD0092C0DD00CD00A2C0AD009D0F3
:100770000B2C07D00C2C05D004D003D00D2C01D0AD
:100780000F2C00D104E040F219211BA004F004FE5C
:100790006807C00E04FA00F7E91006F1200050F8CF
:1007A00021006907CA0E0F2191408843EA1006F123
:1007B000200141F82200E91006F1200050F8210044
:1007C00040EA0708E91006F1200040F82180BDE862
:1007D000F0810000000002400004024000080240D6
:1007E000000C0240001002400014024000180240B9
:1007F000001C0240002002402E2E5C447269766587
:1008000072735C53544D3332463478785F5374645A
:100810005065726970685F4472697665725C737264
:10082000635C73746D3332663478785F6770696FB8
:100830002E63000070B505460C4600262B48854205
:1008400017D02B48854214D02A48854211D02A4817
:1008500085420ED0294885420BD02948854208D0D0
:100860002848854205D02848854202D0274885423D
:1008700000D104E04FF4987125A004F08DFD012C07
:1008800025D0022C23D0042C21D0082C1FD0102CD2
:100890001DD0202C1BD0402C19D0802C17D0B4F5A3
:1008A000807F14D0B4F5007F11D0B4F5806F0ED0E6
:1008B000B4F5006F0BD0B4F5805F08D0B4F5005FDD
:1008C00005D0B4F5804F02D0B4F5004F00D104E05C
:1008D00040F231110EA004F05FFD2869204008B1FC
:1008E000012600E00026304670BD000000000240F6
:1008F0000004024000080240000C024000100240C8
:100900000014024000180240001C02400020024077
:100910002E2E5C447269766572735C53544D33328B
:10092000463478785F5374645065726970685F44C8
:1009300072697665725C7372635C73746D33326670
:100940003478785F6770696F2E63000070B5044675
:100950000D461648844217D01548844214D01548D5
:10096000844211D0144884420ED0144884420BD0E3
:100970001348844208D01348844205D01248844268
:1009800002D01248844200D104E04FF4C97110A093
:1009900004F002FD002008B905B104E040F2931113
:1009A0000BA004F0F9FC658370BD0000000002405C
:1009B0000004024000080240000C02400010024007
:1009C0000014024000180240001C024000200240B7
:1009D0002E2E5C447269766572735C53544D3332CB
:1009E000463478785F5374645065726970685F4408
:1009F00072697665725C7372635C73746D333266B0
:100A00003478785F6770696F2E63000070B50446B4
:100A10000D461648844217D01548844214D0154814
:100A2000844211D0144884420ED0144884420BD022
:100A30001348844208D01348844205D012488442A7
:100A400002D01248844200D104E040F27F1110A08D
:100A500004F0A2FC002008B905B104E04FF4C07115
:100A60000BA004F099FC258370BD0000000002403B
:100A70000004024000080240000C02400010024046
:100A80000014024000180240001C024000200240F6
:100A90002E2E5C447269766572735C53544D33320A
:100AA000463478785F5374645065726970685F4447
:100AB00072697665725C7372635C73746D333266EF
:100AC0003478785F6770696F2E63000070B50546F3
:100AD0000C4616462E48854217D02E48854214D023
:100AE0002D48854211D02D4885420ED02C48854294
:100AF0000BD02C48854208D02B48854205D02B4886
:100B0000854202D02A48854200D104E04FF4D371D7
:100B100028A004F041FC012C25D0022C23D0042C69
:100B200021D0082C1FD0102C1DD0202C1BD0402CE5
:100B300019D0802C17D0B4F5807F14D0B4F5007F85
:100B400011D0B4F5806F0ED0B4F5006F0BD0B4F5B2
:100B5000805F08D0B4F5005F05D0B4F5804F02D0B7
:100B6000B4F5004F00D104E040F2A71111A004F049
:100B700013FC0EB1012E00D104E04FF4D4710DA08E
:100B800004F00AFC0EB12C8300E06C8370BD000001
:100B9000000002400004024000080240000C024035
:100BA000001002400014024000180240001C0240E5
:100BB000002002402E2E5C447269766572735C538D
:100BC000544D3332463478785F537464506572699B
:100BD00070685F4472697665725C7372635C73748B
:100BE0006D3332663478785F6770696F2E6300000A
:100BF00000BFFEE710B58EB00446202106A8FFF71F
:100C000058FB04F0010090B13F480088643080B286
:100C10003D4A10800146FF2001F08EF93A480088D5
:100C20003AA33EA21E21009006A804F051F904F058
:100C3000040090B134480088643880B2324A108091
:100C40000146FF2001F078F92F48008835A333A230
:100C50001E21009006A804F03BF904F0020098B1B0
:100C60002948008800F5FA7080B2274A10800146B2
:100C7000FF2001F061F9244800882EA327A21E213D
:100C8000009006A804F024F904F0080098B11E486A
:100C90000088A0F5FA7080B21B4A10800146FF2040
:100CA00001F04AF91848008826A31CA21E210090D2
:100CB00006A804F00DF904F0100028B125A329A21C
:100CC0001E2106A804F004F904F0200080B102A857
:100CD00001F0ECFA0598009023A002A90EC904F0D7
:100CE000E7F82FA31FA21E2106A804F0F1F800BF09
:100CF0003048816A092088472E4806AA0021436AA5
:100D0000092098470EB010BDE00000204B45595F08
:100D100055505F434C49434B00000000257320258C
:100D2000640000004B45595F444F574E5F434C49A8
:100D3000434B00004B45595F4C4546545F434C497B
:100D4000434B00004B45595F52494748545F434C61
:100D500049434B004B45595F454E5445525F434C08
:100D600049434B0025730000667265713A20205399
:100D70005953434C4B203D202564202C48434C4B79
:100D8000203D202564202C50434C4B31203D202514
:100D900064202C50434C4B32203D202564200A0017
:100DA0004B45595F43414E43454C5F434C49434B90
:100DB00000000000A80000201CB500200090019059
:100DC0000121084601F036F90121102001F032F925
:100DD0007C20009000208DF804008DF80600012092
:100DE0008DF8070069460948FFF76EFB0120009067
:100DF00000208DF804008DF8060001208DF8070012
:100E000069460348FFF760FB1CBD0000001002406C
:100E10000000024010B5002407E0054850F82410F7
:100E2000204600F007F8601CC4B2072CF5DB10BDAB
:100E30003430012030B589B004460D46202101A888
:100E4000FFF737FA072C7CD2DFE804F004152637C9
:100E500048596A002B463CA21E2101A804F038F82C
:100E60003D48816A002088473B4801AA0021436A27
:100E70000846984765E02B4638A21E2101A804F0D9
:100E800027F83548816A01208847334801AA0021A4
:100E9000436A0120984754E02B4634A21E2101A842
:100EA00004F016F82C48816A022088472A4801AAD3
:100EB0000021436A0220984743E02B462EA21E21C0
:100EC00001A804F005F82448816A032088472248D5
:100ED00001AA0021436A0320984732E02B4629A249
:100EE0001E2101A803F0F4FF1B48816A04208847F3
:100EF000194801AA0021436A0420984721E02B46A3
:100F000023A21E2101A803F0E3FF1348816A0520F4
:100F10008847114801AA0021436A0520984710E03C
:100F20002B461EA21E2101A803F0D2FF0A48816AA7
:100F300006208847084801AA0021436A06209847EE
:100F400000BF00BF09B030BD50574D315F4F7574C1
:100F50003D20256400000000A800002050574D32BD
:100F60005F4F75743D202564000000005243315FDF
:100F7000496E3D20256400005243325F496E3D209A
:100F8000256400005243335F496E3D202564000014
:100F90005243345F496E3D202564000053657276EC
:100FA0006F204F75743D20256400000010B5044685
:100FB00022464FF480610248FFF788FD10BD000013
:100FC000000C024070B5064600BFF02505EB850019
:100FD00085010021084600F025FC00F061FD002499
:100FE00003E0304600F018FD641CAC42F9D370BD3C
:100FF0007CB5044606A51020CDE900052001401D62
:1010000081B21023E822052000F0C0FC7CBD000066
:1010100020202020202020202020202020202020D0
:1010200020202020202020202020202020202020C0
:101030002020000010B50446ACB900201649887184
:101040004FF4A0708880F02048800846008849F25C
:10105000413188421CD12C200F4908812A20488127
:101060002B20888114E001200B498871F0208880B2
:101070004FF4A07048800846008849F24131884208
:1010800006D12C20044908812A2048812B20888100
:10109000032000F04FFA10BDA800002070B50446F0
:1010A0000D4616461F48008849F24131884205D056
:1010B0001C48008845F21031884213D119494889EB
:1010C00000F0CCFC201200F0A7FCE0B200F0A4FC81
:1010D0001449888900F0C2FC281200F09DFCE8B297
:1010E00000F09AFC4FF480610F48FFF72FFC4FF49B
:1010F00000610D48FFF72AFC0A4800890B49086087
:1011000049150948FFF722FC4FF400710648FFF724
:101110007DFC4FF400610448FFF778FC304600F096
:101120007BFC70BDA80000200010024014040240A7
:101130001CB50020009001900121022000F034FF36
:101140000121042000F030FF0121102000F02CFFCD
:101150000121082000F028FF4FF48060009001205A
:101160008DF8040000208DF8060001208DF807009E
:1011700002208DF8050069461348FFF7A5F94FF4E2
:101180007060009001208DF8040000208DF80600AA
:101190008DF8070002208DF8050069460B48FFF71F
:1011A00093F94FF6FF70009001208DF804000020A5
:1011B0008DF806008DF8070002208DF805006946BD
:1011C0000348FFF781F91CBD000C024000100240EB
:1011D0000004024010B5FFF7ABFF322004F0DDF849
:1011E0000121002000F064FC322004F0D6F8002039
:1011F00000F098F9A3490880D32000F02FFC00F0FC
:101200004BF900F049F900F047F99E49088008467B
:1012100000884FF6FF7101EA00209A49088000F02B
:101220003BF998490988084396490880084601888F
:1012300095A003F03DFE9348008849F24131884271
:101240007ED1CF2000F00AFC002000F0E5FBC12099
:1012500000F0E2FB302000F0DFFBED2000F0FEFBB1
:10126000642000F0D9FB032000F0D6FB122000F030
:10127000D3FB812000F0D0FBE82000F0EFFB8520BD
:1012800000F0CAFB102000F0C7FB7A2000F0C4FB7E
:10129000CB2000F0E3FB392000F0BEFB2C2000F057
:1012A000BBFB002000F0B8FB342000F0B5FB0220AF
:1012B00000F0B2FBF72000F0D1FB202000F0ACFBE7
:1012C000EA2000F0CBFB002000F0A6FB002000F09D
:1012D000A3FBC02000F0C2FB1B2000F09DFBC1203F
:1012E00000F0BCFB012000F097FBC52000F0B6FB2E
:1012F000302000F091FB302000F08EFBC72000F082
:10130000ADFBB72000F088FB362000F0A7FB48209B
:1013100000F082FB3A2000F0A1FB552000F07CFB9E
:10132000B12000F09BFB002000F076FB1A2000F0BB
:1013300073FBB62000F092FB0A2000F06DFB00E08A
:1013400095E0A22000F068FBF22000F087FB00206F
:1013500000F062FB262000F081FB012000F05CFB26
:10136000E02000F07BFB0F2000F056FB2A2000F06D
:1013700053FB282000F050FB082000F04DFB0E200E
:1013800000F04AFB082000F047FB542000F044FB2B
:10139000A92000F041FB432000F03EFB0A2000F0B2
:1013A0003BFB0F2000F038FB002000F035FB002055
:1013B00000F032FB002000F02FFB002000F02CFB9F
:1013C000E12000F04BFB002000F026FB152000F090
:1013D00023FB172000F020FB072000F01DFB11204D
:1013E00000F01AFB062000F017FB2B2000F014FB86
:1013F000562000F011FB3C2000F00EFB052000F011
:101400000BFB102000F008FB0F2000F005FB3F2035
:1014100000F002FB3F2000F0FFFA0F2000F0FCFA82
:101420002B2000F01BFB002000F0F6FA002000F05B
:10143000F3FA012000F0F0FA3F2000F0EDFA2A2044
:1014400000F00CFB002000F0E7FA002000F0E4FAC6
:10145000002000F0E1FAEF2000F0DEFA112000F0A9
:10146000FDFA782003F099FF292000F0F7FA002018
:10147000FFF7E0FD0120FFF799FD4FF6FF70FFF742
:10148000A1FD10BDA80000204C4344204944203A4F
:1014900020253278200A000010B500201E4908607F
:1014A0004FF055301C490C31086000201A491431A6
:1014B000086009151948FFF7A9FA4FF400611748A9
:1014C000FFF744FA4FF480711448FFF73FFA1448CD
:1014D000008848F68911884202D1012003F05DFF9F
:1014E0000D481030006884B24FF480710B48FFF74C
:1014F0008DFA4FF400610948FFF788FA4FF0553034
:101500000549086004490C3108604FF6FF70024934
:1015100014310860204610BD000402400010024053
:10152000A800002010B50446204600F097FAFFF707
:10153000B3FF10BD2DE9F041054600240027B8484F
:10154000807901280BD1B648008846F6040188420C
:1015500005D0B348008841F66311884208D1B048ED
:101560008079F0B9AE48008841F66311884218D1FD
:10157000082D15D2DFE805F00406080A0C0E10123B
:1015800006250DE007250BE0042509E0052507E009
:10159000012505E0002503E0032501E0022500BF49
:1015A00000BF9F48008849F24131884217D09C48CB
:1015B000008846F60401884211D09948008845F217
:1015C000103188420BD09648008845F2105188426D
:1015D00005D09348008841F6631188427ED1082DDA
:1015E0001CD2DFE805F00406090C0F12151800BF25
:1015F00014E044F0800411E044F040040EE044F0B4
:10160000C0040BE044F0200408E044F0600405E06E
:1016100044F0A00402E044F0E00400BF00BF8048B2
:10162000008845F21051884202D14FF4585700E02B
:1016300036277B48008845F2103188420DD0784823
:10164000008845F21051884207D07548008841F65D
:101650006311884201D044F008047148008846F6BE
:101660000401884201D144F002042146384600F0CA
:101670001FFA6B48008841F6631188421DD004F0C0
:10168000200068B16648408865498988884214DA34
:1016900063484688808862494880084686800CE016
:1016A0005F4840885E498988884206DD5C484688F4
:1016B00080885B494880084686805948008845F202
:1016C0001051884254D15649488900F0C7F900208A
:1016D00000F0A2F952494989491C00E077E088B23C
:1016E00000F0BCF9002000F097F94D494989891CA8
:1016F00088B200F0B3F94A494988491EC1F30F2066
:1017000000F08AF946494989C91C88B200F0A6F957
:1017100043498978491EC8B200F07EF9404988895A
:1017200000F09CF9002000F077F93D498989491CB7
:1017300088B200F093F9002000F06EF938498989E9
:10174000891C88B200F08AF935498988491EC1F39D
:101750000F2000F061F932498989C91C88B200F074
:101760007DF92F490979491EC8B200F055F955E0B5
:101770002B49488900F072F9002000F04DF9002053
:1017800000F04AF926494988491EC1F30F2000F0AC
:1017900043F923498978491EC8B200F03DF9204930
:1017A000888900F05BF9002000F036F9002000F095
:1017B00033F91B498988491EC1F30F2000F02CF929
:1017C00017490979491EC8B200F026F926E0082D0C
:1017D0001CD2DFE805F004070A0D0F12151844F0BB
:1017E000300413E044F0100410E044F020040DE055
:1017F00000BF0BE044F0380408E044F0280405E0A2
:1018000044F0180402E044F0080400BF00BF0327BE
:1018100044F480542146384600F04AF9BDE8F0818E
:10182000A800002070B504460D460D48008849F216
:101830004131884213D10A49488900F00FF920123A
:1018400000F0EAF8E0B200F0E7F80549888900F016
:1018500005F9281200F0E0F8E8B200F0DDF870BDFC
:10186000A80000202DE9F84F80460E4617461C467A
:10187000B3462046E31704EB5373DB1021464FEACF
:10188000E47C04EB5C7C4FEAEC0CA4EBCC0CBCF1EC
:10189000000F02D04FF0010C01E04FF0000C634448
:1018A000224604EBD27C4FEA6C0C03FB0CF3DBB258
:1018B0000093A7F12000C7B2002556E00C2C07D1F9
:1018C00007EB47002B4901EB800010F8059013E06F
:1018D000102C05D1284800EB071010F805900BE0FC
:1018E000182C07D107EBC700244901EB800010F842
:1018F000059001E0BDE8F88F4FF0000A2FE009F0F5
:10190000800030B11E48028831464046FFF7C6FBD2
:1019100007E00A9828B91B48028831464046FFF77D
:10192000BDFB4FEA49604FEA1069701C86B2164849
:101930008088B04200DCDDE7A6EB0B00A0420AD1B4
:101940005E4608F101001FFA80F80F4840884045C4
:1019500000DCCFE706E00AF1010000F0FF0ABAF16F
:10196000080FCCDB00BF681CC5B200988542A5DB20
:1019700000BFBFE71073000884770008747D00087B
:10198000A4000020A6000020A80000202DE9F84FA8
:1019900004460D4690469946DDE90A6704F0FF0AC1
:1019A00008EB04001FFA80F809EB05001FFA80F924
:1019B00016E0444502DB5446A81985B24D4500DBCC
:1019C00014E0002000903A78334629462046FFF77D
:1019D00049FF304606EBD07104EB61018CB27F1CED
:1019E00038787E2802DC38782028E2DA00BFBDE8AB
:1019F000F88F7CB504460D46164610202201521D74
:101A000091B2EA00521DCDE9000690B21023E822FF
:101A1000FFF7BCFF7CBD000010B504464FF48061A9
:101A20000C48FEF7F3FF4FF400610A48FEF78EFF03
:101A30000948046041150748FEF788FF4FF400711C
:101A40000448FEF7E3FF4FF400610248FEF7DEFFB3
:101A500010BD0000001002401404024010B50446FE
:101A60004FF480610C48FEF771FF4FF400610A48A3
:101A7000FEF76CFF0948046041150748FEF766FF52
:101A80004FF400710448FEF7C1FF4FF400610248B3
:101A9000FEF7BCFF10BD000000100240140402401D
:101AA00010B502490889FFF7D9FF10BDA800002032
:101AB00070B505460C462846FFF7D0FF2046FFF7D5
:101AC000ABFF70BD1CB500200090019001211020DB
:101AD00000F06AFA0320009001208DF80400002035
:101AE0008DF8060001208DF8070002208DF8050012
:101AF00069460248FEF7E8FC1CBD000000100240E9
:101B000000B587B00121102000F020FB012108461C
:101B100000F04AFA072209212948FEF7B1FD072201
:101B20000A212748FEF7ACFD4FF4C0600090022068
:101B30008DF804008DF8050000208DF806000120C6
:101B40008DF8070069461E48FEF7BEFC1D4802F0EE
:101B50008FFE4FF4E13003900020ADF818000C2008
:101B6000ADF816000020ADF81400ADF81200ADF885
:101B7000100003A9134803F037F8012240F2255161
:101B8000104802F085FF01210E4802F017FE4021A7
:101B90000C4802F0A9FD4FF4407000F08DF82520AC
:101BA0008DF8080002208DF8090000208DF80A0049
:101BB00001208DF80B0002A800F00CF807B000BD62
:101BC00000000240001001407047704700BFFEE770
:101BD000704700002DE9F0410446002500270F263C
:101BE000E07810B1E078012800D103E0872122A03D
:101BF00003F0D2FB6078102800DA03E088211EA0F1
:101C000003F0CAFBA078102800DA03E089211AA0AB
:101C100003F0C2FBE07818B32448006800F4E060E9
:101C2000C0F5E060C0F30725C5F10400C7B22E413E
:101C30006078B840C5B2A078304005432807050E4B
:101C40001B4821784554207800F01F01012088406E
:101C500021784911890001F1E021C1F8000109E072
:101C6000207800F01F01012088401249227852118B
:101C700041F82200BDE8F0812E2E5C447269766541
:101C800072735C53544D3332463478785F537464C6
:101C90005065726970685F4472697665725C7372D0
:101CA000635C6D6973632E63000000000CED00E05F
:101CB00000E400E080E100E010B50446B4F5E06F18
:101CC0000BD0B4F5C06F08D0B4F5A06F05D0B4F553
:101CD000806F02D0B4F5407F00D103E0732104A0EF
:101CE00003F05AFB0F4820430F49086010BD000065
:101CF0002E2E5C447269766572735C53544D333298
:101D0000463478785F5374645065726970685F44D4
:101D100072697665725C7372635C6D6973632E635E
:101D2000000000000000FA050CED00E000B589B0ED
:101D30000020069007900121042000F035F90121D0
:101D4000022000F077F9022206213A48FEF798FCBB
:101D5000022207213748FEF793FC0222082135486A
:101D6000FEF78EFC022209213248FEF789FC4FF46F
:101D70007070069002208DF81C0000208DF81E0067
:101D800001208DF81F0003208DF81D0006A92948A9
:101D9000FEF79AFB4FF0FF3004901420ADF80C00D2
:101DA0000020ADF80E00ADF8140003A9224802F09F
:101DB000D7FB1D208DF8200006208DF82100032080
:101DC0008DF8220001208DF8230008A8FFF702FFFC
:101DD0000020ADF800000A20ADF802000120ADF8A7
:101DE00004000020ADF80600ADF80800694612486E
:101DF00001F0ECFA0420ADF8000069460E4801F04D
:101E0000E5FA0820ADF8000069460B4801F0DEFA5B
:101E10000C20ADF800006946074801F0D7FA01220E
:101E20001F21054801F0ECFB0121034801F080F877
:101E300009B000BD000802400004004000B58BB0AE
:101E4000002009900A900121042000F0F3F80121FC
:101E5000082000F0A9F802220C213548FEF710FCFA
:101E600002220D213248FEF70BFC02220E213048DF
:101E7000FEF706FC02220F212D48FEF701FC4FF46D
:101E80007040099002208DF8280000208DF82A006B
:101E90008DF82B0003208DF8290009A92448FEF7AE
:101EA00013FB5320ADF818000020ADF81A0049F6D6
:101EB000404007900020ADF8200006A91D4802F020
:101EC0004FFB6020ADF804000120ADF806000020B3
:101ED000ADF8100041F28830039001A9154801F0D7
:101EE00017FC0821134801F00FFD01A9114801F06A
:101EF0007DFD08210F4801F075FE01A90D4801F094
:101F0000D3FE08210B4801F0BFFF01A9094802F0E8
:101F10000FF80821074802F0C5F80121054800F034
:101F200019FF0121034801F003F80BB000BD0000C8
:101F3000000C02400008004070B505460C4649F60A
:101F40004040844200DD0446032D11D004DC012D05
:101F500007D0022D1DD107E0042D0DD0FF2D18D183
:101F60000EE01048046015E00E48001D046011E00A
:101F70000C48083004600DE00A480C30046009E0A9
:101F800008480460001D0460001D0460001D04601A
:101F900000E000BF00BF49F640410248343802F07B
:101FA000D9F870BD3408004070B504460D4610489D
:101FB000204008B904B104E04FF488610DA003F09B
:101FC000EBF90DB1012D00D104E040F2424109A02E
:101FD00003F0E2F92DB11648006820431449086067
:101FE00004E013480068A0431149086070BD000078
:101FF00000EE8B812E2E5C447269766572735C53A1
:10200000544D3332463478785F5374645065726946
:1020100070685F4472697665725C7372635C737436
:102020006D3332663478785F7263632E630000002C
:102030003038024070B504460D461048204008B9BB
:1020400004B104E040F2AD410DA003F0A5F90DB1DB
:10205000012D00D104E040F2AE4109A003F09CF94B
:102060002DB11648006820431449086004E0134865
:102070000068A0431149086070BD0000003601C926
:102080002E2E5C447269766572735C53544D333204
:10209000463478785F5374645065726970685F4441
:1020A00072697665725C7372635C73746D333266E9
:1020B0003478785F7263632E63000000403802401A
:1020C00070B504460D461048204008B904B104E03C
:1020D0004FF4AC610DA003F05FF90DB1012D00D1FB
:1020E00004E040F2615109A003F056F92DB1164801
:1020F000006820431449086004E013480068A043C6
:102100001149086070BD0000003601C92E2E5C44E4
:102110007269766572735C53544D33324634787805
:102120005F5374645065726970685F447269766564
:10213000725C7372635C73746D3332663478785F8B
:102140007263632E630000002038024070B50446BD
:102150000D461048204008B904B104E040F2D541D2
:102160000DA003F019F90DB1012D00D104E040F2EA
:10217000D64109A003F010F92DB11648006820439C
:102180001449086004E013480068A043114908603E
:1021900070BD0000CCA0F8FF2E2E5C4472697665FD
:1021A00072735C53544D3332463478785F537464A1
:1021B0005065726970685F4472697665725C7372AB
:1021C000635C73746D3332663478785F7263632E48
:1021D000630000004438024070B504460D461048C4
:1021E000204008B904B104E040F284510DA003F08E
:1021F000D3F80DB1012D00D104E040F2855109A0C2
:1022000003F0CAF82DB1164800682043144908604D
:1022100004E013480068A0431149086070BD000045
:10222000CCA6F8FF2E2E5C447269766572735C53FF
:10223000544D3332463478785F5374645065726914
:1022400070685F4472697665725C7372635C737404
:102250006D3332663478785F7263632E63000000FA
:10226000243802400E48006840F001000C49086024
:1022700000200B49083108600948006809490840F6
:10228000074908600848091D0860081F006820F415
:102290008020091F0860002001490C310860704748
:1022A00000380240FFFFF6FE10300024F0B5002198
:1022B00000220024022500260223324F3F6807F047
:1022C0000C0121B1042905D0082937D105E02E4F92
:1022D000076036E02D4F076033E02A4F3F1F3F680D
:1022E000C7F38056274F3F1F3F6807F03F036EB18B
:1022F000264FB7FBF3F7DFF88CC0ACF1040CDCF829
:1023000000C0CCF3881C07FB0CF40CE01E4FB7FB9D
:10231000F3F7DFF870C0ACF1040CDCF800C0CCF3CC
:10232000881C07FB0CF4174F3F1F3F68C7F301479A
:102330007F1C7D00B4FBF5F7076002E0124F0760D9
:1023400000BF00BF0F4F3F6807F0F0010909104FB1
:102350007A5C0768D74047600A4F3F6807F4E0514E
:10236000890A0B4F7A5C4768D7408760054F3F6802
:1023700007F46041490B064F7A5C4768D740C76055
:10238000F0BD0000083802400024F40040787D01D0
:10239000040000202DE9F041044600250026002716
:1023A000212C17D0312C15D0392C13D0412C11D021
:1023B000612C0FD0792C0DD07A2C0BD07B2C09D02E
:1023C0007C2C07D07D2C05D07E2C03D07F2C01D017
:1023D0003B2C00D104E040F29C610FA002F0DCFF36
:1023E0006511012D02D11B48066808E0022D03D1BA
:1023F00018487030066802E016487430066804F029
:102400001F050120A840304008B1012700E0002747
:102410003846BDE8F08100002E2E5C447269766576
:1024200072735C53544D3332463478785F5374641E
:102430005065726970685F4472697665725C737228
:10244000635C73746D3332663478785F7263632EC5
:1024500063000000003802400248006800F00C00F1
:10246000704700000838024070B5044600257CB172
:10247000802C0DD0902C0BD0A02C09D0B02C07D0E4
:10248000C02C05D0D02C03D0E02C01D0F02C00D1F2
:1024900004E040F2E92105A002F07EFF1248056841
:1024A00025F0F0052543056070BD00002E2E5C442C
:1024B0007269766572735C53544D33324634787862
:1024C0005F5374645065726970685F4472697665C1
:1024D000725C7372635C73746D3332663478785FE8
:1024E0007263632E630000000838024010B5044692
:1024F0001CB1012C01D0052C00D103E0F02104A077
:1025000002F04AFF0020114908700846047010BD0F
:102510002E2E5C447269766572735C53544D33326F
:10252000463478785F5374645065726970685F44AC
:1025300072697665725C7372635C73746D33326654
:102540003478785F7263632E6300000002380240C3
:1025500070B5044600255CB1B4F5805F08D0B4F5D1
:10256000A05F05D0B4F5C05F02D0B4F5E05F00D144
:1025700004E040F2093105A002F00EFF12480568A0
:1025800025F4E0552543056070BD00002E2E5C4407
:102590007269766572735C53544D33324634787881
:1025A0005F5374645065726970685F4472697665E0
:1025B000725C7372635C73746D3332663478785F07
:1025C0007263632E630000000838024070B5044651
:1025D00000255CB1B4F5805F08D0B4F5A05F05D0EC
:1025E000B4F5C05F02D0B4F5E05F00D104E04FF471
:1025F0004A7105A002F0D0FE1248056825F4604536
:1026000045EAC405056070BD2E2E5C44726976658E
:1026100072735C53544D3332463478785F5374642C
:102620005065726970685F4472697665725C737236
:10263000635C73746D3332663478785F7263632ED3
:10264000630000000838024010B504460CB1012CAC
:1026500000D104E04FF4E77102A002F09DFE1048A3
:10266000046610BD2E2E5C447269766572735C53ED
:10267000544D3332463478785F53746450657269D0
:1026800070685F4472697665725C7372635C7374C0
:102690006D3332663478785F7263632E63000000B6
:1026A000000047422DE9F04105460F4616461C46FC
:1026B000DDF8188015B1B5F5800F00D104E040F2C7
:1026C000B7111FA002F068FE3F2F00D804E04FF4BE
:1026D000DC711BA002F060FEC02E03D3B6F5D87FDC
:1026E00000D804E040F2B91115A002F055FE022C0A
:1026F00005D0042C03D0062C01D0082C00D104E016
:102700004FF4DD710EA002F047FEB8F1040F03D3C1
:10271000B8F10F0F00D804E040F2BB1108A002F09E
:102720003BFE47EA86100121C1EB540140EA01401B
:10273000284340EA086011490860BDE8F0810000C4
:102740002E2E5C447269766572735C53544D33323D
:10275000463478785F5374645065726970685F447A
:1027600072697665725C7372635C73746D33326622
:102770003478785F7263632E63000000043802408F
:1027800070B5044600251CB1012C01D0022C00D1EB
:1027900004E04FF42D7105A002F0FEFD124805681B
:1027A00025F003052543056070BD00002E2E5C4416
:1027B0007269766572735C53544D3332463478785F
:1027C0005F5374645065726970685F4472697665BE
:1027D000725C7372635C73746D3332663478785FE5
:1027E0007263632E630000000838024038B5002091
:1027F00000900024002500BF3120FFF7CBFD0546E7
:102800000098401C00900098B0F5A06F01D0002DFA
:10281000F2D03120FFF7BEFD08B1012400E0002412
:10282000204638BD0CB50020019000903448006867
:1028300040F480303249086000BF3148006800F43D
:10284000003000900198401C0190009818B9019840
:10285000B0F5A06FF1D12A48006800F4003010B143
:102860000120009001E0002000900098012846D14E
:1028700023484030006840F08050214940310860D2
:102880002048006840F480401E4908601C48083019
:1028900000681B49083108600846006840F40040A1
:1028A00008600846006840F4A05008601648091FF8
:1028B0000860081F006840F08070091F086000BFB2
:1028C0000F48006800F000700028F9D040F2056061
:1028D0000E4908600A480830006820F003000849E3
:1028E000083108600846006840F00200086000BF38
:1028F00003480830006800F00C000828F8D10CBD2F
:10290000003802400070004019544007003C02406B
:1029100010B500BF502080F31188BFF34F8FBFF375
:102920006F8F00BF04F0B0FA18B14FF08050044927
:10293000086000BF002080F3118800BF10BD0000B8
:1029400004ED00E038B5FFF78DFC0120FFF7CEFD68
:10295000FFF74CFF0446012C25D10020FFF784FD32
:102960000020FFF733FE2003FFF7F2FD0220FFF700
:1029700007FF072002234FF4A87219210090580581
:10298000FFF790FE0120FFF75FFE00BF3920FFF741
:1029900001FD0028FAD00220FFF7F2FE00BFFFF78A
:1029A0005BFD0828FBD101218803FFF7CFFB38BD71
:1029B00010B51548006840F47000134908601348CA
:1029C000006840F001001149086000200F490831FB
:1029D00008600E4800680E4908400C4908600D4820
:1029E000091D0860081F006820F48020091F086086
:1029F000002006490C310860FFF714FF4FF000601B
:102A000001498039086010BD88ED00E000380240BF
:102A1000FFFFF6FE10300024F0B50C4615460021ED
:102A20000022068C4FF6FE773E400684018B028C16
:102A30004FF60C7631407E1C06EA03162E433143D6
:102A40004FF6F576324044F00106324301830284AA
:102A5000F0BDF0B50C461546002100220026078C7B
:102A60004FF6EF7C07EA0C070784018B028C4FF6C8
:102A7000FF7707EA041640F6FF4739404FF6FF7725
:102A800007EA033739434FF6FF7707EA052739434B
:102A90004FF65F773A4046F010073A4301830284CD
:102AA000F0BDF0B50C461546002100220026078C2B
:102AB0004FF6FF6C07EA0C070784818B028C4FF6F8
:102AC000FF7707EA04264FF60C7739404FF6FF7779
:102AD00007EA03172F4339434FF2FF573A4046F4B2
:102AE00080773A4381830284F0BDF0B50C461546E9
:102AF000002100220026078C4EF6FF7C07EA0C0717
:102B00000784818B028C4FF6FF7707EA043640F684
:102B1000FF4739404FF6FF7707EA052739434FF65D
:102B2000FF7707EA0337394345F6FF773A4046F423
:102B300080573A4381830284F0BD000010B5022122
:102B4000774800F0ADFBA0B340217648FDF772FE58
:102B5000012805D1724800F06BFA7349086020E043
:102B600040217048FDF766FED8B96D4800F060FA64
:102B70006E4908606C480068096888420AD96A484A
:102B800000684FF6FF71081A6849096808446849E7
:102B9000086006E06548006863490968401A6449AE
:102BA00008605F481030008820F002005C49103156
:102BB000088004215A4800F073FBA0B380215948D3
:102BC000FDF738FE012805D1554800F093FA564923
:102BD000486020E080215348FDF72CFED8B95048CA
:102BE00000F088FA514948604F4840684968884277
:102BF0000AD94D4840684FF6FF71081A4B49496899
:102C000008444B49486006E04848406846494968DE
:102C1000401A4749486042481030008820F00400BC
:102C20003F491031088008213D4800F039FBB0B31E
:102C30004FF480713B48FDF7FDFD012805D1384870
:102C400000F0A6FA3849886021E04FF480713548D9
:102C5000FDF7F0FDD8B9324800F09AFA33498860A0
:102C600031488068896888420AD92F4880684FF6C1
:102C7000FF71081A2D49896808442D49886006E0CB
:102C80002A48806828498968401A29498860244868
:102C90001030008820F008002149103108801021F0
:102CA0001F4800F0FDFAB0B34FF400711D48FDF766
:102CB000C1FD012805D11A4800F0AEFA1A49C860D2
:102CC00021E04FF400711748FDF7B4FDD8B914485E
:102CD00000F0A2FA1549C8601348C068C968884264
:102CE0000AD91148C0684FF6FF71081A0F49C96820
:102CF00008440F49C86006E00C48C0680A49C96822
:102D0000401A0B49C86006481030008820F01000B7
:102D10000349103108800121014800F09BF810BDE3
:102D200000040040000802406030012070300120A3
:102D30005030012010B505480068401C0349086068
:102D40000121034800F086F810BD0000D8000020E3
:102D50000010004070B504460D462248844226D03B
:102D6000B4F1804F23D02048844220D01F488442B1
:102D70001DD01F4884421AD01E48844217D01E48D6
:102D8000844214D01D48844211D01D4884420ED084
:102D90001C4884420BD01C48844208D01B48844203
:102DA00005D01B48844202D01A48844200D104E076
:102DB00040F2072118A002F0EFFA0DB1012D00D169
:102DC00004E04FF4027114A002F0E6FA25B1208865
:102DD00040F08000208004E020884FF67F7108409A
:102DE000208070BD00000140000400400008004049
:102DF000000C00400010004000140040000401409E
:102E000000400140004401400048014000180040DB
:102E1000001C0040002000402E2E5C447269766544
:102E200072735C53544D3332463478785F53746414
:102E30005065726970685F4472697665725C73721E
:102E4000635C73746D3332663478785F74696D2EA9
:102E50006300000070B504460D461948844226D030
:102E6000B4F1804F23D01748844220D016488442C2
:102E70001DD0164884421AD01548844217D01548F0
:102E8000844214D01448844211D0144884420ED095
:102E9000134884420BD01348844208D0124884421D
:102EA00005D01248844202D01148844200D104E087
:102EB00040F6F3110FA002F06FFAE843208270BDD4
:102EC000000001400004004000080040000C0040E9
:102ED0000010004000140040000401400040014088
:102EE000004401400048014000180040001C004020
:102EF000002000402E2E5C447269766572735C532C
:102F0000544D3332463478785F5374645065726937
:102F100070685F4472697665725C7372635C737427
:102F20006D3332663478785F74696D2E630000000B
:102F300070B504460D462248844226D0B4F1804F35
:102F400023D02048844220D01F4884421DD01F48EF
:102F500084421AD01E48844217D01E48844214D09E
:102F60001D48844211D01D4884420ED01C48844222
:102F70000BD01C48844208D01B48844205D01B4813
:102F8000844202D01A48844200D104E040F24D212C
:102F900018A002F001FA0DB1012D00D104E040F2B9
:102FA0004E2114A002F0F8F925B1208840F001006C
:102FB000208004E020884FF6FE710840208070BD1C
:102FC000000001400004004000080040000C0040E8
:102FD0000010004000140040000401400040014087
:102FE000004401400048014000180040001C00401F
:102FF000002000402E2E5C447269766572735C532B
:10300000544D3332463478785F5374645065726936
:1030100070685F4472697665725C7372635C737426
:103020006D3332663478785F74696D2E630000000A
:1030300010B504461548844220D0B4F1804F1DD00D
:10304000134884421AD01348844217D0124884424D
:1030500014D01248844211D0114884420ED0114835
:1030600084420BD01048844208D01048844205D0D6
:103070000F48844202D00F48844200D104E040F25D
:10308000E9710DA002F088F9606B10BD00000140ED
:103090000004004000080040000C00400004014013
:1030A0000040014000440140004801400018004039
:1030B000001C0040002000402E2E5C4472697665A2
:1030C00072735C53544D3332463478785F53746472
:1030D0005065726970685F4472697665725C73727C
:1030E000635C73746D3332663478785F74696D2E07
:1030F0006300000010B504460F48844214D0B4F1B8
:10310000804F11D00D4884420ED00D4884420BD020
:103110000C48844208D00C48844205D00B488442B5
:1031200002D00B48844200D104E04FF4FF6109A0B3
:1031300002F032F9A06B10BD000001400004004015
:1031400000080040000C0040000401400040014025
:10315000001800402E2E5C447269766572735C53D1
:10316000544D3332463478785F53746450657269D5
:1031700070685F4472697665725C7372635C7374C5
:103180006D3332663478785F74696D2E63000000A9
:1031900010B504460C4884420ED0B4F1804F0BD0D9
:1031A0000A48844208D00A48844205D0094884422B
:1031B00002D00948844200D104E040F6060107A08D
:1031C00002F0EAF8E06B10BD00000140000400408E
:1031D00000080040000C0040000401402E2E5C441A
:1031E0007269766572735C53544D33324634787825
:1031F0005F5374645065726970685F447269766584
:10320000725C7372635C73746D3332663478785FAA
:1032100074696D2E6300000010B504460C488442AA
:103220000ED0B4F1804F0BD00A48844208D00A482F
:10323000844205D00948844202D00948844200D122
:1032400004E040F6140107A002F0A6F8206C10BDBF
:10325000000001400004004000080040000C004055
:10326000000401402E2E5C447269766572735C53D3
:10327000544D3332463478785F53746450657269C4
:1032800070685F4472697665725C7372635C7374B4
:103290006D3332663478785F74696D2E6300000098
:1032A0002DE9F04104460D4600260027B0462B4884
:1032B000844226D0B4F1804F23D02948844220D0C4
:1032C000284884421DD0284884421AD02748844286
:1032D00017D02748844214D02648844211D026486B
:1032E00084420ED0254884420BD02548844208D021
:1032F0002448844205D02448844202D02348844292
:1033000000D104E040F6CC1121A002F045F8012DD7
:103310000DD0022D0BD0042D09D0082D07D0102D73
:1033200005D0202D03D0402D01D0802D00D104E008
:1033300040F6CD1116A002F02FF8208A00EA05070A
:10334000A08900EA050827B1B8F1000F01D00126D5
:1033500000E000263046BDE8F0810000000001409A
:103360000004004000080040000C00400010004035
:1033700000140040000401400040014000440140AE
:103380000048014000180040001C004000200040A0
:103390002E2E5C447269766572735C53544D3332E1
:1033A000463478785F5374645065726970685F441E
:1033B00072697665725C7372635C73746D333266C6
:1033C0003478785F74696D2E6300000070B5044630
:1033D0000D467148844220D0B4F1804F1DD06F4813
:1033E00084421AD06E48844217D06E48844214D06A
:1033F0006D48844211D06D4884420ED06C4884429E
:103400000BD06C48844208D06B48844205D06B488E
:10341000844202D06A48844200D104E040F26571DF
:1034200068A001F0B9FF688828B16888022802D036
:1034300068880A2800D104E040F2667161A001F0BA
:10344000ABFFA888012805D0A888022802D0A88848
:10345000032800D104E040F267715AA001F09CFFFC
:10346000E88840B1E888042805D0E888082802D018
:10347000E8880C2800D104E04FF4ED6151A001F080
:103480008BFF28890F2800DC04E040F269714DA011
:1034900001F082FF288850B92B89AA8869882046C4
:1034A000FFF7BAFAE988204600F0C2FE73E02888E8
:1034B000042828D13848844214D0B4F1804F11D068
:1034C000364884420ED0364884420BD03548844278
:1034D00008D03548844205D03448844202D036486A
:1034E000844200D104E040F2777136A001F054FF2D
:1034F0002B89AA8869882046FFF7ABFAE98820461D
:1035000000F00EFF47E02888082822D12248844294
:103510000ED0B4F1804F0BD02048844208D0204810
:10352000844205D01F48844202D01F48844200D103
:1035300004E040F2817123A001F02EFF2B89AA88BC
:1035400069882046FFF7ADFAE988204600F050FF71
:1035500021E0114884420ED0B4F1804F0BD00F48C7
:10356000844208D00E48844205D00E48844202D0DE
:103570000D48844200D104E040F28B7111A001F0AB
:103580000BFF2B89AA8869882046FFF7AEFAE988E5
:10359000204600F087FF70BD00000140000400409D
:1035A00000080040000C00400004014000400140C1
:1035B000004401400048014000180040001C004049
:1035C000002000402E2E5C447269766572735C5355
:1035D000544D3332463478785F5374645065726961
:1035E00070685F4472697665725C7372635C737451
:1035F0006D3332663478785F74696D2E6300000035
:1036000070B504460D4616462548844226D0B4F1CE
:10361000804F23D02348844220D0234884421DD0A9
:10362000224884421AD02248844217D0214884423A
:1036300014D02148844211D0204884420ED0204822
:1036400084420BD01F48844208D01F48844205D0D2
:103650001E48844202D01E48844200D104E040F655
:103660003D111CA001F098FE05F47F4008B905B19A
:1036700004E040F63E1117A001F08EFE0EB1012EBF
:1036800000D104E040F63F1112A001F085FE1EB10A
:10369000A0892843A08102E0A089A843A08170BD31
:1036A000000001400004004000080040000C004001
:1036B00000100040001400400004014000400140A0
:1036C000004401400048014000180040001C004038
:1036D000002000402E2E5C447269766572735C5344
:1036E000544D3332463478785F5374645065726950
:1036F00070685F4472697665725C7372635C737440
:103700006D3332663478785F74696D2E6300000023
:103710002DE9F04105460C464FF000080026002731
:103720005F48854220D0B5F1804F1DD05D4885426D
:103730001AD05D48854217D05C48854214D05C4859
:10374000854211D05B4885420ED05B4885420BD044
:103750005A48854208D05A48854205D05948854282
:1037600002D05948854200D104E040F29E2157A082
:1037700001F012FE208870B1208810280BD020881C
:10378000202808D02088302805D02088602802D042
:103790002088702800D104E040F29F214BA001F066
:1037A000FBFD608810B16088012800D104E04FF46F
:1037B000287146A001F0F0FDA08910B1A08902286F
:1037C00000D104E040F2A12140A001F0E5FD288CE9
:1037D0004FF6FE71084028842E8CAF88B5F818800B
:1037E0004FF68F7008EA0008881E08EA0008208853
:1037F00040EA0808481E0640A08906436088064340
:103800002748854202D02A48854241D1A08810B17C
:10381000A088042800D104E040F2BE212BA001F0D2
:10382000BBFDE08910B1E089082800D104E040F236
:10383000BF2126A001F0B0FD608AB0F5007F01D065
:10384000608A00B904E04FF4307120A001F0A4FDBB
:10385000208AB0F5807F01D0208A00B904E040F2D0
:10386000C1211AA001F098FD4FF6F7700640E089DB
:1038700006434FF6FB700640A08806434FF6FF60F4
:1038800007404FF6FF500740208A0743608A0743EE
:10389000AF80A5F81880A06868632E84BDE8F08129
:1038A000000001400004004000080040000C0040FF
:1038B0000004014000400140004401400048014034
:1038C00000180040001C0040002000402E2E5C44E8
:1038D0007269766572735C53544D3332463478782E
:1038E0005F5374645065726970685F44726976658D
:1038F000725C7372635C73746D3332663478785FB4
:1039000074696D2E6300000070B504460D460026F4
:103910001C48844220D0B4F1804F1DD01A48844204
:103920001AD01A48844217D01948844214D0194832
:10393000844211D0184884420ED0184884420BD0DB
:103940001748844208D01748844205D0164884425C
:1039500002D01648844200D104E040F2D34114A0C2
:1039600001F01AFD082D00D005B904E040F2D44161
:103970000FA001F011FD268B4FF6F77006402E4385
:10398000268370BD00000140000400400008004094
:10399000000C004000040140004001400044014090
:1039A0000048014000180040001C0040002000407A
:1039B0002E2E5C447269766572735C53544D3332BB
:1039C000463478785F5374645065726970685F44F8
:1039D00072697665725C7372635C73746D333266A0
:1039E0003478785F74696D2E630000002DE9F04132
:1039F00005460C464FF00008002600276348854224
:103A000014D0B5F1804F11D0614885420ED0614885
:103A100085420BD06048854208D06048854205D079
:103A20005F48854202D05F48854200D104E040F201
:103A3000EF215DA001F0B0FC208870B12088102833
:103A40000BD02088202808D02088302805D0208856
:103A5000602802D02088702800D104E04FF43C7127
:103A600051A001F099FC608810B16088012800D154
:103A700004E040F2F1214CA001F08EFCA08910B1CD
:103A8000A089022800D104E040F2F22146A001F012
:103A900083FC288C4FF6EF71084028842E8CAF8869
:103AA000B5F8188048F6FF7008EA00084FF6FF40A6
:103AB00008EA000820884FF6FF7101EA002040EA7A
:103AC00008084FF6DF700640A08901EA001006439F
:103AD000608801EA001006432C48854202D02F4836
:103AE00085424BD1A08810B1A088042800D104E001
:103AF0004FF444712CA001F04FFCE08910B1E08933
:103B0000082800D104E040F2113127A001F044FC64
:103B1000608AB0F5007F01D0608A00B904E040F20D
:103B2000123121A001F038FC208AB0F5807F01D04D
:103B3000208A00B904E040F213311BA001F02CFCF4
:103B40004FF67F700640E0894FF6FF7101EA0010E2
:103B500006434FF6BF700640A08801EA00100643F6
:103B60004FF6FF3007404FF2FF700740208A01EA0E
:103B700080000743608A01EA80000743AF80A5F810
:103B80001880A068A8632E84BDE8F0810000014081
:103B90000004004000080040000C00400004014008
:103BA00000400140001800402E2E5C44726976658A
:103BB00072735C53544D3332463478785F53746477
:103BC0005065726970685F4472697665725C737281
:103BD000635C73746D3332663478785F74696D2E0C
:103BE0006300000070B504460D4600261848844264
:103BF00014D0B4F1804F11D0164884420ED016482C
:103C000084420BD01548844208D01548844205D020
:103C10001448844202D01448844200D104E040F2A7
:103C2000F14112A001F0B8FB082D00D005B904E065
:103C300040F2F2410DA001F0AFFB268B4FF2FF7076
:103C400006404FF6FF7000EA05200643268370BD4C
:103C5000000001400004004000080040000C00404B
:103C60000004014000400140001800402E2E5C443A
:103C70007269766572735C53544D3332463478788A
:103C80005F5374645065726970685F4472697665E9
:103C9000725C7372635C73746D3332663478785F10
:103CA00074696D2E630000002DE9F04105460C4655
:103CB0004FF00008002600275F4885420ED0B5F17E
:103CC000804F0BD05D48854208D05D48854205D0C5
:103CD0005C48854202D05C48854200D104E04FF444
:103CE00050715AA001F058FB208870B1208810282C
:103CF0000BD02088202808D02088302805D02088A4
:103D0000602802D02088702800D104E040F24131C0
:103D10004EA001F041FB608810B16088012800D1FD
:103D200004E040F2423149A001F036FBA08910B115
:103D3000A089022800D104E040F2433143A001F001
:103D40002BFB288C4FF6FF61084028842E8CAF880F
:103D5000B5F81C804FF68F7008EA00084FF6FC702B
:103D600008EA0008208840EA08084FF6FF5006409D
:103D7000A0894FF6FF7101EA00200643608801EA3E
:103D8000002006432C48854202D02F4885424BD163
:103D9000A08810B1A088042800D104E04FF4587125
:103DA0002AA001F0F9FAE08910B1E089082800D1D1
:103DB00004E040F2613125A001F0EEFA608AB0F52E
:103DC000007F01D0608A00B904E040F262311FA098
:103DD00001F0E2FA208AB0F5807F01D0208A00B994
:103DE00004E040F2633119A001F0D6FA4FF2FF70FF
:103DF0000640E0894FF6FF7101EA002006434FF6C6
:103E0000FF300640A08801EA002006434EF6FF700E
:103E100007404DF6FF700740208A01EA0010074373
:103E2000608A01EA00100743AF80A5F81C80A068F3
:103E3000E8632E84BDE8F0810000014000040040EA
:103E400000080040000C0040000401402E2E5C449D
:103E50007269766572735C53544D333246347878A8
:103E60005F5374645065726970685F447269766507
:103E7000725C7372635C73746D3332663478785F2E
:103E800074696D2E6300000070B504460D4600266F
:103E9000134884420ED0B4F1804F0BD011488442B5
:103EA00008D01148844205D01048844202D01048FE
:103EB000844200D104E040F20E510EA001F06CFAF1
:103EC000082D00D005B904E040F20F5109A001F01F
:103ED00063FAA68B4FF6F77006402E43A68370BD9B
:103EE000000001400004004000080040000C0040B9
:103EF000000401402E2E5C447269766572735C5337
:103F0000544D3332463478785F5374645065726927
:103F100070685F4472697665725C7372635C737417
:103F20006D3332663478785F74696D2E63000000FB
:103F30002DE9F04104460D4600270026B0464548CD
:103F400084420ED0B4F1804F0BD04348844208D055
:103F50004248844205D04248844202D041488442CB
:103F600000D104E04FF464713FA001F015FA2888F5
:103F700070B1288810280BD02888202808D02888DD
:103F8000302805D02888602802D02888702800D1E1
:103F900004E040F2913134A001F0FEF9688810B1DC
:103FA0006888012800D104E040F292312EA001F08F
:103FB000F3F9A88910B1A889022800D104E040F2E1
:103FC000933129A001F0E8F9208C4EF6FF710840EA
:103FD0002084268CB4F80480A78B48F6FF70074035
:103FE0004FF6FF40074028884FF6FF7101EA002096
:103FF00007434DF6FF700640A88901EA00300643EA
:10400000688801EA003006431248844202D015480D
:10401000844216D1288AB0F5807F01D0288A00B961
:1040200004E040F2B13110A001F0B6F94BF6FF7098
:1040300008EA0008288A4FF6FF7101EA801040EA7A
:104040000808A4F80480A783A86820642684BDE833
:10405000F081000000000140000400400008004022
:10406000000C0040000401402E2E5C44726976650D
:1040700072735C53544D3332463478785F537464B2
:104080005065726970685F4472697665725C7372BC
:10409000635C73746D3332663478785F74696D2E47
:1040A0006300000070B504460D46002615488442A2
:1040B0000ED0B4F1804F0BD01348844208D013487F
:1040C000844205D01248844202D01248844200D172
:1040D00004E040F22B5110A001F05EF9082D00D051
:1040E00005B904E040F22C510BA001F055F9A68B64
:1040F0004FF2FF7006404FF6FF7000EA05200643BE
:10410000A68370BD0000014000040040000800408C
:10411000000C0040000401402E2E5C44726976655C
:1041200072735C53544D3332463478785F53746401
:104130005065726970685F4472697665725C73720B
:10414000635C73746D3332663478785F74696D2E96
:104150006300000070B504460D461948844226D01D
:10416000B4F1804F23D01748844220D016488442AF
:104170001DD0164884421AD01548844217D01548DD
:10418000844214D01448844211D0144884420ED082
:10419000134884420BD01348844208D0124884420A
:1041A00005D01248844202D01148844200D104E074
:1041B00040F2A5110FA001F0EFF8E56270BD00001C
:1041C000000001400004004000080040000C0040D6
:1041D0000010004000140040000401400040014075
:1041E000004401400048014000180040001C00400D
:1041F000002000402E2E5C447269766572735C5319
:10420000544D3332463478785F5374645065726924
:1042100070685F4472697665725C7372635C737414
:104220006D3332663478785F74696D2E63000000F8
:1042300070B504460D462048844220D0B4F1804F2A
:104240001DD01E4884421AD01D48844217D01D48F4
:10425000844214D01C48844211D01C4884420ED0A1
:104260001B4884420BD01B48844208D01A48844221
:1042700005D01A48844202D01948844200D104E093
:1042800040F6280117A001F087F82DB1042D03D0C6
:10429000082D01D00C2D00D104E040F6290111A019
:1042A00001F07AF8208B4FF6F37108402083208BC1
:1042B0002843208370BD000000000140000400403E
:1042C00000080040000C0040000401400040014094
:1042D000004401400048014000180040001C00401C
:1042E000002000402E2E5C447269766572735C5328
:1042F000544D3332463478785F5374645065726934
:1043000070685F4472697665725C7372635C737423
:104310006D3332663478785F74696D2E6300000007
:1043200070B504460D461C48844214D0B4F1804F49
:1043300011D01A4884420ED0194884420BD0194833
:10434000844208D01848844205D01848844202D0DC
:104350001748844200D104E040F6410115A001F065
:104360001BF82DB1042D03D0082D01D00C2D00D148
:1043700004E040F642010FA001F00EF8208B4FF24E
:10438000FF3108402083208B4FF6FF7101EA0521A1
:104390000843208370BD000000000140000400407D
:1043A00000080040000C00400004014000400140B3
:1043B000001800402E2E5C447269766572735C535F
:1043C000544D3332463478785F5374645065726963
:1043D00070685F4472697665725C7372635C737453
:1043E0006D3332663478785F74696D2E6300000037
:1043F00070B504460D46174884420ED0B4F1804F84
:104400000BD01548844208D01448844205D0144883
:10441000844202D01348844200D104E040F659019E
:1044200011A000F0B9FF2DB1042D03D0082D01D04B
:104430000C2D00D104E040F65A010BA000F0ACFFB7
:10444000A08B4FF6F3710840A083A08B2843A08374
:1044500070BD000000000140000400400008004062
:10446000000C0040000401402E2E5C447269766509
:1044700072735C53544D3332463478785F537464AE
:104480005065726970685F4472697665725C7372B8
:10449000635C73746D3332663478785F74696D2E43
:1044A0006300000070B504460D46194884420ED0E2
:1044B000B4F1804F0BD01748844208D0164884428C
:1044C00005D01648844202D01548844200D104E049
:1044D00040F6710113A000F05FFF2DB1042D03D051
:1044E000082D01D00C2D00D104E040F672010DA082
:1044F00000F052FFA08B4FF2FF310840A083A08B49
:104500004FF6FF7101EA05210843A08370BD00004A
:10451000000001400004004000080040000C004082
:10452000000401402E2E5C447269766572735C5300
:10453000544D3332463478785F53746450657269F1
:1045400070685F4472697665725C7372635C7374E1
:104550006D3332663478785F74696D2E63000000C5
:1045600070B504460D4600264348844226D0B4F177
:10457000804F23D04148844220D0414884421DD0FE
:10458000404884421AD04048844217D03F48844271
:1045900014D03F48844211D03E4884420ED03E4859
:1045A00084420BD03D48844208D03D48844205D027
:1045B0003C48844202D03C48844200D104E040F2AE
:1045C0001F113AA000F0E8FE688858B168881028EA
:1045D00008D06888202805D06888402802D06888DC
:1045E000602800D104E04FF4907130A000F0D4FEB8
:1045F000288938B12889B0F5807F03D02889B0F5A3
:10460000007F00D104E040F2211128A000F0C4FE98
:104610002688194884420ED01D4884420BD0B4F13C
:10462000804F08D01548844205D01548844202D0F6
:104630001448844204D14FF68F70064068880643C0
:104640001148844207D01148844204D04FF6FF40FD
:1046500006402889064326806868E062288820850D
:104660000548844202D00A48844201D1A87A2086B3
:104670000120A08270BD0000000001400004004045
:1046800000080040000C00400010004000140040F2
:104690000004014000400140004401400048014046
:1046A00000180040001C0040002000402E2E5C44FA
:1046B0007269766572735C53544D33324634787840
:1046C0005F5374645065726970685F44726976659F
:1046D000725C7372635C73746D3332663478785FC6
:1046E00074696D2E6300000070B504460D461E48C7
:1046F00084420ED01D4884420BD01D48844208D00D
:104700001C48844205D01C48844202D01B48844285
:1047100000D104E040F22C5119A000F03DFE4FF60C
:104720009F40284008B905B104E040F22D5114A083
:1047300000F032FE05F40070B0F5007F11D10A4898
:10474000844208D00948844205D00948844202D0F6
:104750000A48844200D104E040F2325108A000F03F
:104760001BFEE843208070BD001001400044004063
:1047700000480040004C0040005000400014014040
:104780002E2E5C447269766572735C53544D3332DD
:10479000463478785F5374645065726970685F441A
:1047A00072697665725C7372635C73746D333266C2
:1047B0003478785F75736172742E630070B5044647
:1047C0000D46164884420ED0154884420BD0154839
:1047D000844208D01448844205D01448844202D050
:1047E0001348844200D104E040F29B1111A000F074
:1047F000D3FD0DB1012D00D104E04FF4CE710DA019
:1048000000F0CAFD25B1A08940F40050A08104E069
:10481000A0894DF6FF710840A08170BD00100140D5
:104820000044004000480040004C00400050004060
:10483000001401402E2E5C447269766572735C53DD
:10484000544D3332463478785F53746450657269DE
:1048500070685F4472697665725C7372635C7374CE
:104860006D3332663478785F75736172742E6300CD
:1048700010B50446314884420ED0314884420BD0F2
:104880003048844208D03048844205D02F488442C2
:1048900002D02F48844200D103E0B5212DA000F0C2
:1048A0007BFD2648844208D101211020FDF794FCAD
:1048B00000211020FDF790FC3EE02148844209D100
:1048C00001214804FDF7FCFB00214FF40030FDF707
:1048D000F7FB31E01B48844209D101218804FDF730
:1048E000EFFB00214FF48020FDF7EAFB24E016489F
:1048F000844209D10121C804FDF7E2FB00214FF4F5
:104900000020FDF7DDFB17E01048844209D10121AA
:104910000805FDF7D5FB00214FF48010FDF7D0FB13
:104920000AE00B48844207D101212020FDF754FC06
:1049300000212020FDF750FC10BD000000100140B8
:104940000044004000480040004C0040005000403F
:10495000001401402E2E5C447269766572735C53BC
:10496000544D3332463478785F53746450657269BD
:1049700070685F4472697665725C7372635C7374AD
:104980006D3332663478785F75736172742E6300AC
:1049900070B505460C460026284885420ED02848AA
:1049A00085420BD02748854208D02748854205D04C
:1049B0002648854202D02648854200D104E040F2D4
:1049C000FC4124A000F0E8FC012C13D0802C11D075
:1049D000402C0FD0202C0DD0102C0BD0B4F5807FA4
:1049E00008D0B4F5007F05D0082C03D0042C01D0EA
:1049F000022C00D104E040F2FD4116A000F0CCFCF6
:104A0000B4F5007F11D10D48854208D00C4885428D
:104A100005D00C48854202D00D48854200D104E003
:104A200040F202510BA000F0B7FC2888204008B1EA
:104A3000012600E00026304670BD00000010014055
:104A40000044004000480040004C0040005000403E
:104A5000001401402E2E5C447269766572735C53BB
:104A6000544D3332463478785F53746450657269BC
:104A700070685F4472697665725C7372635C7374AC
:104A80006D3332663478785F75736172742E6300AB
:104A90002DE9F04704460D4617464FF00008C24680
:104AA000C14600263B4884420ED03B4884420BD08E
:104AB0003A48844208D03A48844205D03948844272
:104AC00002D03948844200D104E040F2BD4137A011
:104AD00000F062FC282D19D040F22770854215D0D5
:104AE00040F22660854211D040F2255085420DD01B
:104AF00040F22440854209D040F64600854205D068
:104B000040F66A10854201D0602D00D104E040F2E9
:104B1000BE4126A000F040FC0FB1012F00D104E0FF
:104B200040F2BF4121A000F037FC40F66A108542F8
:104B300011D11848844208D01748844205D017483C
:104B4000844202D01848844200D104E040F2C441BB
:104B500016A000F021FC2646C5F3421805F01F0AF6
:104B6000012000FA0AF9B8F1010F01D10C3605E075
:104B7000B8F1020F01D1103600E0143627B13068C9
:104B800040EA0900306003E0306820EA0900306044
:104B9000BDE8F0870010014000440040004800409C
:104BA000004C004000500040001401402E2E5C4498
:104BB0007269766572735C53544D3332463478783B
:104BC0005F5374645065726970685F44726976659A
:104BD000725C7372635C73746D3332663478785FC1
:104BE00075736172742E63002DE9FF4705460C460C
:104BF0000026B14600BFB0466D4885420ED06D48D4
:104C000085420BD06C48854208D06C48854205D05F
:104C10006B48854202D06B48854200D103E0EB210E
:104C200069A000F0B9FB206820B17649206888426D
:104C300000D203E0EC2164A000F0AEFBA08818B124
:104C4000A088B0F5805F00D103E0ED215EA000F008
:104C5000A3FBE08858B1E088B0F5805F07D0E0881A
:104C6000B0F5005F03D0E088B0F5405F00D103E00D
:104C7000EE2155A000F090FB208938B12089B0F5D5
:104C8000806F03D02089B0F5C06F00D103E0EF2121
:104C90004DA000F081FB60894FF6F371084010B918
:104CA000608900B103E0F02147A000F075FBA08906
:104CB00058B1A089B0F5807F07D0A089B0F5007FFA
:104CC00003D0A089B0F5407F00D103E0F1213EA0E0
:104CD00000F062FBA08980B13548854208D0354894
:104CE000854205D03448854202D03648854200D1FD
:104CF00003E0F62134A000F04FFB2E8A26F4405644
:104D0000E08806432E82AE8941F20C608643A0887B
:104D100021890843618908430643AE81AE8A26F49F
:104D20004076A0890643AE826846FDF7BFFA204868
:104D3000854202D02348854202D1DDF80C9001E083
:104D4000DDF80890A88900F4004040B109EBC900E3
:104D500000EB091021684900B0FBF1F707E009EB0F
:104D6000C90000EB091021688900B0FBF1F764204D
:104D7000B7FBF0F006013009642101FB1078A88927
:104D800000F4004040B1322000EBC800B0FBF1F06D
:104D900000F00700064308E0322000EB0810642111
:104DA000B0FBF1F000F00F0006432E81BDE8FF8755
:104DB000001001400044004000480040004C00400A
:104DC00000500040001401402E2E5C44726976654C
:104DD00072735C53544D3332463478785F53746445
:104DE0005065726970685F4472697665725C73724F
:104DF000635C73746D3332663478785F7573617297
:104E0000742E6300E170720070B504460D461248BE
:104E100084420ED0114884420BD01148844208D0FD
:104E20001048844205D01048844202D00F48844282
:104E300000D104E040F21D210DA000F0ADFAB5F55F
:104E4000007F00DA04E040F21E2109A000F0A4FA7D
:104E5000C5F30800A08070BD001001400044004070
:104E600000480040004C0040005000400014014049
:104E70002E2E5C447269766572735C53544D3332E6
:104E8000463478785F5374645065726970685F4423
:104E900072697665725C7372635C73746D333266CB
:104EA0003478785F75736172742E630000BFFEE71B
:104EB0000FB4054B10B503A9044A029800F030F86E
:104EC00010BC5DF814FB0000A9530008E4000020AA
:104ED0000FB41CB50246002007AC00290BD0491EB8
:104EE000CDE90021054B6A462146069800F018F8E6
:104EF000009A002111701CBC5DF814FB835300085C
:104F000002E008C8121F08C1002AFAD17047704792
:104F1000002001E001C1121F002AFBD170470000F0
:104F20002DE9FF4F8DB00F460546002606E02528E7
:104F30000BD0DDE90F1290476D1C761C28780028F5
:104F4000F5D111B03046BDE8F08F0024A246A1464D
:104F50000122EC4900E0044315F8013F203B02FA2E
:104F600003F00842F7D128782A2810D06FF02F02DA
:104F70002878A0F13001092914D80AEB8A0102EB44
:104F8000410144F0020400EB010A6D1CF0E701CF7F
:104F90005FEA000A03D544F40054CAF1000A44F061
:104FA00002046D1C28782E2817D115F8010F44F043
:104FB00004042A280ED06FF02F022878A0F13001C7
:104FC00009290AD809EB890102EB410100EB01092B
:104FD0006D1CF2E757F8049B6D1C28786C280FD0E5
:104FE00006DC4C2817D068280DD06A2814D104E0BC
:104FF000742810D07A280FD10DE044F400140AE090
:1050000044F4801401E044F440146978814202D1F0
:1050100004F580146D1C6D1C2A786E2A1FD00CDCE0
:10502000632A31D004DC002A8BD0582A11D1A3E0A6
:10503000642A68D0692A0CD165E0732A2ED004DC7A
:105040006F2A73D0702A04D19BE0752A6FD0782A1A
:105050006ED01046DDE90F129047761C50E1C4F384
:105060000250022806D0032809D0042801CF09D015
:10507000066045E101CFF117C0E9006140E101CFD1
:1050800006803DE106703BE117F8040B8DF8000047
:1050900000208DF80100EB46012003E057F804BB27
:1050A0004FF0FF3061074FF0000102D40DE008F12E
:1050B0000101884649450FDA8045F8DB1BF80810E6
:1050C0000029F4D108E008F1010188468142FADBA9
:1050D0001BF808100029F6D1DDE90F23AAEB080020
:1050E0008146214600F036F9304400EB080604E022
:1050F000DDE90F121BF8010B9047B8F10108F7D258
:1051000021464846F7E00A21C4F302534FF0000B52
:105110000891022B04D001CFC117032B09D00AE05C
:10512000FF1D27F00707F7E8020108E032E01FE063
:1051300020E000B2C117042B01D140B2C117031EF9
:1051400071F1000307DA4FF0000CD0EB0C006CEBB0
:1051500001012D2302E0230504D52B238DF82430F3
:10516000012303E0E30701D02023F7E7984658E046
:105170000A2110E010210EE010204FF0000B0890E3
:105180000CE010214FF0000B44F004044FF008092C
:10519000089103E008214FF0000B0891C4F302537B
:1051A000022B04D001CF0021032B06D006E0FF1D07
:1051B00027F00707F7E8020103E080B2042B00D1D3
:1051C000C0B24FF0000823072BD5702A07D0DDF8B6
:1051D00020C08CF0100C5CEA0B0C05D00EE04023D4
:1051E0008DF82430012308E050EA010306D0302373
:1051F0008DF824308DF8252002239846DDF820C054
:105200008CF0080C5CEA0B0C0BD150EA010301D1C5
:10521000630706D530238DF824304FF00108A9F13B
:105220000109582A04D038A20B9208AA0A920BE06E
:105230003AA2F9E75B46089AFBF746F80B9B9B5CA2
:105240000A9A521E0A92137050EA0102F2D10A9889
:10525000ADEB000000F1200B600702D524F4803490
:1052600001E04FF00109D94502DDA9EB0B0000E098
:10527000002000EB0B0141440890AAEB010AE00377
:1052800006D4DDE90F232146504600F063F80644BA
:105290004FF0000908E009A911F80900DDE90F1233
:1052A000904709F10109761CC145F4DBE0030CD5F8
:1052B000DDE90F232146504600F04CF8064404E097
:1052C000DDE90F1230209047761C0899481E08909F
:1052D0000029F5DC08E00A980A990078491C0A912F
:1052E000DDE90F129047761CBBF10001ABF1010B19
:1052F000F1DC21465046DDE90F2300F019F80644A1
:105300006D1C1BE609280100303132333435363745
:105310003839616263646566000000003031323301
:1053200034353637383941424344454600000000A1
:105330002DE9F041044600251E461746880404D492
:1053400005E039462020B0476D1C641EF9D528467B
:10535000BDE8F0812DE9F041044600251E46904647
:10536000C80301D5302700E02027880404D505E0D4
:1053700041463846B0476D1C641EF9D52846BDE845
:10538000F0814A68002A06D00A68531C0B6010702E
:105390004868401E48607047704710B50446204674
:1053A00001F07CF810BD000070B504460D46E1B276
:1053B0000548FFF729FD00BF80210348FFF7E8FA01
:1053C0000028F9D0204670BD0010014010B504211E
:1053D0004E48FBF72FFA70B9642001F05FF8042102
:1053E0004A48FBF727FA60B94948007840F00100C5
:1053F0004749087005E04648007820F0010044491C
:10540000087008214148FBF715FA70B9642001F0D3
:1054100045F808213D48FBF70DFA60B93C48007893
:1054200040F002003A49087005E03948007820F061
:1054300002003749087010213448FBF7FBF970B9B6
:10544000642001F02BF810213048FBF7F3F960B924
:105450002F48007840F004002D49087005E02C48E2
:10546000007820F004002A49087020212748FBF723
:10547000E1F970B9642001F011F820212348FBF70D
:10548000D9F960B92248007840F008002049087036
:1054900005E01F48007820F008001D4908704021F1
:1054A0001A48FBF7C7F970B9642000F0F7FF4021F4
:1054B0001648FBF7BFF960B91548007840F01000B6
:1054C0001349087005E01248007820F010001049D8
:1054D000087001210F48FBF7ADF970B9642000F0A6
:1054E000DDFF01210B48FBF7A5F960B908480078FA
:1054F00040F020000649087005E00548007820F0DB
:105500002000034908700248007810BD00100240D6
:10551000E2000020000002400146032901DD0020D6
:105520007047024850F82100FAE70000503001208F
:10553000FDF708FA012080F3108800BFFAF786FF14
:10554000FAF726FF01F026F800BFFEE72DE9F0414B
:1055500005460E461C4807681C480068001D00F000
:105560008FFD50B91948006890F82C100120884030
:1055700017490968814316480160681C38B936B17B
:1055800012480168091D134800F032FE1AE07C1928
:105590000E4800684460BC4207D20C480168091DEF
:1055A0000D48006800F00AFE0CE008480168091D7B
:1055B0000A48006800F002FE09480068844201D2EF
:1055C00007480460BDE8F0813C000020280000206E
:1055D00040000020F8030020300000202C000020B4
:1055E0005800002010B5044600F00EFE2448006864
:1055F000401C234908602348006840B921480460E2
:105600000846006801280DD100F0D8F90AE01E48CC
:10561000006838B91B480068C06AE16A884201D84E
:105620001848046019480068401C1849086008467A
:105630000068206494F82C100120884014490968FF
:10564000084313490860E16A01EB8101114A02EB4A
:105650008100211D00F0CCFD00F000FE0A4800682A
:1056600068B108480068C06AE16A884207D24FF012
:10567000805009490860BFF34F8FBFF36F8F10BD93
:1056800038000020280000204400002054000020A2
:10569000400000202801002004ED00E010B500F0DB
:1056A000B3FD10480068D0B90F4800F077FD0F48EF
:1056B00000F074FD0C480E4908600C480D49086064
:1056C00000220C210A2001F0D5F80649086008469E
:1056D000006820B108A10348006800F077FE00F0E0
:1056E000BDFD10BD740000200C040020200400202B
:1056F0006C00002070000020546D7251000000000A
:1057000010B516E000F080FD0C48C068C468201D8C
:1057100000F0B6FC0A480068401E094908600948C4
:105720000068401E0749086000F098FD204600F020
:105730005FF8044800680028E4D110BDE4030020AD
:10574000380000203400002070B504460D46206C5F
:1057500070B1216CE0680144E160D4E90210884234
:1057600001D32168E1602846226CE168FAF788FDE0
:1057700070BD2DE9F04104460F4615464FF0000874
:10578000A66B206C48B9206800282CD1A06801F0D5
:105790001FFC80460020A06025E07DB93946226CC0
:1057A0006068FAF76DFD216C606808446060D4E9B8
:1057B0000101884217D32068606014E03946226CEA
:1057C000E068FAF75DFD216CE068411AE16021684C
:1057D000E068884203D2216CA068411AE160022D82
:1057E00001D106B1761E701CA0634046BDE8F08171
:1057F00010B50446206B00F04FFD204600F04CFD34
:1058000010BD00000146084A126812680AB9012258
:1058100000E000220A600A6822B9034A1268D268CE
:10582000106800E0002070476C00002030B54FF495
:105830009633174800F007042CB1C01D20F0070074
:10584000134C041B1B1B0246124C22600024114DFA
:105850006C60D018083820F007000F4C206000243E
:105860000D4D2D686C600C4D2D682C601146441A4E
:105870004C60094C24680C60084D4C682C60084D45
:105880004C682C604FF00044064D2C6030BD000089
:1058900034040020800000208800002090000020B8
:1058A0008C0000209400002000BFFFF729FF06486D
:1058B00000680128F9D94FF0805004490860BFF30F
:1058C0004F8FBFF36F8FF0E72801002004ED00E059
:1058D0002DE9F04106460D4617469846069C0DB93F
:1058E000246000E02760E66325640121204600F083
:1058F000EFFF84F84C80BDE8F0812DE9F05F82462F
:105900000E4690469B460A9F0C9C4FEA8801A522B2
:10591000206BFAF7C7FCA8F10100216B01EB8009AD
:1059200029F0070909F0070008B9012000E000206C
:1059300050B900BF502080F31188BFF34F8FBFF3E1
:105940006F8F00BF00BFFEE786B1002507E0715DE5
:1059500004F134004155705D00B902E06D1C0A2D60
:10596000F5D300BF00213D20015502E0002084F85E
:105970003400202F00D31F27E762A7640020E064D3
:10598000201D00F018FC04F1180000F014FC246144
:10599000C7F12000A061646200202065606584F882
:1059A00058005A465146484600F054FB20600B9878
:1059B00008B10B980460BDE8F09F000010B500240A
:1059C00007E004EB84010F4A02EB810000F0E6FBE4
:1059D000641C202CF5D30C4800F0E0FB0B4800F0D1
:1059E000DDFB0B4800F0DAFB0A4800F0D7FB0A4861
:1059F00000F0D4FB044809490860044808490860DD
:105A000010BD000028010020A8030020BC030020D6
:105A1000D0030020E4030020F80300202C00002025
:105A20003000002010B50146164800E00068036809
:105A30008B42FBD30246436813448B4204D1436834
:105A40004C682344436001460A464B68134404688B
:105A5000A34211D10C4C03682468A34208D04B68C0
:105A60000468646823444B6003681B680B6005E0AE
:105A7000054B1B680B6001E003680B60884200D097
:105A8000016010BD80000020880000202DE9F04159
:105A900004460D4616461F464FF000086560246117
:105AA000B5420CD8F01BA169884202D34FF001081F
:105AB00011E0211D0948006800F080FB0BE0BE42A8
:105AC00004D2BD4202D34FF0010804E0211D044876
:105AD000006800F073FB4046BDE8F08170000020D4
