:020000040800F2
:1000000080AF01205D020008453B00080520000884
:10001000413B0008D5040008216E000800000000E4
:100020000000000000000000000000009D0100082A
:10003000D904000800000000F90100088548000804
:1000400077020008770200087702000877020008AC
:10005000770200087702000877020008770200089C
:10006000770200087702000877020008770200088C
:10007000770200087702000877020008770200087C
:10008000770200087702000877020008770200086C
:10009000770200087702000877020008770200085C
:1000A000770200087702000877020008770200084C
:1000B00077020008B14A00087702000877020008BA
:1000C000770200087702000877020008770200082C
:1000D000770200087702000877020008770200081C
:1000E000770200087702000877020008770200080C
:1000F00077020008770200087702000877020008FC
:1001000077020008770200087702000877020008EB
:100110007702000877020008A94C0008770200085F
:1001200077020008770200087702000877020008CB
:1001300077020008770200087702000877020008BB
:1001400077020008770200087702000877020008AB
:10015000770200087702000877020008770200089B
:10016000770200087702000877020008770200088B
:1001700077020008770200087702000800000000FC
:100180007702000877020008DFF80CD000F0DCF8F6
:100190000048004749A4000880AF01202C4B196893
:1001A0000868B0E8F04F80F30988BFF36F8F4FF015
:1001B000000080F3118870470000000008480068C4
:1001C000006880F308884FF0000080F3148862B65E
:1001D00061B6BFF34F8FBFF36F8F00DF00BF00BF6B
:1001E00008ED00E0DFF80C00016841F470010160E7
:1001F000704700BF88ED00E0EFF30980BFF36F8F19
:10020000134B1A681EF0100F08BF20ED108A20E96A
:10021000F04F106009B44FF0500080F31188BFF325
:100220004F8FBFF36F8F0BF083FA4FF0000080F316
:10023000118809BC19680868B0E8F04F1EF0100F6B
:1002400008BFB0EC108A80F30988BFF36F8F704746
:1002500030000020EFF3058070470000064880471B
:1002600006480047FEE7FEE7FEE7FEE7FEE7FEE79B
:10027000FEE7FEE7FEE7FEE72549000889010008E2
:1002800010B5431A934209D28318881803E010F876
:10029000011D03F8011D521EF9D210BD40EA0103F1
:1002A0009B0703D009E008C9121F08C0042AFAD22C
:1002B00003E011F8013B00F8013B521EF9D210BDDA
:1002C000D2B201E000F8012B491EFBD27047002298
:1002D000F6E710B513460A4604461946FFF7F0FF45
:1002E000204610BD2DE9F05F0546002092469B4652
:1002F00088460646814640241BE02846414647463C
:10030000224600F042F853465A46C01A914110D393
:1003100011461846224600F029F82D1A67EB01080D
:100320004F4622460120002100F020F817EB00097B
:100330004E41201EA4F10104DFDC484631462A4626
:100340004346BDE8F09F0000064C074D06E0E0681C
:1003500040F0010394E8070098471034AC42F6D30C
:10036000FFF716FF88F40008A8F40008202A04DB31
:10037000203A00FA02F1002070479140C2F12003B8
:1003800020FA03F3194390407047202A04DB203AF7
:1003900021FA02F00021704721FA02F3D040C2F1A5
:1003A0002002914008431946704770B58C1810F828
:1003B000015B15F0070301D110F8013B2A1106D1AA
:1003C00010F8012B03E010F8016B01F8016B5B1EC4
:1003D000F9D12B0705D40023521E0DD401F8013B9F
:1003E000FAE710F8013BCB1A921C03E013F8015B0B
:1003F00001F8015B521EF9D5A142D8D3002070BD8F
:100400001CB516481F2100234FF40072CDE90010DF
:1004100013A117480BF056FE16481E2100234FF477
:100420000072CDE9001014A118480BF04BFE1848DB
:10043000142100234FF40072CDE9001015A11848D3
:100440000BF040FE0020152103464FF40072CDE969
:10045000001014A118480BF035FE1CBD0000002050
:10046000764C45445461736B5374617274000000A0
:1004700051B10008DC0000207653797374656D4437
:100480006562756753746172740000006DB4000892
:10049000E40000207652435374617274000000003F
:1004A00041B4000876496E746572616374696F6E59
:1004B000537461727400000021B0000810B503F09D
:1004C000D9FA4FF4407003F0B1FB0121080303F0A7
:1004D00025FD10BD00BFFEE7704700001FB50121DC
:1004E000102003F061FD4FF4C86002900220ADF8C7
:1004F00004000020ADF80600ADF80C0001A90E487C
:1005000005F0E8FF012211460B4805F033F83620CC
:100510008DF8000001208DF8010003208DF8020005
:1005200001208DF80300684603F00EFB012103480B
:1005300004F0B8FC1FBD00000004004000100040A3
:100540002DE9F04104460D4600260027B0465248EA
:10055000844217D05148844214D05148844211D06B
:10056000504884420ED0504884420BD04F488442B9
:1005700008D04F48844205D04E48844202D04E48AD
:10058000844200D103E0BB214CA009F029FE0020E9
:1005900010B9286800B103E0BC2148A009F020FE92
:1005A000287940B12879012805D02879022802D07D
:1005B0002879032800D103E0BD2140A009F010FEF6
:1005C000E87928B1E879012802D0E879022800D139
:1005D00003E0BE2139A009F003FE002657E0012008
:1005E00000FA06F7286800EA0708B8454ED12068E7
:1005F000720003219140884320602879710088406F
:100600002168084320602879012802D0287902282F
:1006100030D1687940B16879012805D0687902281D
:1006200002D06879032800D103E0D02123A009F08B
:10063000D7FDA0687200032191408843A0606879CB
:1006400071008840A1680843A060A87910B1A8791A
:10065000012800D103E0D72118A009F0C1FD61688D
:100660000120B040814361606068A979B14089B2DE
:1006700008436060E0687200032191408843E060B5
:10068000E87971008840E1680843E060761C102E2C
:10069000A5D3BDE8F0810000000002400004024044
:1006A00000080240000C024000100240001402400A
:1006B00000180240001C0240002002402E2E5C4424
:1006C0007269766572735C53544D33324634787870
:1006D0005F5374645065726970685F4472697665CF
:1006E000725C7372635C73746D3332663478785FF6
:1006F0006770696F2E6300002DE9F04106460D46D4
:1007000014460027B8465148864217D050488642C2
:1007100014D05048864211D04F4886420ED04F48E0
:1007200086420BD04E48864208D04E48864205D0BD
:100730004D48864202D04D48864200D104E040F246
:1007400017214BA009F04CFDEDB1012D1BD0022D5E
:1007500019D0032D17D0042D15D0052D13D0062D3B
:1007600011D0072D0FD0082D0DD0092D0BD00A2D3B
:1007700009D00B2D07D00C2D05D00D2D03D00E2D3B
:1007800001D00F2D00D104E04FF4067138A009F01C
:1007900027FD9CB3092C31D084B37CB374B36CB304
:1007A000012C2BD02AD0022C28D027D026D0032CE5
:1007B00024D0042C22D021D020D0052C1ED01DD036
:1007C000092C1BD0062C19D0092C17D0072C15D0BA
:1007D00014D013D0082C11D010D00FD0092C0DD06C
:1007E0000CD00A2C0AD009D00B2C07D00C2C05D029
:1007F00004D003D00D2C01D00F2C00D104E040F226
:1008000019211BA009F0ECFC6807C00E04FA00F7E0
:10081000E91006F1200050F821006907CA0E0F21E7
:1008200091408843EA1006F1200141F82200E910C6
:1008300006F1200050F8210040EA0708E91006F10F
:10084000200040F82180BDE8F08100000000024057
:100850000004024000080240000C02400010024068
:100860000014024000180240001C02400020024018
:100870002E2E5C447269766572735C53544D33322C
:10088000463478785F5374645065726970685F4469
:1008900072697665725C7372635C73746D33326611
:1008A0003478785F6770696F2E63000070B5054615
:1008B0000C4600262B48854217D02B48854214D081
:1008C0002A48854211D02A4885420ED029488542BF
:1008D0000BD02948854208D02848854205D02848B1
:1008E000854202D02748854200D104E04FF4987138
:1008F00025A009F075FC012C25D0022C23D0042C56
:1009000021D0082C1FD0102C1DD0202C1BD0402C07
:1009100019D0802C17D0B4F5807F14D0B4F5007FA7
:1009200011D0B4F5806F0ED0B4F5006F0BD0B4F5D4
:10093000805F08D0B4F5005F05D0B4F5804F02D0D9
:10094000B4F5004F00D104E040F231110EA009F0DF
:1009500047FC2869204008B1012600E00026304607
:1009600070BD000000000240000402400008024088
:10097000000C024000100240001402400018024027
:10098000001C0240002002402E2E5C4472697665F5
:1009900072735C53544D3332463478785F537464C9
:1009A0005065726970685F4472697665725C7372D3
:1009B000635C73746D3332663478785F6770696F27
:1009C0002E63000070B504460D461648844217D0C9
:1009D0001548844214D01548844211D014488442EA
:1009E0000ED0144884420BD01348844208D01348D8
:1009F000844205D01248844202D01248844200D179
:100A000004E04FF4C97110A009F0EAFB002008B916
:100A100005B104E040F293110BA009F0E1FB6583FE
:100A200070BD0000000002400004024000080240C7
:100A3000000C024000100240001402400018024066
:100A4000001C0240002002402E2E5C447269766534
:100A500072735C53544D3332463478785F53746408
:100A60005065726970685F4472697665725C737212
:100A7000635C73746D3332663478785F6770696F66
:100A80002E63000070B504460D461648844217D008
:100A90001548844214D01548844211D01448844229
:100AA0000ED0144884420BD01348844208D0134817
:100AB000844205D01248844202D01248844200D1B8
:100AC00004E040F27F1110A009F08AFB002008B971
:100AD00005B104E04FF4C0710BA009F081FB258340
:100AE00070BD000000000240000402400008024007
:100AF000000C0240001002400014024000180240A6
:100B0000001C0240002002402E2E5C447269766573
:100B100072735C53544D3332463478785F53746447
:100B20005065726970685F4472697665725C737251
:100B3000635C73746D3332663478785F6770696FA5
:100B40002E63000070B505460C4616462E488542B9
:100B500017D02E48854214D02D48854211D02D48FB
:100B600085420ED02C4885420BD02C48854208D0B7
:100B70002B48854205D02B48854202D02A48854221
:100B800000D104E04FF4D37128A009F029FB012C17
:100B900025D0022C23D0042C21D0082C1FD0102CBF
:100BA0001DD0202C1BD0402C19D0802C17D0B4F590
:100BB000807F14D0B4F5007F11D0B4F5806F0ED0D3
:100BC000B4F5006F0BD0B4F5805F08D0B4F5005FCA
:100BD00005D0B4F5804F02D0B4F5004F00D104E049
:100BE00040F2A71111A009F0FBFA0EB1012E00D1BD
:100BF00004E04FF4D4710DA009F0F2FA0EB12C8389
:100C000000E06C8370BD0000000002400004024060
:100C100000080240000C0240001002400014024094
:100C200000180240001C0240002002402E2E5C44AE
:100C30007269766572735C53544D333246347878FA
:100C40005F5374645065726970685F447269766559
:100C5000725C7372635C73746D3332663478785F80
:100C60006770696F2E6300002DE9F04FDFF828B13F
:100C700091B04FF0FF35DBF80030B3F92210069148
:100C8000DE69B3F92490F469A189814206D8E2892A
:100C9000824203D3471AD4F8008012E0D4E90181DC
:100CA00000296FD00A8882426CD84D88854269D36A
:100CB000801A82B2486800EB8200B0F90070B0F987
:100CC0000250781C5ED0307EA17C10FB01FA217CA2
:100CD000CDE90701B3F92A60304602F09FFBC0B2AC
:100CE0000E90DBF8000007FB0A81A37C826B0127D2
:100CF000CDE90412CDE90273C069089AC17E807EF5
:100D0000CDE90001DDE90603494601F09DFB681CC1
:100D100018D046F0020002F081FBDBF80000A37C53
:100D200005FB0A81826BCDE90273CDE90412C0692B
:100D3000089AC17E807ECDE90001DDE906034946BF
:100D400001F082FBDBF800005D46C069417E007E59
:100D5000814214D9022E12D086F0040002F05EFB0C
:100D60002868C069027EC37E12FB0391437E857EA4
:100D7000089A06984B4412FB050201F06DFD0E988F
:100D800002F04CFBDBF80000627C418C1144418492
:100D900011B0BDE8F08F0000000100200448006899
:100DA000C069C06909B1027C0A60407C70470000DC
:100DB00000010020022008807047C06982898A42B1
:100DC00002D8C2898A4210D2806880B102888A42E1
:100DD0000DD843888B420AD3406800EB8100A0EB1A
:100DE0008200B0F90000002801DB012070470020DC
:100DF000704700002DE9F043304C034687B020686F
:100E00001946B0F92A60C069C06900F086F8002868
:100E100050D041680088181A01EBC0053046AF7801
:100E200002F0FCFA814620686A680123816BCDE9F3
:100E30000237CDE90421C169CB7E8A7ECDE900234A
:100E40000B7EB0F924102A78B0F9220001F0FCFAE8
:100E50002068C069417E027E91421FD9C07E11FB8D
:100E600000F812FB00F7022E18D000F083FB0646B4
:100E700000F04EFB00F04BFD21682A78CB69B1F9F8
:100E80002200DB7E12FB0302B1F9241001EB080300
:100E9000394401F0E1FC304600F039FD484602F0EB
:100EA000BDFA20686A78C369B0F922109B7E12FBF4
:100EB0000311418407B0BDE8F08300000001002069
:100EC00030B50F4C05460B4620682946C069C069FD
:100ED00000F023F8002812D04168008824682A1AFC
:100EE0000120E46900EBC200085CA47E10FB04F062
:100EF000002B04D011F8321011FB04F1196030BD41
:100F00000001002001200880704700B5C06900F092
:100F100004F8002800D0012000BD06E002888A42C3
:100F200002D842888A4202D280680028F6D17047EF
:100F30002DE9F0410025154E154C18E02069C5EB50
:100F4000051700EBC7007022001D3168FFF798F904
:100F50002069002140F8371000EBC70000F10C01B8
:100F60008161011D0A1DC0E90F126D1C4164A0685A
:100F70008542E3DB07F01AFF2169C0EB001001EBAB
:100F8000C000001D3060BDE8F081000000010020BD
:100F90003C01002070B50F490D480860084600F07C
:100FA000E5FF0C4C143CA068C0EB0010C5002846BF
:100FB00000F06AF82A460021206100F0DFFF4FF0C0
:100FC000FF30206000F066FDBDE8704007F0EEBE27
:100FD000E99000085001002010B5040009D000F08D
:100FE00065FB204606F0EAFB044600F035FD20468E
:100FF00010BD002010BD38B5054600F057FB28464F
:10100000FFF7EAFF040009D000F096F82A46002115
:10101000009000F0B3FF684600F09CF800F01CFD63
:10102000204638BD024A106021F00300506070472E
:101030004CAA012010B5040016D000F037FB0B4875
:10104000406B10F8341059B1022909D2042101EB88
:10105000C4014158486806F069FB204608F092F840
:10106000BDE8104000F0F8BC10BD00008CA90120C4
:10107000002805D0034AD16B016001B14860D063FC
:10108000704700008CA901202DE9F041044607F0CB
:1010900055FF2848E41C24F00305016C2D1DA942CE
:1010A00000D90D46C46B13E054F8042CAA420ED1AB
:1010B00084B1216809B162684A60616809B1226837
:1010C0000A60C26BA24231D12168C1632EE024685C
:1010D000002CE9D18046816BC0680F1857F8040CCA
:1010E0003E1A306838B1002008F07AF857F8040C3E
:1010F0003E1A3068D0B97068A84217DB3044441BF0
:101100003046241D08F052F8D8F80C10491BC8F8D6
:101110000C10D8F814102944C8F814107068401B3B
:1011200002D0314606F002FB44F8045C2046BDE8DC
:10113000F08100008CA901200549CA69521CCA61CE
:10114000496B01EBC0010A78521C0A7000F01AB812
:101150008CA901200A4902684B6B52F8082C03EB5A
:10116000C2021378022B03D3CB690BB15B1ECB6198
:101170001178491E11700021016008467047000077
:101180008CA90120002806D00349042202EBC000EC
:10119000496B0858083070478CA9012010B5C2B2BD
:1011A000CBB2D21A00D5524293B25B43C0F30722AE
:1011B000C1F30724121B00D55242000C92B2A0EBDF
:1011C000114002FB023200B2002801DA404200B2B4
:1011D00080B200FB002010BD10B50021084600F0D1
:1011E00011FA43F6FF725042BDE810401346014623
:1011F000AFF300802DE9FC411C4615460E4607461C
:1012000000F054FA042002F009F980461248C06840
:10121000C16C006D0F4406440D440444ADF80070E9
:10122000ADF80450ADF80260ADF80640684606F02F
:1012300007F907E023462A463146384601F00CFB01
:1012400006F0C0F80028F5D1404602F0E7F800F0BB
:1012500003FCBDE8FC810000F40000202DE9F04112
:101260001C4616460D460746022B02DB0020BDE851
:10127000F0811C20FFF708FF0028F8D00DB10561B0
:101280000AE0094A52F8241009B905E011460A6833
:10129000002AFBD109690161846186820021016015
:1012A0004160C0E90217E2E71801002070B51D4651
:1012B000FFF7D4FF040009D000F00EF8E0680068E2
:1012C00020B90348006800EB85008465204670BDA6
:1012D00000010020FFF7CCBE70B590B38269022AEE
:1012E00030DA1E4C54F8221019B944F8220032E0CA
:1012F00019464B68002BFBD106E0CB68C5681B681C
:101300002D68AB4203DD09680029F6D11AE0C1B1AE
:10131000CB68C6681B683668B3420CD1838A012B40
:1013200005D008E01946DB681B68AB4203DB0B689D
:10133000002BF7D129B14B6833B118604A6842607D
:1013400004E0FFE7012070BD44F8220048608842B5
:1013500000D100210160002070BD000018010020B4
:1013600010B503E00468FFF7B7FF20460028F9D165
:1013700010BD00000A4A816952F82130834202D12F
:10138000036842F82130416809B102680A600168C7
:1013900009B142684A600021016041607047000065
:1013A0001801002000207047022801DB0020704750
:1013B000054951F8200004E0C16809680029F6D009
:1013C00000680028F8D17047180100202DE9FC477B
:1013D00006005FD000F06AF900F0D8F83C4C814676
:1013E0002068B0F9228000F0DFF8216807468A8C77
:1013F000D01B888441E000BF47F6FF71304600F003
:10140000D5FC82460146304600F0A6FC2168054620
:1014100091F82C0000F00300012841D002283BD0B5
:1014200000204A8C101A4884ADF800006A1E10444F
:10143000ADF80400888CADF80200A9F10101084460
:10144000ADF806006A465146304600F02DFC216892
:10145000BDF8020088845146304600F0BFFA0644C9
:1014600030780A281ED00D281CD0BDF80000216855
:1014700028444884307818B1761C30780028BBD1D5
:101480002068818C39448184818D21F0030181851C
:1014900000F0E2FABDE8FC8705EBD5704010C0E72C
:1014A0002846BEE7206890F82C1001F003010129BE
:1014B0000BD0022909D0018C418431780A29D9D175
:1014C000828C02EB09018184D4E7A0F82280F4E742
:1014D0000001002070B514460D46064600F0E6F8FF
:1014E00005480068458484843046FFF76FFFBDE8F7
:1014F000704000F0B1BA000000010020034951F82B
:101500002000C1688A6A08211047000018010020E5
:1015100010B500F0CBF801F0CFF901F095FA0446D0
:1015200000F09AFA204610BD10B5044600F0BEF84F
:10153000054800210068C06942682046904704467B
:1015400000F08AFA204610BD0001002070B50C465C
:10155000054600F0ABF8064821460068C0694268BD
:1015600028469047044600F077FA204670BD0000F8
:101570000001002010B500F099F801F0A5F901F084
:1015800063FA044600F068FA204610BD10B500F07A
:101590008DF804480068C069447E00F05DFA20467A
:1015A00010BD00000001002010B5002400F07EF8FE
:1015B0000B48006890F82C1001F00C01042904D0AD
:1015C000082906D00C2907D103E0C069047E641EF7
:1015D00002E0C069007E440800F03EFA204610BDDB
:1015E00000010020024951F820000069006870479E
:1015F00018010020024951F8200000694068704736
:101600001801002070B50D46044600F04FF8204642
:1016100007F0EAFB0446284607F0EEFB044300F01F
:101620001BFA204670BD00002DE9F0411948016801
:1016300021F001010160184801258560174901600A
:1016400000681749884200D0FEE700F011FB154EF4
:101650002E20307000F01DFA134807F01FFC08F030
:10166000C6FD074601F064F910B101F06BF938B915
:1016700001F06EF9044601F061F9214601F0C8FE5F
:101680000021084600F064F905F00AFD757038463F
:10169000BDE8F081002000E000300240C2A507F460
:1016A000CDB5E8B5F400002058AA012070B5184C5B
:1016B000E06820B100F0E9F96168884204D000F0E8
:1016C00029FA00F0E2F96060E068401CE06001285F
:1016D0001CD107F06BFB05462068854216D0002818
:1016E00013DBFFF75FFE01462068C0EB00122069A4
:1016F00000EBC2025167C5EB0511064A00EBC100C1
:10170000011D1160406FFFF72BFE256070BD0000CA
:101710003C0100200001002038B504001CD0FFF778
:10172000C5FF0E480068006EA04201D100F0BBF872
:101730002046FFF701FD0090406908B100F076F9FE
:1017400000980068FFF7C6FD6846FFF703FD2046D6
:10175000FFF770FC00F080F938BD000000010020A8
:1017600038B505004FF0000411D0FFF79FFF284661
:10177000FFF7E2FC0090006800698068804702F093
:1017800041F904466846FFF7E5FC00F065F920469C
:1017900038BD38B504000ED0FFF788FF2046FFF7AC
:1017A000CBFC00F1180400906846FFF7D3FC00F072
:1017B00053F9204638BD002038BDF8B516460F460F
:1017C000050012D0FFF7B8FC009044696846FFF7A7
:1017D000C1FC2846FFF7C4FF0346082800DD2CB1F2
:1017E00032463946284607F0BDFEF8BD3246394636
:1017F000284608F057F8F8BD10B5002821D009B3E5
:101800000AB3B1F90040B2F900309C4200DA234635
:101810000380B1F90240B2F902309C4200DA23465B
:101820004380B1F90440B2F904309C4200DD234604
:101830008380B1F90610B2F90620914200DC11460E
:10184000C18010BD11460A6802604968416010BD40
:1018500000280BD003880B440380838819448180BF
:10186000418811444180C1881144C1807047B0F95A
:101870000220B1F906309A4213DCB1F90220B0F926
:1018800006309A420DDCB0F90020B1F904309A42DA
:1018900007DCB1F90010B0F90400814201DC01203D
:1018A00070470020704710B5FFF700FF01F026FDDC
:1018B00001F006FF05F0B6FABDE8104000F0CCB824
:1018C00070B50B4D04462868467CFFF7EFFE022CEE
:1018D00009D22046FFF768FD28B128684474FFF755
:1018E000E2FF0448046000F0B7F8304670BD000025
:1018F000000100207801002010B50446FFF7D6FE55
:10190000204601F01BFDBDE8104000F0A5B810B561
:101910000446FFF7CBFE204601F048FDBDE810402D
:1019200000F09AB80149886070470000F400002078
:1019300070B50446FFF7BAFE04480068C56904B1F3
:10194000C46100F089F8284670BD00000001002045
:1019500070B50C460546FFF7A9FE094822460580EA
:101960000848048008480068417C084850F8210075
:10197000C1680B6A29469847BDE8704000F06CB812
:10198000280100202A010020000100201801002069
:1019900002480068002800D000477047FC01002082
:1019A00002498A6802B98860FFF7F2BFEC010020A3
:1019B0002DE9F041084E0446056830680168284664
:1019C0008847074630684168284688472844206091
:1019D0003846BDE8F0810000040100202DE9F04107
:1019E0000C4606460025064F05E03868416830463B
:1019F000884706440544641EF7D22846BDE8F081B6
:101A0000040100202DE9F0411E46069C1746884639
:101A100005463A46A8687F1C3346D0F804C04146C4
:101A20002846E047641EF4D1BDE8F08138B505468C
:101A3000FFF73CFE2846FFF77FFB00908189491E97
:101A40000CB284816846FFF785FB14B92846FFF77E
:101A5000F1FA00F001F838BD0348C168491EC160C1
:101A600001D100F067B870473C01002010B54FF479
:101A7000F0410348FFF7D6FA0248FFF753FF10BDC5
:101A800010020020B4E50008704710B50AF04AFBC8
:101A900010BD704710B5012009F064FF1B490860B4
:101AA0000846006808B1012000E0002050B900BFDE
:101AB000502080F31188BFF34F8FBFF36F8F00BFAB
:101AC00000BFFEE703220021012009F05CFF10495E
:101AD00008600846006830B100231A4619460C48D1
:101AE000006809F0C9FF0A48006808B1012000E059
:101AF000002050B900BF502080F31188BFF34F8FF2
:101B0000BFF36F8F00BF00BFFEE710BD28000020AD
:101B10002C00002010B50648006808B9FFF7BAFF8E
:101B20004FF0FF31024800680AF0AAF910BD00002A
:101B30002800002010B500231A4619460248006804
:101B400009F09AFF10BD00002800002010B5082AF7
:101B50000EDC0346012A18D0022A56D0042A76D079
:101B600010F8042B03F8012B491EF9D1012010BDF8
:101B7000102A08DC4FEA000230F8043B22F8023B4E
:101B8000491EF9D1F2E7002010BD10F8042BD2074E
:101B9000120E491E34D010F8044B491E04F0010403
:101BA00042EA84122CD010F8044B491E04F00104C0
:101BB00042EA441224D010F8044B491E04F00104F8
:101BC00042EA04121CD010F8044B491E04F0010430
:101BD00042EAC40214D010F8044B491E04F0010478
:101BE00042EA84020CD010F8044B491E04F00104B0
:101BF00042EA440204D010F8044B04F001042243EA
:101C000003F8012B0029C0D1B0E710F8042B92078C
:101C1000120E491E15D010F8044B491E04F003049F
:101C200042EA04120DD010F8044B491E04F00304DC
:101C300042EA840205D010F8044B04F00304224366
:101C4000491E03F8012B0029DFD18FE7FFE710F8C9
:101C5000042B1207120E491E05D010F8044B04F095
:101C60000F042243491E03F8012B0029EFD17DE721
:101C70000B4810B58169002910D101218161FFF75E
:101C8000F5FEFFF787F901F083FD054905481C3192
:101C90000860BDE81040084600F068B910BD0000BB
:101CA000F4000020BD9000087CB5064628480D468B
:101CB000006868B1002005F0C3FB06E06A462946CB
:101CC000304605F08DFE05F07DFB0028F6D17CBD89
:101CD000106800901F4C506801902268BDF8000009
:101CE00032F84C1F0844ADF80000BDF8020091889E
:101CF0000844ADF80200BDF8040011880844ADF8AE
:101D00000400BDF8060091880844ADF80600684656
:101D100005F096FB0EE000BF2068BDF800106A4693
:101D20004184BDF8021081842946304605F058FEF2
:101D300005F048FB0028EFD1206830F8221F428DC3
:101D4000891A01804188C28D891A41807CBD0000BA
:101D5000240100200001002073B5124A01A9009857
:101D60001268904700240090C8B10F490025096807
:101D7000C969496959B10A684AB1019990477CBD5E
:101D80006846FFF715FE0546FFF7CEFB04440198B1
:101D9000401E0190F4D5284600F024F80444204663
:101DA0007CBD0000E80100200001002073B50D4655
:101DB0000098002490B10A490968C969496959B174
:101DC0004A684AB1294690477CBD6846FFF7F0FD56
:101DD00020B10A2802D0641CAC42F6DB20467CBD50
:101DE0000001002038B5002469460094FFF7AEFBDF
:101DF0000099814200DD0C1A204638BDB0F9003050
:101E0000B1F90020934200DA0280B0F90230B1F952
:101E10000220934200DA4280B0F90430B1F9042084
:101E2000934200DD8280B0F90620B1F906108A42A3
:101E300000DDC180704770B5B1F90040B2F90030E3
:101E40009C4200DD23460380B1F90250B2F9024002
:101E5000A54200DD2C464480B1F90460B2F904507B
:101E6000AE4200DA35468580B1F90610B2F9062097
:101E7000914200DB1146C1809D4201DBA14201DAA3
:101E8000002070BD012070BD014602480068407C02
:101E900000F002B8000100202DE9F8430126894630
:101EA000044602285DDA304F7A6802B190472E4D21
:101EB0005FEA090005F1100532D0012803D0B9F11D
:101EC000020F4ED118E055F8240088B92046FFF7DC
:101ED0006BFA009018B3C0680D21426A68469047BB
:101EE00002003ED049460098904755F8240000264D
:101EF000401C45F8240034E02046FFF755FA0090D6
:101F000068B1C0680D21426A68469047040028D035
:101F1000386800B1804749460098A047002620E075
:101F200055F82400A846012812D12046FFF73CFAB4
:101F3000009068B1C0680D21426A6846904705006C
:101F400006D0386800B1804749460098A847002667
:101F500058F8241009B1012200E00022891A48F83B
:101F600024103046BDE8F883D001002002494A69B8
:101F70004260486170470000F400002010B502E0A4
:101F800000F8011B521E0AB18307F9D1930818D03B
:101F900001EB014402F0030204EB042406E010C04C
:101FA0001B1F10C040F8084B40F8044C042BF6DA15
:101FB00001E010C05B1E002BFBD102E000F8011B0A
:101FC000521E002AFAD110BD10B5830702D520F8A1
:101FD000021B521E530811D001EB0144042B09DBF4
:101FE00010C01B1F10C0042B40F8084B40F8044CD5
:101FF000F6DA01E010C05B1E002BFBD1D20700D047
:10200000018010BD00BFFEE710B58EB00446202150
:1020100006A8FEF75CF904F0010058B1012031492F
:1020200008703148008831A334A21E21009006A810
:1020300007F04AFE04F0040058B100202949087056
:10204000294800882FA32DA21E21009006A807F082
:102050003BFE04F0020070B12348008800F5FA70DE
:1020600021490880084600882AA324A21E21009046
:1020700006A807F029FE04F0080070B11A4800888D
:10208000A0F5FA70184908800846008825A31BA20D
:102090001E21009006A807F017FE04F0100028B1DA
:1020A00024A328A21E2106A807F00EFE04F020009B
:1020B00080B102A802F0B4F80598009022A002A90D
:1020C0000EC907F0F1FD2EA31EA21E2106A807F0DF
:1020D000FBFD00BF06AA0021092001F0C1FA0EB0E5
:1020E00010BD0000EA000020E80000204B45595FC9
:1020F00055505F434C49434B000000002573202599
:10210000640000004B45595F444F574E5F434C49B4
:10211000434B00004B45595F4C4546545F434C4987
:10212000434B00004B45595F52494748545F434C6D
:1021300049434B004B45595F454E5445525F434C14
:1021400049434B0025730000667265713A202053A5
:102150005953434C4B203D202564202C48434C4B85
:10216000203D202564202C50434C4B31203D202520
:1021700064202C50434C4B32203D202564200A0023
:102180004B45595F43414E43454C5F434C49434B9C
:10219000000000001CB500200090019001210846BD
:1021A00001F002FF0121102001F0FEFE7C200090D2
:1021B00000208DF804008DF8060001208DF807003E
:1021C00069460948FEF7BCF90120009000208DF80F
:1021D00004008DF8060001208DF8070069460348C9
:1021E000FEF7AEF91CBD00000010024000000240E6
:1021F00030B589B004460D46202101A8FEF767F8E6
:10220000072C59D2DFE804F004101C2834404C009D
:102210002B462BA21E2101A807F056FD01AA002182
:10222000084601F01DFA47E02B4629A21E2101A80D
:1022300007F04AFD01AA0021012001F011FA3BE05C
:102240002B4627A21E2101A807F03EFD01AA00216E
:10225000022001F005FA2FE02B4624A21E2101A83E
:1022600007F032FD01AA0021032001F0F9F923E073
:102270002B4621A21E2101A807F026FD01AA00215C
:10228000042001F0EDF917E02B461EA21E2101A843
:1022900007F01AFD01AA0021052001F0E1F90BE089
:1022A0002B461BA21E2101A807F00EFD01AA00214A
:1022B000062001F0D5F900BF00BF09B030BD000015
:1022C00050574D315F4F75743D202564000000006C
:1022D00050574D325F4F75743D202564000000005B
:1022E0005243315F496E3D20256400005243325F06
:1022F000496E3D20256400005243335F496E3D2006
:10230000256400005243345F496E3D20256400007F
:10231000536572766F204F75743D20256400000070
:1023200030B5014601F01F04C1F34513CA0AE502A6
:1023300005EB43151544A8B230BD000010B50446A6
:1023400022464FF480610248FEF7FCFB10BD0000FE
:10235000000C024070B5064600BFF02505EB850075
:1023600085010021084601F033F801F0FFF900244F
:1023700003E0304601F0B6F9641CAC42F9D370BDFD
:102380007CB5044606A51020CDE900052001401DBE
:1023900081B21023E822052001F01CF97CBD000069
:1023A000202020202020202020202020202020202D
:1023B000202020202020202020202020202020201D
:1023C000202000000449054A0968497C52F8211080
:1023D0000969096808470000000100201801002071
:1023E00010B50446ACB90020164988714FF4A070AE
:1023F0008880F02048800846008849F241318842B0
:102400001CD12C200F4908812A2048812B2088814B
:1024100014E001200B498871F02088804FF4A070EF
:1024200048800846008849F24131884206D12C2074
:10243000044908812A2048812B208881032000F04C
:10244000E5FD10BDB00000202DE9F04F05468DB030
:102450007B48DDF860901A9C00681E4617464FF0D6
:10246000000A78B11B9B199ACDF808900593CDE925
:102470000324DDE91623CDE90023046833463A46F8
:10248000284680E0DDE9160201EB060805EB070CA3
:102490001043A8F10108ACF1010C012806D0C9F1E4
:1024A00008000590002002910990C6E06548026886
:1024B000B2F90A30581A002806DD361A002E63DDFC
:1024C0001946199B00FB0344B2F90E00A8EB00006B
:1024D000002802DD361A002E56DDB2F90C00ACEBF6
:1024E0000000002800DD3F1AB2F908300020AB429E
:1024F00035DD581B3F1A4B46B9F1080F26D006DCD4
:10250000012B0BD0022B11D0042B28D116E0102B5D
:102510001ED0182B1FD0202B21D11CE020F0070348
:1025200004EBE0041D4400F0070018E020F0030372
:1025300004EBA0041D4400F0030010E020F00103B0
:1025400004EB60041D4400F0010008E0044404E0D2
:1025500004EB400401E004EB800405440020002F5C
:1025600012DD1B9BDDF864C0CDE90403CDE90069F1
:10257000CDE902C4527C34483B4650F82200C26880
:1025800054680A462946A0470DB0BDE8F08F179958
:10259000029808440C902B49401E00900A68B2F93A
:1025A0000A30834241DCB2F90E10029881423CDBD2
:1025B0004FF0000BD84603950A9434E0BBF1000FAE
:1025C00005D10A984FF0080B10F801AB0A90059955
:1025D000ABEB090B3AFA01F00AFA09F101F0FF0A34
:1025E00004D118490968097C890716D41549096876
:1025F000C96B0A680B921B9A0AB152F82000086056
:1026000016990398009B4218521E029900F024F973
:102610000C490B980968C96B08600399169808F172
:10262000010808440390B845C8DB0998401C09908C
:102630000C980290199804440998B042A7DBA3E7CC
:10264000240100200001002018010020F0B40C46F5
:1026500012490968B1F90A30A3421CDCB1F90E3005
:10266000A34218DBB1F90830834200DD1846B1F906
:102670000C30934200DA1A4682420CDB4B7C08494C
:1026800051F8235013462246E9688E6801462846D1
:10269000B446F0BC6047F0BC704700000001002069
:1026A000180100200A46174930B40968B1F90A3008
:1026B000934225DCB1F90E30934221DBB1F90830A9
:1026C00083421DDCB1F90C30834219DB0B7C0E4CCC
:1026D000DB0709D0497C54F82130D968CC69014620
:1026E000A44630BC18466047CB6B497C1B6854F845
:1026F0002140E1688D6901462046AC4630BC604708
:1027000030BC7047000100201801002070B504465D
:102710000D4616461F48008849F24131884205D0CF
:102720001C48008845F21031884213D11949488964
:1027300000F0FAFF201200F0D5FFE0B200F0D2FF67
:102740001449888900F0F0FF281200F0CBFFE8B2AE
:1027500000F0C8FF4FF480610F48FEF733F94FF4E3
:1027600000610D48FEF72EF90A4800890B49086000
:1027700049150948FEF726F94FF400710648FEF79F
:1027800081F94FF400610448FEF77CF9304600F00F
:10279000A9FF70BDB00000200010024014040240E8
:1027A0002DE9FC5F05460E4617469846DDF8309049
:1027B000002001902748008846F60401884229D16C
:1027C00024488079012825D1AB46354621484088E8
:1027D000C01B401E86B247461E484088A0EB0B0037
:1027E000401E1FFA80F800201A4988712A2048816B
:1027F0002B20888143463A4631462846CDF8009042
:10280000FFF7CEFF0120134988712B2048812A2031
:1028100088811CE0781B401C80B20190344614E093
:102820002146284600F0D4FD00F0A0FF4FF0000A3A
:1028300006E0484600F056FF0AF101001FFA80FA50
:1028400001988245F5DB601C84B24445E8DDBDE8B3
:10285000FC9F0000B000002038B5134C2468B4F988
:102860000850854200DD2846B4F90C50954200DA44
:102870002A46824217DBB4F90A508D4200DD294610
:10288000B4F90E509D4200DA2B468B420BDB0093CD
:10289000647C064B53F82440E3681D6913460A46DE
:1028A00001462046A84738BD00010020180100203D
:1028B000082106F0E1B9000002480068806B00685A
:1028C000704700000001002002480068C06B0068EB
:1028D0007047000000010020024809210068407C88
:1028E00006F0CAB900010020092106F0C5B970B58B
:1028F00000252C462046FEF757FD00B16D1C641CD8
:10290000022CF7DB284670BD02480068407C00F0CE
:1029100003B800000001002010B5FEF745FD0028B7
:1029200005D0C168CA6ABDE810400221104710BD39
:10293000014800687047000034010020012006F0C3
:10294000DEB90000014840687047000034010020F3
:10295000022006F0D4B900F001B800002DE9F041E2
:10296000002809D0876837B10D4E716819B1046825
:10297000B4F5807F02DD0020BDE8F081306884423C
:1029800000DD0446002507E057F82500FFF71AFD93
:10299000716841F825006D1CA542F5DB7068EBE716
:1029A0005C0100201CB50020009001900121022054
:1029B00001F0B4FA0121042001F0B0FA0121102045
:1029C00001F0ACFA0121082001F0A8FA4FF4806070
:1029D000009001208DF8040000208DF806000120F1
:1029E0008DF8070002208DF8050069461348FDF7B1
:1029F000A7FD4FF47060009001208DF804000020C6
:102A00008DF806008DF8070002208DF80500694654
:102A10000B48FDF795FD4FF6FF70009001208DF8F3
:102A2000040000208DF806008DF8070002208DF8C4
:102A3000050069460348FDF783FD1CBD000C0240FC
:102A400000100240000402400449054A0968497C1C
:102A500052F8211009694968084700000001002068
:102A60001801002010B500F01F01074A074BC0F302
:102A70004514C0F3C4201B5D105C515C00EB0320C7
:102A800000EB014010BD0000ECF000080CF1000864
:102A900010B5FFF787FF322007F0A3FB01210020CC
:102AA00000F06CFE322007F09CFB002000F0A6FA3C
:102AB000A1490880D32000F037FE00F09FF900F014
:102AC0009DF900F09BF99C490880084600884FF664
:102AD000FF7101EA00209849088000F08FF99649BB
:102AE00009880843944908800846018893A007F0A4
:102AF000DBF89148008849F2413188427ED1CF20ED
:102B000000F012FE002000F0EDFDC12000F0EAFD13
:102B1000302000F0E7FDED2000F006FE642000F01C
:102B2000E1FD032000F0DEFD122000F0DBFD81203E
:102B300000F0D8FDE82000F0F7FD852000F0D2FD80
:102B4000102000F0CFFD7A2000F0CCFDCB2000F06B
:102B5000EBFD392000F0C6FD2C2000F0C3FD002065
:102B600000F0C0FD342000F0BDFD022000F0BAFDF1
:102B7000F72000F0D9FD202000F0B4FDEA2000F09D
:102B8000D3FD002000F0AEFD002000F0ABFDC02022
:102B900000F0CAFD1B2000F0A5FDC12000F0C4FD1F
:102BA000012000F09FFDC52000F0BEFD302000F0A8
:102BB00099FD302000F096FDC72000F0B5FDB7204C
:102BC00000F090FD362000F0AFFD482000F08AFDB7
:102BD0003A2000F0A9FD552000F084FDB12000F05E
:102BE000A3FD002000F07EFD1A2000F07BFDB62042
:102BF00000F09AFD0A2000F075FD00E095E0A220AB
:102C000000F070FDF22000F08FFD002000F06AFD62
:102C1000262000F089FD012000F064FDE02000F096
:102C200083FD0F2000F05EFD2A2000F05BFD2820D0
:102C300000F058FD082000F055FD0E2000F052FD78
:102C4000082000F04FFD542000F04CFDA92000F0BA
:102C500049FD432000F046FD0A2000F043FD0F200F
:102C600000F040FD002000F03DFD002000F03AFDA6
:102C7000002000F037FD002000F034FDE12000F0DE
:102C800053FD002000F02EFD152000F02BFD172035
:102C900000F028FD072000F025FD112000F022FDA6
:102CA000062000F01FFD2B2000F01CFD562000F038
:102CB00019FD3C2000F016FD052000F013FD10204A
:102CC00000F010FD0F2000F00DFD3F2000F00AFD88
:102CD0003F2000F007FD0F2000F004FD2B2000F046
:102CE00023FD002000F0FEFC002000F0FBFC012092
:102CF00000F0F8FC3F2000F0F5FC2A2000F014FD65
:102D0000002000F0EFFC002000F0ECFC002000F0C0
:102D1000E9FCEF2000F0E6FC112000F005FD782032
:102D200007F05FFA292000F0FFFC0020FFF758FBB6
:102D30000120FFF703FB10BDB00000204C434420EE
:102D40004944203A20253278200A000010B50A4C68
:102D5000606860B920688000FEF796F9606040B155
:102D600004F10801054808600846FFF7FFF8002055
:102D700010BD012010BD00005C010020FD90000886
:102D80002DE9F047FFF7B3FD07460024DFF8608028
:102D90002AE02046FEF708FB28B3D8F8000090F898
:102DA000119044742046FFF783FD082817DC114872
:102DB000114950F824000069884210D02046FFF7DE
:102DC00093FD0646002508E0E8B2FFF73DFE024607
:102DD000E9B2204600F028FB6D1CB542F4DBD8F8C0
:102DE000001081F81190641CBC42D2DBBDE8F08772
:102DF000000100201801002070F4000810B5002028
:102E00001E4908604FF055301C490C310860002005
:102E10001A491431086009151948FDF733FE4FF4BB
:102E200000611748FDF7CEFD4FF480711448FDF79F
:102E3000C9FD1448008848F68911884202D1012052
:102E400007F0CFF90D481030006884B24FF480715C
:102E50000B48FDF717FE4FF400610948FDF712FE1D
:102E60004FF055300549086004490C3108604FF6B1
:102E7000FF70024914310860204610BD0004024072
:102E800000100240B00000203EB504460D46002070
:102E900002900190009058484088A04203DD5648B7
:102EA0008088A84201DC00203EBD2946204600F073
:102EB0008FFA5148008849F24131884211D04E487A
:102EC000008846F6040188420BD04B48008845F242
:102ED0001031884205D04848008841F66311884285
:102EE00003D12E2000F020FC0DE04348008845F27D
:102EF0001051884204D14FF4385000F015FC02E024
:102F0000222000F011FC3C48008849F22031884220
:102F100002D1022007F0A6FAFFF770FF02903648B0
:102F2000008841F66311884202D1029880B2BBE763
:102F3000022007F097FAFFF761FF02902E48008801
:102F400049F2413188420BD02B48008845F21031BC
:102F5000884205D02848008845F21051884208D19F
:102F6000FFF74CFF00900298C0B201900198000258
:102F700001902148008849F22531884216D01E4828
:102F8000008844F23551884210D01B480088091F40
:102F900088420BD0184800884BF20551884205D072
:102FA000154800884CF20551884202D1029880B23F
:102FB0007AE71148008849F2413188420BD00E4827
:102FC000008845F21031884205D00B48008845F250
:102FD000105188420BD10298C00AC0020199890A97
:102FE00040EA4110009940EAD12080B25CE70299A2
:102FF00088B2FFF795F957E7B000002010B50446F6
:10300000204600F091FBFFF7F9FE10BD2DE9F041DD
:10301000054600240027B848807901280BD1B6481E
:10302000008846F60401884205D0B348008841F67E
:103030006311884208D1B0488079F0B9AE48008861
:1030400041F66311884218D1082D15D2DFE805F04A
:103050000406080A0C0E101206250DE007250BE0E9
:10306000042509E0052507E0012505E0002503E02A
:10307000032501E0022500BF00BF9F48008849F2F8
:103080004131884217D09C48008846F604018842A6
:1030900011D09948008845F2103188420BD09648EB
:1030A000008845F21051884205D09348008841F6C7
:1030B000631188427ED1082D1CD2DFE805F004069A
:1030C000090C0F12151800BF14E044F0800411E041
:1030D00044F040040EE044F0C0040BE044F020044F
:1030E00008E044F0600405E044F0A00402E044F08D
:1030F000E00400BF00BF8048008845F210518842BC
:1031000002D14FF4585700E036277B48008845F23B
:10311000103188420DD07848008845F2105188421D
:1031200007D07548008841F66311884201D044F009
:1031300008047148008846F60401884201D144F031
:1031400002042146384600F019FB6B48008841F61E
:10315000631188421DD004F0200068B166484088A1
:1031600065498988884214DA6348468880886249BC
:103170004880084686800CE05F4840885E49898820
:10318000884206DD5C48468880885B49488008465E
:1031900086805948008845F21051884254D15649DA
:1031A000488900F0C1FA002000F09CFA5249498990
:1031B000491C00E077E088B200F0B6FA002000F089
:1031C00091FA4D494989891C88B200F0ADFA4A4903
:1031D0004988491EC1F30F2000F084FA4649498905
:1031E000C91C88B200F0A0FA43498978491EC8B2C8
:1031F00000F078FA4049888900F096FA002000F043
:1032000071FA3D498989491C88B200F08DFA002085
:1032100000F068FA38498989891C88B200F084FA7C
:1032200035498988491EC1F30F2000F05BFA324905
:103230008989C91C88B200F077FA2F490979491E9B
:10324000C8B200F04FFA55E02B49488900F06CFAFB
:10325000002000F047FA002000F044FA264949888F
:10326000491EC1F30F2000F03DFA23498978491E19
:10327000C8B200F037FA2049888900F055FA0020DA
:1032800000F030FA002000F02DFA1B498988491E11
:10329000C1F30F2000F026FA17490979491EC8B278
:1032A00000F020FA26E0082D1CD2DFE805F0040724
:1032B0000A0D0F12151844F0300413E044F0100406
:1032C00010E044F020040DE000BF0BE044F03804AF
:1032D00008E044F0280405E044F0180402E044F05B
:1032E000080400BF00BF032744F480542146384639
:1032F00000F044FABDE8F081B000002010B50D4C9C
:103300000D492068407C51F8200048B1C16811B1D6
:103310000968042901D00068F7E708B1FEF72AF828
:1033200020680021016600F108014161BDE81040FC
:1033300000F02EB8000100201801002001490968A2
:103340004968084758010020044909680A7C520767
:1033500001D5C96B00E0896B08607047000100204F
:103360007CB5094C05462068417C084850F821008E
:10337000C1680A6B6946904720686A46294608304A
:10338000FEF759FD7CBD000000010020180100205F
:103390000448016804484A7C083150F82200C26899
:1033A000126B104700010020180100200149096834
:1033B0000968084758010020044909680A7C520737
:1033C00001D5896B00E0C96B0860704700010020DF
:1033D00070B504460D460D48008849F241318842D7
:1033E00013D10A49488900F09FF9201200F07AF9B8
:1033F000E0B200F077F90549888900F095F92812C4
:1034000000F070F9E8B200F06DF970BDB000002076
:10341000014AC2E9000170473401002001490968EE
:103420008968084758010020F8B515460E46012462
:10343000FDF7BAFF009058B1C0681021426A684693
:103440009047030004D02A4631460098984700244C
:103450002046F8BDF8B515460E460124FDF7A4FF39
:10346000009058B1C0680B21426A6846904703003B
:1034700004D02A4631460098984700242046F8BDDB
:10348000F8B515460E460124FDF78EFF009058B1A1
:10349000C0680A21426A68469047030004D02A4661
:1034A00031460098984700242046F8BD2DE9F84F92
:1034B00080460E4617461C46B3462046E31704EBEB
:1034C0005373DB1021464FEAE47C04EB5C7C4FEA4B
:1034D000EC0CA4EBCC0CBCF1000F02D04FF0010CB3
:1034E00001E04FF0000C6344224604EBD27C4FEA2B
:1034F0006C0C03FB0CF3DBB20093A7F12000C7B206
:10350000002556E00C2C07D107EB47002B4901EBB7
:10351000800010F8059013E0102C05D1284800EB2E
:10352000071010F805900BE0182C07D107EBC70027
:10353000244901EB800010F8059001E0BDE8F88F08
:103540004FF0000A2FE009F0800030B11E480288D9
:1035500031464046FFF7DAF807E00A9828B91B48D9
:10356000028831464046FFF7D1F84FEA49604FEAFA
:103570001069701C86B216488088B04200DCDDE716
:10358000A6EB0B00A0420AD15E4608F101001FFA2B
:1035900080F80F484088404500DCCFE706E00AF19C
:1035A000010000F0FF0ABAF1080FCCDB00BF681C75
:1035B000C5B200988542A5DB00BFBFE7E0C60008A2
:1035C00054CB000844D10008AC000020AE0000201D
:1035D000B00000202DE9F84F04460D46904699466C
:1035E000DDE90A6704F0FF0A08EB04001FFA80F81F
:1035F00009EB05001FFA80F916E0444502DB54464A
:10360000A81985B24D4500DB14E0002000903A78FF
:10361000334629462046FFF749FF304606EBD07176
:1036200004EB61018CB27F1C38787E2802DC38788C
:103630002028E2DA00BFBDE8F88F7CB504460D46CD
:10364000164610202201521D91B2EA00521DCDE90A
:10365000000690B21023E822FFF7BCFF7CBD0000FB
:1036600070B504460D4616462001421DE800411D76
:1036700005A0FDF72FFF2001421DE800411D304647
:10368000FDF728FF70BD00002020202020202020F2
:10369000202020202020202020202020202020202A
:1036A000202020202020202020202020202020201A
:1036B000202020202020202020202020202020002A
:1036C00010B5074C2068006BFEF77CFEFFF774FE18
:1036D0002068406BFEF776FEBDE81040FFF734BE71
:1036E0000001002010B504464FF480610C48FDF73E
:1036F000C9F94FF400610A48FDF764F9094804600C
:1037000041150748FDF75EF94FF400710448FDF7D5
:10371000B9F94FF400610248FDF7B4F910BD00009B
:10372000001002401404024010B504464FF48061BA
:103730000C48FDF747F94FF400610A48FDF742F9DC
:103740000948046041150748FDF73CF94FF4007142
:103750000448FDF797F94FF400610248FDF792F92C
:1037600010BD0000001002401404024010B50249D0
:103770000889FFF7D9FF10BDB000002070B50546DD
:103780000C462846FFF7D0FF2046FFF7ABFF70BD81
:1037900010B5A0B014211BA8FCF799FD682101A861
:1037A000FCF795FD00231A4609490A48FDF77EFDFE
:1037B00004464FF4A072F0210020FFF74BFE4FF4B7
:1037C000A072F0210020FFF75BFE20B010BD0000CA
:1037D000A8DE0008ACC6000810B50346144601294F
:1037E00001D1002010BD4FF0FF3200BF00BF1046D6
:1037F000F8E700002DE9FF4F8DB01746674ADDF866
:1038000070901E9E209812681D4600248AB11D9B50
:103810001F98CDE90293CDE90460DDE91A03CDE9F3
:10382000000314682B463A460D98A04711B0BDE836
:10383000F08F0D9A01EB050802EB070CDDE91A2366
:103840001A43A8F10108ACF1010C012A06D0C9F114
:1038500008004FF0000B029105909CE0504A12685E
:10386000B2F90A40631A002B06DDED1A002DDDDDEA
:1038700021461D9C03FB0466B2F90E30A8EB03033E
:10388000002B02DDED1A002DD0DDB2F90C30ACEBCF
:103890000303002B00DDFF1A0D9B1C1AB2F9083040
:1038A000A3420DDDA3EB040C0CEB0003181A20F06F
:1038B00007000444A7EB0C0706EBE30603F0070040
:1038C000002FB3DDDDF874C01F9BCDE902C6CDE942
:1038D0000403CDE90059527C32483B4650F822009F
:1038E000C26855680A462146A8479FE71B99029877
:1038F00008440C902A49401E00900A68B2F90A3028
:10390000834242DCB2F90E10029881423DDB4FF057
:10391000000A0D980A96D046039034E0BAF1000FE1
:1039200005D10A984FF0080A10F8014B0A90059942
:10393000AAEB090A34FA01F004FA09F4E4B204D15A
:1039400017490968097C890717D415490968C96BA3
:103950000A680B921F9A0AB152F820000860039976
:103960001A98009B0A18DDE90210521EFEF774FF38
:103970000B490B980968C96B086003991A9808F1FC
:10398000010808440390B845C8DB0C9802901D98C4
:103990000BF1010B0644AB45A8DB47E724010020EF
:1039A0000001002018010020002818D0410817D07D
:1039B000810817D0C10817D0010917D0410917D0C5
:1039C000010A17D0410A17D0010B15D0C10B13D033
:1039D000010C11D0810C11D0000E11D020207047A5
:1039E0000120704702207047032070470420704771
:1039F000052070470820704710207047122070473C
:103A00001820704700B50022FFF7CEFF012804D030
:103A1000811E062903D808220BE0012209E0A0F14B
:103A20000901072901D8102203E011380F2800D816
:103A30002022104600BD00001CB50020009001901F
:103A40000121102000F06AFA0320009001208DF877
:103A5000040000208DF8060001208DF807000220E8
:103A60008DF8050069460248FCF76AFD1CBD0000A0
:103A70000010024000B587B00121102000F020FBAB
:103A80000121084600F04AFA072209212948FCF7DB
:103A900033FE07220A212748FCF72EFE4FF4C060B0
:103AA000009002208DF804008DF8050000208DF8AC
:103AB000060001208DF8070069461E48FCF740FD0E
:103AC0001D4802F08FFE4FF4E13003900020ADF866
:103AD00018000C20ADF816000020ADF81400ADF869
:103AE0001200ADF8100003A9134803F037F80122C3
:103AF00040F22551104802F085FF01210E4802F0E6
:103B000017FE40210C4802F0A9FD4FF4407000F070
:103B10008DF825208DF8080002208DF8090000207E
:103B20008DF80A0001208DF80B0002A800F00CF8B7
:103B300007B000BD00000240001001407047704710
:103B400000BFFEE7704700002DE9F0410446002564
:103B500000270F26E07810B1E078012800D103E0BB
:103B6000872122A006F03CFB6078102800DA03E0F1
:103B700088211EA006F034FBA078102800DA03E0AC
:103B800089211AA006F02CFBE07818B324480068BD
:103B900000F4E060C0F5E060C0F30725C5F1040063
:103BA000C7B22E416078B840C5B2A0783040054316
:103BB0002807050E1B4821784554207800F01F0186
:103BC0000120884021784911890001F1E021C1F8E4
:103BD000000109E0207800F01F010120884012490F
:103BE0002278521141F82200BDE8F0812E2E5C446B
:103BF0007269766572735C53544D3332463478780B
:103C00005F5374645065726970685F447269766569
:103C1000725C7372635C6D6973632E6300000000F5
:103C20000CED00E000E400E080E100E010B50446A7
:103C3000B4F5E06F0BD0B4F5C06F08D0B4F5A06F49
:103C400005D0B4F5806F02D0B4F5407F00D103E019
:103C5000732104A006F0C4FA0F4820430F490860FE
:103C600010BD00002E2E5C447269766572735C5341
:103C7000544D3332463478785F53746450657269BA
:103C800070685F4472697665725C7372635C6D69BB
:103C900073632E63000000000000FA050CED00E0E5
:103CA00000B589B00020069007900121042000F0A3
:103CB00035F90121022000F077F9022206213A4865
:103CC000FCF71AFD022207213748FCF715FD0222F6
:103CD00008213548FCF710FD022209213248FCF783
:103CE0000BFD4FF47070069002208DF81C00002030
:103CF0008DF81E0001208DF81F0003208DF81D0097
:103D000006A92948FCF71CFC4FF0FF300490142052
:103D1000ADF80C000020ADF80E00ADF8140003A9BA
:103D2000224802F0D7FB1D208DF8200006208DF8D8
:103D3000210003208DF8220001208DF8230008A81F
:103D4000FFF702FF0020ADF800000A20ADF80200E6
:103D50000120ADF804000020ADF80600ADF8080021
:103D60006946124801F0ECFA0420ADF800006946FB
:103D70000E4801F0E5FA0820ADF8000069460B484E
:103D800001F0DEFA0C20ADF800006946074801F0AA
:103D9000D7FA01221F21054801F0ECFB012103485D
:103DA00001F080F809B000BD0008024000040040A6
:103DB00000B58BB0002009900A900121042000F08A
:103DC000F3F80121082000F0A9F802220C2135485F
:103DD000FCF792FC02220D213248FCF78DFC0222F6
:103DE0000E213048FCF788FC02220F212D48FCF7F9
:103DF00083FC4FF47040099002208DF828000020C9
:103E00008DF82A008DF82B0003208DF8290009A9D0
:103E10002448FCF795FB5320ADF818000020ADF8BE
:103E20001A0049F6404007900020ADF8200006A98E
:103E30001D4802F04FFB6020ADF804000120ADF8F2
:103E400006000020ADF8100041F28830039001A96F
:103E5000154801F017FC0821134801F00FFD01A9D6
:103E6000114801F07DFD08210F4801F075FE01A900
:103E70000D4801F0D3FE08210B4801F0BFFF01A956
:103E8000094802F00FF80821074802F0C5F801219F
:103E9000054800F019FF0121034801F003F80BB0B9
:103EA00000BD0000000C02400008004070B505464F
:103EB0000C4649F64040844200DD0446032D11D0F3
:103EC00004DC012D07D0022D1DD107E0042D0DD0FB
:103ED000FF2D18D10EE01048046015E00E48001DBB
:103EE000046011E00C48083004600DE00A480C3012
:103EF000046009E008480460001D0460001D0460BF
:103F0000001D046000E000BF00BF49F640410248C8
:103F1000343802F0D9F870BD3408004070B504465A
:103F20000D461048204008B904B104E04FF4886100
:103F30000DA006F055F90DB1012D00D104E040F2BD
:103F4000424109A006F04CF92DB116480068204303
:103F50001449086004E013480068A0431149086050
:103F600070BD000000EE8B812E2E5C447269766578
:103F700072735C53544D3332463478785F537464B3
:103F80005065726970685F4472697665725C7372BD
:103F9000635C73746D3332663478785F7263632E5A
:103FA000630000003038024070B504460D461048EA
:103FB000204008B904B104E040F2AD410DA006F084
:103FC0000FF90DB1012D00D104E040F2AE4109A07E
:103FD00006F006F92DB11648006820431449086020
:103FE00004E013480068A0431149086070BD000058
:103FF000003601C92E2E5C447269766572735C537B
:10400000544D3332463478785F5374645065726926
:1040100070685F4472697665725C7372635C737416
:104020006D3332663478785F7263632E630000000C
:104030004038024070B504460D461048204008B98B
:1040400004B104E04FF4AC610DA006F0C9F80DB165
:10405000012D00D104E040F2615109A006F0C0F842
:104060002DB11648006820431449086004E0134845
:104070000068A0431149086070BD0000003601C906
:104080002E2E5C447269766572735C53544D3332E4
:10409000463478785F5374645065726970685F4421
:1040A00072697665725C7372635C73746D333266C9
:1040B0003478785F7263632E63000000203802401A
:1040C00070B504460D461048204008B904B104E01C
:1040D00040F2D5410DA006F083F80DB1012D00D1BD
:1040E00004E040F2D64109A006F07AF82DB1164856
:1040F000006820431449086004E013480068A043A6
:104100001149086070BD0000CCA0F8FF2E2E5C4461
:104110007269766572735C53544D333246347878E5
:104120005F5374645065726970685F447269766544
:10413000725C7372635C73746D3332663478785F6B
:104140007263632E630000004438024070B5044679
:104150000D461048204008B904B104E040F28451F3
:104160000DA006F03DF80DB1012D00D104E040F2A4
:10417000855109A006F034F82DB116480068204397
:104180001449086004E013480068A043114908601E
:1041900070BD0000CCA6F8FF2E2E5C4472697665D7
:1041A00072735C53544D3332463478785F53746481
:1041B0005065726970685F4472697665725C73728B
:1041C000635C73746D3332663478785F7263632E28
:1041D00063000000243802400E48006840F00100EF
:1041E0000C49086000200B49083108600948006844
:1041F00009490840074908600848091D0860081F68
:10420000006820F48020091F0860002001490C315B
:104210000860704700380240FFFFF6FE10300024AF
:10422000F0B5002100220024022500260223324F8F
:104230003F6807F00C0121B1042905D0082937D1C6
:1042400005E02E4F076036E02D4F076033E02A4F20
:104250003F1F3F68C7F38056274F3F1F3F6807F057
:104260003F036EB1264FB7FBF3F7DFF88CC0ACF11C
:10427000040CDCF800C0CCF3881C07FB0CF40CE049
:104280001E4FB7FBF3F7DFF870C0ACF1040CDCF89D
:1042900000C0CCF3881C07FB0CF4174F3F1F3F688E
:1042A000C7F301477F1C7D00B4FBF5F7076002E010
:1042B000124F076000BF00BF0F4F3F6807F0F001CB
:1042C0000909104F7A5C0768D74047600A4F3F687A
:1042D00007F4E051890A0B4F7A5C4768D740876042
:1042E000054F3F6807F46041490B064F7A5C476809
:1042F000D740C760F0BD0000083802400024F40039
:1043000040787D01040000202DE9F041044600259D
:1043100000260027212C17D0312C15D0392C13D092
:10432000412C11D0612C0FD0792C0DD07A2C0BD0D0
:104330007B2C09D07C2C07D07D2C05D07E2C03D083
:104340007F2C01D03B2C00D104E040F29C610FA0F7
:1043500005F046FF6511012D02D11B48066808E0F3
:10436000022D03D118487030066802E016487430F8
:10437000066804F01F050120A840304008B101275D
:1043800000E000273846BDE8F08100002E2E5C4496
:104390007269766572735C53544D33324634787863
:1043A0005F5374645065726970685F4472697665C2
:1043B000725C7372635C73746D3332663478785FE9
:1043C0007263632E630000000038024002480068F8
:1043D00000F00C00704700000838024070B5044639
:1043E00000257CB1802C0DD0902C0BD0A02C09D0B6
:1043F000B02C07D0C02C05D0D02C03D0E02C01D09D
:10440000F02C00D104E040F2E92105A005F0E8FE1F
:104410001248056825F0F0052543056070BD0000D1
:104420002E2E5C447269766572735C53544D333240
:10443000463478785F5374645065726970685F447D
:1044400072697665725C7372635C73746D33326625
:104450003478785F7263632E63000000083802408E
:1044600010B504461CB1012C01D0052C00D103E08D
:10447000F02104A005F0B4FE0020114908700846A0
:10448000047010BD2E2E5C447269766572735C53A5
:10449000544D3332463478785F5374645065726992
:1044A00070685F4472697665725C7372635C737482
:1044B0006D3332663478785F7263632E6300000078
:1044C0000238024070B5044600255CB1B4F5805F47
:1044D00008D0B4F5A05F05D0B4F5C05F02D0B4F544
:1044E000E05F00D104E040F2093105A005F078FE5C
:1044F0001248056825F4E0552543056070BD0000AD
:104500002E2E5C447269766572735C53544D33325F
:10451000463478785F5374645065726970685F449C
:1045200072697665725C7372635C73746D33326644
:104530003478785F7263632E6300000008380240AD
:1045400070B5044600255CB1B4F5805F08D0B4F5C1
:10455000A05F05D0B4F5C05F02D0B4F5E05F00D134
:1045600004E04FF44A7105A005F03AFE12480568D0
:1045700025F4604545EAC405056070BD2E2E5C44F7
:104580007269766572735C53544D33324634787871
:104590005F5374645065726970685F4472697665D0
:1045A000725C7372635C73746D3332663478785FF7
:1045B0007263632E630000000838024010B50446A1
:1045C0000CB1012C00D104E04FF4E77102A005F01A
:1045D00007FE1048046610BD2E2E5C447269766595
:1045E00072735C53544D3332463478785F5374643D
:1045F0005065726970685F4472697665725C737247
:10460000635C73746D3332663478785F7263632EE3
:1046100063000000000047422DE9F04105460F46C7
:1046200016461C46DDF8188015B1B5F5800F00D18F
:1046300004E040F2B7111FA005F0D2FD3F2F00D8D3
:1046400004E04FF4DC711BA005F0CAFDC02E03D3BB
:10465000B6F5D87F00D804E040F2B91115A005F0F6
:10466000BFFD022C05D0042C03D0062C01D0082C51
:1046700000D104E04FF4DD710EA005F0B1FDB8F1FA
:10468000040F03D3B8F10F0F00D804E040F2BB11C0
:1046900008A005F0A5FD47EA86100121C1EB5401F1
:1046A00040EA0140284340EA086011490860BDE83B
:1046B000F08100002E2E5C447269766572735C5343
:1046C000544D3332463478785F5374645065726960
:1046D00070685F4472697665725C7372635C737450
:1046E0006D3332663478785F7263632E6300000046
:1046F0000438024070B5044600251CB1012C01D0DD
:10470000022C00D104E04FF42D7105A005F068FDE6
:104710001248056825F003052543056070BD0000BB
:104720002E2E5C447269766572735C53544D33323D
:10473000463478785F5374645065726970685F447A
:1047400072697665725C7372635C73746D33326622
:104750003478785F7263632E63000000083802408B
:1047600038B5002000900024002500BF3120FFF75D
:10477000CBFD05460098401C00900098B0F5A06F56
:1047800001D0002DF2D03120FFF7BEFD08B1012489
:1047900000E00024204638BD0CB5002001900090B8
:1047A0003448006840F480303249086000BF314826
:1047B000006800F4003000900198401C01900098BF
:1047C00018B90198B0F5A06FF1D12A48006800F43B
:1047D000003010B10120009001E00020009000980E
:1047E000012846D123484030006840F080502149DC
:1047F000403108602048006840F480401E4908604D
:104800001C48083000681B490831086008460068E9
:1048100040F4004008600846006840F4A05008607A
:104820001648091F0860081F006840F08070091FC3
:10483000086000BF0F48006800F000700028F9D041
:1048400040F205600E4908600A480830006820F010
:1048500003000849083108600846006840F002007B
:10486000086000BF03480830006800F00C0008280A
:10487000F8D10CBD003802400070004019544007C8
:10488000003C024010B500BF502080F31188BFF3F8
:104890004F8FBFF36F8F00BF07F060FC18B14FF070
:1048A00080500449086000BF002080F3118800BFD9
:1048B00010BD000004ED00E038B5FFF78DFC0120CD
:1048C000FFF7CEFDFFF74CFF0446012C25D1002059
:1048D000FFF784FD0020FFF733FE2003FFF7F2FD12
:1048E0000220FFF707FF072002234FF4A8721921C7
:1048F00000905805FFF790FE0120FFF75FFE00BF14
:104900003920FFF701FD0028FAD00220FFF7F2FE60
:1049100000BFFFF75BFD0828FBD101218803FFF7EB
:10492000CFFB38BD10B51548006840F4700013493E
:1049300008601348006840F0010011490860002039
:104940000F49083108600E4800680E4908400C49BC
:1049500008600D48091D0860081F006820F48020C9
:10496000091F0860002006490C310860FFF714FF9A
:104970004FF0006001498039086010BD88ED00E00B
:1049800000380240FFFFF6FE10300024F0B50C4660
:10499000154600210022068C4FF6FE773E40068425
:1049A000018B028C4FF60C7631407E1C06EA031612
:1049B0002E4331434FF6F576324044F00106324340
:1049C00001830284F0BDF0B50C461546002100229B
:1049D0000026078C4FF6EF7C07EA0C070784018B53
:1049E000028C4FF6FF7707EA041640F6FF4739407E
:1049F0004FF6FF7707EA033739434FF6FF7707EAA9
:104A0000052739434FF65F773A4046F010073A439F
:104A100001830284F0BDF0B50C461546002100224A
:104A20000026078C4FF6FF6C07EA0C070784818B82
:104A3000028C4FF6FF7707EA04264FF60C773940D1
:104A40004FF6FF7707EA03172F4339434FF2FF571B
:104A50003A4046F480773A4381830284F0BDF0B552
:104A60000C461546002100220026078C4EF6FF7CDE
:104A700007EA0C070784818B028C4FF6FF7707EA61
:104A8000043640F6FF4739404FF6FF7707EA05271F
:104A900039434FF6FF7707EA0337394345F6FF7787
:104AA0003A4046F480573A4381830284F0BD0000C7
:104AB00010B50221774800F0ADFBA0B34021764845
:104AC000FBF7F4FE012805D1724800F06BFA734938
:104AD000086020E040217048FBF7E8FED8B96D4837
:104AE00000F060FA6E4908606C4800680968884206
:104AF0000AD96A4800684FF6FF71081A68490968C0
:104B000008446849086006E0654800686349096828
:104B1000401A644908605F481030008820F00200A5
:104B20005C491031088004215A4800F073FBA0B39F
:104B300080215948FBF7BAFE012805D1554800F0FD
:104B400093FA5649486020E080215348FBF7AEFEB7
:104B5000D8B9504800F088FA514948604F48406839
:104B6000496888420AD94D4840684FF6FF71081AD3
:104B70004B49496808444B49486006E0484840684A
:104B800046494968401A4749486042481030008801
:104B900020F004003F491031088008213D4800F012
:104BA00039FBB0B34FF480713B48FBF77FFE01281F
:104BB00005D1384800F0A6FA3849886021E04FF462
:104BC00080713548FBF772FED8B9324800F09AFA86
:104BD0003349886031488068896888420AD92F48FB
:104BE00080684FF6FF71081A2D49896808442D49DD
:104BF000886006E02A48806828498968401A29495F
:104C0000886024481030008820F0080021491031C5
:104C1000088010211F4800F0FDFAB0B34FF4007176
:104C20001D48FBF743FE012805D11A4800F0AEFAF3
:104C30001A49C86021E04FF400711748FBF736FEAF
:104C4000D8B9144800F0A2FA1549C8601348C068E2
:104C5000C96888420AD91148C0684FF6FF71081A1E
:104C60000F49C96808440F49C86006E00C48C0688D
:104C70000A49C968401A0B49C860064810300088C4
:104C800020F010000349103108800121014800F094
:104C90009BF810BD00040040000802406CA90120F0
:104CA0007CA901205CA9012010B505480068401CC2
:104CB000034908600121034800F086F810BD000098
:104CC000E00000200010004070B504460D46224868
:104CD000844226D0B4F1804F23D02048844220D093
:104CE0001F4884421DD01F4884421AD01E48844267
:104CF00017D01E48844214D01D48844211D01D484C
:104D000084420ED01C4884420BD01C48844208D0F8
:104D10001B48844205D01B48844202D01A48844272
:104D200000D104E040F2072118A005F059FA0DB1B6
:104D3000012D00D104E04FF4027114A005F050FAE7
:104D400025B1208840F08000208004E020884FF6C4
:104D50007F710840208070BD0000014000040040C9
:104D600000080040000C004000100040001400400B
:104D7000000401400040014000440140004801405F
:104D800000180040001C0040002000402E2E5C4413
:104D90007269766572735C53544D33324634787859
:104DA0005F5374645065726970685F4472697665B8
:104DB000725C7372635C73746D3332663478785FDF
:104DC00074696D2E6300000070B504460D461948E5
:104DD000844226D0B4F1804F23D01748844220D09B
:104DE000164884421DD0164884421AD01548844281
:104DF00017D01548844214D01448844211D0144866
:104E000084420ED0134884420BD01348844208D009
:104E10001248844205D01248844202D0114884428C
:104E200000D104E040F6F3110FA005F0D9F9E843F2
:104E3000208270BD000001400004004000080040D6
:104E4000000C00400010004000140040000401402D
:104E5000004001400044014000480140001800406B
:104E6000001C0040002000402E2E5C4472697665D4
:104E700072735C53544D3332463478785F537464A4
:104E80005065726970685F4472697665725C7372AE
:104E9000635C73746D3332663478785F74696D2E39
:104EA0006300000070B504460D462248844226D0B7
:104EB000B4F1804F23D02048844220D01F48844240
:104EC0001DD01F4884421AD01E48844217D01E4865
:104ED000844214D01D48844211D01D4884420ED013
:104EE0001C4884420BD01C48844208D01B48844292
:104EF00005D01B48844202D01A48844200D104E005
:104F000040F24D2118A005F06BF90DB1012D00D133
:104F100004E040F24E2114A005F062F925B120888A
:104F200040F00100208004E020884FF6FE71084028
:104F3000208070BD000001400004004000080040D7
:104F4000000C00400010004000140040000401402C
:104F5000004001400044014000480140001800406A
:104F6000001C0040002000402E2E5C4472697665D3
:104F700072735C53544D3332463478785F537464A3
:104F80005065726970685F4472697665725C7372AD
:104F9000635C73746D3332663478785F74696D2E38
:104FA0006300000010B504461548844220D0B4F1D7
:104FB000804F1DD0134884421AD01348844217D022
:104FC0001248844214D01248844211D011488442BD
:104FD0000ED0114884420BD01048844208D01048AB
:104FE000844205D00F48844202D00F48844200D149
:104FF00004E040F2E9710DA005F0F2F8606B10BD1D
:10500000000001400004004000080040000C004087
:1050100000040140004001400044014000480140BC
:1050200000180040001C0040002000402E2E5C4470
:105030007269766572735C53544D333246347878B6
:105040005F5374645065726970685F447269766515
:10505000725C7372635C73746D3332663478785F3C
:1050600074696D2E6300000010B504460F48844239
:1050700014D0B4F1804F11D00D4884420ED00D48A9
:1050800084420BD00C48844208D00C48844205D09E
:105090000B48844202D00B48844200D104E04FF414
:1050A000FF6109A005F09CF8A06B10BD0000014055
:1050B0000004004000080040000C004000040140D3
:1050C00000400140001800402E2E5C447269766555
:1050D00072735C53544D3332463478785F53746442
:1050E0005065726970685F4472697665725C73724C
:1050F000635C73746D3332663478785F74696D2ED7
:105100006300000010B504460C4884420ED0B4F190
:10511000804F0BD00A48844208D00A48844205D008
:105120000948844202D00948844200D104E040F694
:10513000060107A005F054F8E06B10BD0000014027
:105140000004004000080040000C00400004014042
:105150002E2E5C447269766572735C53544D333203
:10516000463478785F5374645065726970685F4440
:1051700072697665725C7372635C73746D333266E8
:105180003478785F74696D2E6300000010B50446B2
:105190000C4884420ED0B4F1804F0BD00A488442B0
:1051A00008D00A48844205D00948844202D0094800
:1051B000844200D104E040F6140107A005F010F885
:1051C000206C10BD000001400004004000080040B9
:1051D000000C0040000401402E2E5C44726976658C
:1051E00072735C53544D3332463478785F53746431
:1051F0005065726970685F4472697665725C73723B
:10520000635C73746D3332663478785F74696D2EC5
:10521000630000002DE9F04104460D4600260027FA
:10522000B0462B48844226D0B4F1804F23D0294881
:10523000844220D0284884421DD0284884421AD075
:105240002748844217D02748844214D026488442F5
:1052500011D0264884420ED0254884420BD02548E0
:10526000844208D02448844205D02448844202D095
:105270002348844200D104E040F6CC1121A004F080
:10528000AFFF012D0DD0022D0BD0042D09D0082D1C
:1052900007D0102D05D0202D03D0402D01D0802D1A
:1052A00000D104E040F6CD1116A004F099FF208A49
:1052B00000EA0507A08900EA050827B1B8F1000F48
:1052C00001D0012600E000263046BDE8F081000054
:1052D000000001400004004000080040000C0040B5
:1052E0000010004000140040000401400040014054
:1052F000004401400048014000180040001C0040EC
:10530000002000402E2E5C447269766572735C53F7
:10531000544D3332463478785F5374645065726903
:1053200070685F4472697665725C7372635C7374F3
:105330006D3332663478785F74696D2E63000000D7
:1053400070B504460D467148844220D0B4F1804FB8
:105350001DD06F4884421AD06E48844217D06E48E0
:10536000844214D06D48844211D06D4884420ED0DE
:105370006C4884420BD06C48844208D06B4884420D
:1053800005D06B48844202D06A48844200D104E0D0
:1053900040F2657168A004F023FF688828B168882E
:1053A000022802D068880A2800D104E040F2667121
:1053B00061A004F015FFA888012805D0A88802285C
:1053C00002D0A888032800D104E040F267715AA0F7
:1053D00004F006FFE88840B1E888042805D0E88892
:1053E000082802D0E8880C2800D104E04FF4ED61D1
:1053F00051A004F0F5FE28890F2800DC04E040F2FB
:1054000069714DA004F0ECFE288850B92B89AA8858
:1054100069882046FFF7BAFAE988204600F0C2FE04
:1054200073E02888042828D13848844214D0B4F185
:10543000804F11D0364884420ED0364884420BD07B
:105440003548844208D03548844205D034488442E7
:1054500002D03648844200D104E040F2777136A091
:1054600004F0BEFE2B89AA8869882046FFF7ABFAB4
:10547000E988204600F00EFF47E02888082822D15E
:10548000224884420ED0B4F1804F0BD02048844291
:1054900008D02048844205D01F48844202D01F48CB
:1054A000844200D104E040F2817123A004F098FE10
:1054B0002B89AA8869882046FFF7ADFAE98820463B
:1054C00000F050FF21E0114884420ED0B4F1804F2B
:1054D0000BD00F48844208D00E48844205D00E48B5
:1054E000844202D00D48844200D104E040F28B7126
:1054F00011A004F075FE2B89AA8869882046FFF761
:10550000AEFAE988204600F087FF70BD0000014038
:105510000004004000080040000C0040000401406E
:105520000040014000440140004801400018004094
:10553000001C0040002000402E2E5C4472697665FD
:1055400072735C53544D3332463478785F537464CD
:105550005065726970685F4472697665725C7372D7
:10556000635C73746D3332663478785F74696D2E62
:105570006300000070B504460D4616462548844277
:1055800026D0B4F1804F23D02348844220D0234832
:1055900084421DD0224884421AD02248844217D027
:1055A0002148844214D02148844211D020488442AA
:1055B0000ED0204884420BD01F48844208D01F4898
:1055C000844205D01E48844202D01E48844200D145
:1055D00004E040F63D111CA004F002FE05F47F40FB
:1055E00008B905B104E040F63E1117A004F0F8FD3B
:1055F0000EB1012E00D104E040F63F1112A004F0DC
:10560000EFFD1EB1A0892843A08102E0A089A84334
:10561000A08170BD0000014000040040000800406F
:10562000000C004000100040001400400004014045
:105630000040014000440140004801400018004083
:10564000001C0040002000402E2E5C4472697665EC
:1056500072735C53544D3332463478785F537464BC
:105660005065726970685F4472697665725C7372C6
:10567000635C73746D3332663478785F74696D2E51
:10568000630000002DE9F04105460C464FF000088C
:10569000002600275F48854220D0B5F1804F1DD0FD
:1056A0005D4885421AD05D48854217D05C488542E6
:1056B00014D05C48854211D05B4885420ED05B48CF
:1056C00085420BD05A48854208D05A48854205D0B9
:1056D0005948854202D05948854200D104E040F241
:1056E0009E2157A004F07CFD208870B120881028EE
:1056F0000BD02088202808D02088302805D020888A
:10570000602802D02088702800D104E040F29F2158
:105710004BA004F065FD608810B16088012800D1BD
:1057200004E04FF4287146A004F05AFDA08910B19E
:10573000A089022800D104E040F2A12140A004F099
:105740004FFD288C4FF6FE71084028842E8CAF88C0
:10575000B5F818804FF68F7008EA0008881E08EA2E
:105760000008208840EA0808481E0640A089064331
:10577000608806432748854202D02A48854241D1A5
:10578000A08810B1A088042800D104E040F2BE2116
:105790002BA004F025FDE08910B1E089082800D194
:1057A00004E040F2BF2126A004F01AFD608AB0F5A3
:1057B000007F01D0608A00B904E04FF4307120A06E
:1057C00004F00EFD208AB0F5807F01D0208A00B958
:1057D00004E040F2C1211AA004F002FD4FF6F77078
:1057E0000640E08906434FF6FB700640A08806435A
:1057F0004FF6FF6007404FF6FF500740208A0743EF
:10580000608A0743AF80A5F81880A06868632E847B
:10581000BDE8F081000001400004004000080040A5
:10582000000C0040000401400040014000440140E1
:105830000048014000180040001C004000200040CB
:105840002E2E5C447269766572735C53544D33320C
:10585000463478785F5374645065726970685F4449
:1058600072697665725C7372635C73746D333266F1
:105870003478785F74696D2E6300000070B504465B
:105880000D4600261C48844220D0B4F1804F1DD024
:105890001A4884421AD01A48844217D019488442C0
:1058A00014D01948844211D0184884420ED01848A8
:1058B00084420BD01748844208D01748844205D050
:1058C0001648844202D01648844200D104E040F2D7
:1058D000D34114A004F084FC082D00D005B904E0E5
:1058E00040F2D4410FA004F07BFC268B4FF6F770FA
:1058F00006402E43268370BD000001400004004096
:1059000000080040000C004000040140004001403D
:10591000004401400048014000180040001C0040C5
:10592000002000402E2E5C447269766572735C53D1
:10593000544D3332463478785F53746450657269DD
:1059400070685F4472697665725C7372635C7374CD
:105950006D3332663478785F74696D2E63000000B1
:105960002DE9F04105460C464FF0000800260027BF
:105970006348854214D0B5F1804F11D0614885420B
:105980000ED0614885420BD06048854208D06048FF
:10599000854205D05F48854202D05F48854200D1EC
:1059A00004E040F2EF215DA004F01AFC208870B101
:1059B000208810280BD02088202808D02088302864
:1059C00005D02088602802D02088702800D104E00B
:1059D0004FF43C7151A004F003FC608810B1608862
:1059E000012800D104E040F2F1214CA004F0F8FBC2
:1059F000A08910B1A089022800D104E040F2F22170
:105A000046A004F0EDFB288C4FF6EF710840288487
:105A10002E8CAF88B5F8188048F6FF7008EA0008A9
:105A20004FF6FF4008EA000820884FF6FF7101EAB0
:105A3000002040EA08084FF6DF700640A08901EA1E
:105A400000100643608801EA001006432C48854296
:105A500002D02F4885424BD1A08810B1A0880428DD
:105A600000D104E04FF444712CA004F0B9FBE089AC
:105A700010B1E089082800D104E040F2113127A0DC
:105A800004F0AEFB608AB0F5007F01D0608A00B9F7
:105A900004E040F2123121A004F0A2FB208AB0F50C
:105AA000807F01D0208A00B904E040F213311BA0AE
:105AB00004F096FB4FF67F700640E0894FF6FF71C9
:105AC00001EA001006434FF6BF700640A08801EAC5
:105AD000001006434FF6FF3007404FF2FF700740BB
